:100000000C9424010C9441010C9441010C94410185
:100010000C9441010C9441010C9441010C94410158
:100020000C9441010C9441010C9441010C94410148
:100030000C9441010C9441010C94F8020C94410180
:100040000C9441010C9441010C9441010C94410128
:100050000C9441010C946E020C9441010C944101EA
:100060000C9441010C944101000000000000005F6D
:1000700000000007000700147F147F14242A7F2A41
:10008000122313086462364955225000050300000C
:10009000001C2241000041221C0014083E081408E4
:1000A000083E0808005030000008080808080060F2
:1000B00060000020100804023E5149453E00427F86
:1000C000400042615149462141454B311814127F8D
:1000D0001027454545393C4A494930017109050316
:1000E0003649494936064949291E0036360000007E
:1000F0005636000008142241001414141414004150
:100100002214080201510906324979413E7E11113B
:10011000117E7F494949363E414141227F4141227A
:100120001C7F494949417F090909013E4149497AF2
:100130007F0808087F00417F41002040413F017F48
:10014000081422417F404040407F020C027F7F0420
:1001500008107F3E4141413E7F090909063E415159
:10016000215E7F09192946464949493101017F012C
:10017000013F4040403F1F2040201F3F4038403F4C
:100180006314081463070870080761514945430068
:100190007F41410002040810200041417F00040219
:1001A0000102044040404040000102040020545439
:1001B00054787F48444438384444442038444448C0
:1001C0007F3854545418087E0901020C5252523E92
:1001D0007F0804047800447D40002040443D007FB7
:1001E0001028440000417F40007C041804787C08FB
:1001F00004047838444444387C1414140808141453
:10020000187C7C080404084854545420043F44409B
:10021000203C4040207C1C2040201C3C4030403C86
:1002200044281028440C5050503C4464544C440022
:100230000836410000007F00000041360800100829
:10024000081008000000000011241FBECFEFD8E006
:10025000DEBFCDBF11E0A0E0B1E0E6EBFBE002C005
:1002600005900D92A230B107D9F723E0A2E0B1E0EA
:1002700001C01D92A335B207E1F70E946C030C94F4
:10028000D9050C9400004198662311F0439A01C0EF
:10029000439827E030E090E0AC01022E02C0559573
:1002A00047950A94E2F740FF02C0449A01C044987F
:1002B000459A45982150310978F7419A089560E0B0
:1002C0000C944301CF93DF93399A3A9A3B9A3C9A24
:1002D0003D9A429A419A83EC99E00197F1F700C068
:1002E000000042988BE594E40197F1F700C000000C
:1002F000429A419881E20E945F0183E10E945F017E
:1003000086E00E945F0182EC0E945F0180E20E9411
:100310005F0189E00E945F0180E80E945F0180E444
:100320000E945F01C8EFD1E061E080E00E944301DC
:100330002197D1F788E00E945F018CE0DF91CF9197
:100340000C945F0180E80E945F0180E40E945F01DD
:100350001092420310924303EAE4F1E0119283E029
:10036000E234F807D9F70895962F969596959695C5
:10037000E82FF0E084E5989FE00DF11D1124E65B85
:10038000FE4F677081E090E001C0880F6A95EAF740
:10039000442319F09081892B03C080959081892393
:1003A00080830895BF92CF92DF92EF92FF920F93D6
:1003B0001F93CF93DF93D62E95E0699FE001112420
:1003C00097E0699F80011124B12C082E000C990B35
:1003D000809725E0289F7001299FF00C11248B2D18
:1003E00090E08C179D0754F5C12C8C2D90E0801760
:1003F000910714F58B2D6D2D0E94DF03F701E80F97
:10040000F11DE859FF4FE491F0E08C2D0E94DF03CD
:1004100002C0F595E7958A95E2F7609143038091D4
:1004200042036C0DE0FF02C041E001C040E08B0DD3
:100430000E94B401C394D9CFB394D1CF8091420329
:1004400091E0980F8D2D880F880F8D0D890F8435C1
:1004500018F4809342030BC010924203809143032F
:100460008F5F97E0D99E800D112480934303809184
:100470004303803320F01092420310924303DF9134
:10048000CF911F910F91FF90EF90DF90CF90BF9091
:1004900008951F93CF93DF93162FEC018991882342
:1004A00021F0612F0E94D201F9CFDF91CF911F91EE
:1004B0000895CF93DF9380E80E945F0180E40E945B
:1004C0005F01CAE4D1E061E089910E94430183E0C9
:1004D000C234D807C1F7DF91CF9108951F920F92D0
:1004E0000FB60F921124CF92DF92EF92FF922F93CB
:1004F0003F934F935F936F937F938F939F93AF93AC
:10050000BF93CF93DF93EF93FF93EAE7F0E080810F
:100510008F77808380818F7B808380818F7D8083B4
:100520008081877F8083C8E7D0E06881798180E01F
:1005300090E00E94A9042BE13FE24DED5DE30E94B3
:100540003705609348037093490380934A0390935F
:100550004B036881798180E090E00E94A9042BE13F
:100560003FE24DED5DE30E9437050E947A047093EF
:1005700052036093510368817981C0915103D091F6
:10058000520380E090E00E94A9042DEC3CEC4CE288
:1005900051E40E9437056B017C0184E68C9FB00119
:1005A0008D9F700D112480E090E00E94A9049B01B2
:1005B000AC01C701B6010E940D040E947A04609349
:1005C0005003FF91EF91DF91CF91BF91AF919F9138
:1005D0008F917F916F915F914F913F912F91FF90FC
:1005E000EF90DF90CF900F900FBE0F901F90189557
:1005F0001F920F920FB60F9211242F933F934F9398
:100600005F936F937F938F939F93AF93BF93EF937A
:10061000FF9380914C0390914D03A0914E03B091B4
:100620004F030196A11DB11D80934C0390934D0380
:10063000A0934E03B0934F0360914C0370914D0310
:1006400080914E0390914F0326E930E040E050E066
:100650000E94EB03672B682B692BA1F480917A0031
:10066000806880937A0080917A00806480937A0019
:1006700080917A00806280937A0080917A0088600D
:1006800080937A00FF91EF91BF91AF919F918F91ED
:100690007F916F915F914F913F912F910F900FBE7E
:1006A0000F901F901895209144033091450340917D
:1006B0004603509147030E940E04609344037093D5
:1006C0004503809346039093470320E030E048ECD5
:1006D00052EC0E9437050895CF93DF9300D000D0ED
:1006E00000D0CDB7DEB784B18FEF84B915B88EEFE7
:1006F00087B918B882E084BD93E095BD99EF97BDA6
:1007000080936E0085E48093810083E88093B0003D
:1007100081E08093B10080916F00806280936F00D0
:1007200080EC80937C008FEE80937A0010927B00A7
:100730008EE380937E0078940E94620120914803AA
:100740003091490340914A0350914B0360E070E0BF
:1007500080E192E40E940D040E94530323E333E3FB
:1007600043E250E40E9437050E947A046093B3008C
:100770000E94A20180915103909152034AE0BE0170
:100780006F5F7F4F0E94A40561E0CE0101960E9439
:10079000490261E080E091E00E94490280915003AB
:1007A0004AE0BE016F5F7F4F90E00E94A40561E0C8
:1007B000CE0101960E9449020E945902BFCF991BA7
:1007C00079E004C0991F961708F0961B881F7A9548
:1007D000C9F780950895A1E21A2EAA1BBB1BFD0143
:1007E0000DC0AA1FBB1FEE1FFF1FA217B307E40710
:1007F000F50720F0A21BB30BE40BF50B661F771F68
:10080000881F991F1A9469F7609570958095909547
:100810009B01AC01BD01CF0108955058BB27AA2709
:100820000E9425040C94FD040E94EF0438F00E94FD
:10083000F60420F039F49F3F19F426F40C94EC04EC
:100840000EF4E095E7FB0C94E604E92F0E940E05F8
:1008500058F3BA17620773078407950720F079F4F5
:10086000A6F50C9430050EF4E0950B2EBA2FA02DB2
:100870000B01B90190010C01CA01A0011124FF274D
:10088000591B99F0593F50F4503E68F11A16F04048
:10089000A22F232F342F4427585FF3CF4695379547
:1008A0002795A795F0405395C9F77EF41F16BA0B0C
:1008B000620B730B840BBAF09150A1F0FF0FBB1FBA
:1008C000661F771F881FC2F70EC0BA0F621F731F03
:1008D000841F48F4879577956795B795F7959E3F60
:1008E00008F0B0CF9395880F08F09927EE0F9795F1
:1008F000879508950E94160588F09F5798F0B92FA4
:100900009927B751B0F0E1F0660F771F881F991F44
:100910001AF0BA95C9F714C0B13091F00E943005B1
:10092000B1E008950C943005672F782F8827B85FC1
:1009300039F0B93FCCF3869577956795B395D9F79C
:100940003EF490958095709561957F4F8F4F9F4FA6
:100950000895E89409C097FB3EF4909580957095B2
:1009600061957F4F8F4F9F4F9923A9F0F92F96E9FB
:10097000BB279395F695879577956795B795F11170
:10098000F8CFFAF4BB0F11F460FF1BC06F5F7F4F0D
:100990008F4F9F4F16C0882311F096E911C077231F
:1009A00021F09EE8872F762F05C0662371F096E828
:1009B000862F70E060E02AF09A95660F771F881FF7
:1009C000DAF7880F9695879597F9089597F99F67B5
:1009D00080E870E060E008959FEF80EC08950024C7
:1009E0000A941616170618060906089500240A9494
:1009F00012161306140605060895092E0394000C1A
:100A000011F4882352F0BB0F40F4BF2B11F460FFA8
:100A100004C06F5F7F4F8F4F9F4F089557FD9058D1
:100A2000440F551F59F05F3F71F04795880F97FBB2
:100A3000991F61F09F3F79F087950895121613066C
:100A40001406551FF2CF4695F1DF08C0161617069B
:100A50001806991FF1CF86957105610508940895D0
:100A6000E894BB2766277727CB0197F908950E9462
:100A70004A050C94FD040E94EF0438F00E94F6042D
:100A800020F0952311F00C94E6040C94EC0411244E
:100A90000C9431050E940E0570F3959FC1F3950FDC
:100AA00050E0551F629FF001729FBB27F00DB11DF2
:100AB000639FAA27F00DB11DAA1F649F6627B00D82
:100AC000A11D661F829F2227B00DA11D621F739F6B
:100AD000B00DA11D621F839FA00D611D221F749F79
:100AE0003327A00D611D231F849F600D211D822FC0
:100AF000762F6A2F11249F5750409AF0F1F08823E7
:100B00004AF0EE0FFF1FBB1F661F771F881F915013
:100B10005040A9F79E3F510580F00C94E6040C94D8
:100B200031055F3FE4F3983ED4F38695779567955A
:100B3000B795F795E7959F5FC1F7FE2B880F911D3D
:100B40009695879597F90895BB274A3031F49923F4
:100B500022F4BDE2909581959F4F0C94B005BB2780
:100B6000FB015527AA27880F991FAA1FA41710F069
:100B7000A41B83955051B9F7A05DAA3308F0A95D75
:100B8000A193009779F7B111B1931192CB010C9415
:100B9000C905DC01FC01672F71917723E1F73297DA
:100BA00004C07C916D9370836291AE17BF07C8F348
:060BB0000895F894FFCF48
:020BB6002E000F
:00000001FF
