:100000000C9432010C9436070C94A1070C940C0844
:100010000C944F010C9453080C944F010C94A006BF
:100020000C944F010C944F010C944F010C944F0110
:100030000C944F010C944F010C944F010C944F0100
:100040000C944F010C944F010C94CD080C944F016B
:100050000C944F010C9403060C944F010C944F0127
:100060000C944F010C944F013A052E05C104BA04BB
:10007000E704D404C804CF0444052E054405440510
:1000800002052205000000000000005F00000007DC
:10009000000700147F147F14242A7F2A12231308D8
:1000A000646236495522500005030000001C2241BD
:1000B000000041221C0014083E081408083E0808ED
:1000C00000503000000808080808006060000020A8
:1000D000100804023E5149453E00427F4000426103
:1000E0005149462141454B311814127F102745458F
:1000F00045393C4A494930017109050336494949A6
:1001000036064949291E00363600000056360000E2
:10011000081422410014141414140041221408027B
:1001200001510906324979413E7E1111117E7F4904
:100130004949363E414141227F4141221C7F494984
:1001400049417F090909013E4149497A7F08080868
:100150007F00417F41002040413F017F0814224140
:100160007F404040407F020C027F7F0408107F3EAA
:100170004141413E7F090909063E4151215E7F0907
:10018000192946464949493101017F01013F404053
:10019000403F1F2040201F3F4038403F6314081459
:1001A0006307087008076151494543007F414100DA
:1001B00002040810200041417F00040201020440B3
:1001C00040404040000102040020545454787F48CD
:1001D0004444383844444420384444487F385454D4
:1001E0005418087E0901020C5252523E7F08040442
:1001F0007800447D40002040443D007F10284400AA
:1002000000417F40007C041804787C08040478389E
:10021000444444387C14141408081414187C7C08D2
:100220000404084854545420043F4440203C4040B7
:10023000207C1C2040201C3C4030403C442810289E
:10024000440C5050503C4464544C44000836410027
:1002500000007F0000004136080010080810080068
:100260000000000011241FBECFEFD8E0DEBFCDBFDD
:1002700011E0A0E0B1E0E0EEF7E102C005900D92E0
:10028000A636B107D9F723E0A6E6B1E001C01D927A
:10029000A93BB207E1F70E944D050C94EE0B0C94BC
:1002A00000002091660180910001909101012617C4
:1002B00050F486509F4F90930101809300012F5F6F
:1002C000209366010BC08A5F91099093010180938E
:1002D0000001803D974011F4109266018091000169
:1002E0009091010108954298662311F0449A01C04B
:1002F000449827E030E090E0AC01022E02C0559512
:1003000047950A94E2F740FF02C0459A01C045981C
:10031000469A46982150310978F7429A089560E04C
:100320000C947301CF93DF933A9A3B9A3C9A3D9A8F
:100330003E9A439A429A8FE39CE90197F1F700C0F5
:10034000000043989FEF2AE683E0915020408040D0
:10035000E1F700C00000439A429881E20E948F01B9
:1003600083E10E948F0186E00E948F0182EC0E944F
:100370008F0180E20E948F0189E00E948F0180E856
:100380000E948F0180E40E948F01C8EFD1E061E0FC
:1003900080E00E9473012197D1F788E00E948F01CD
:1003A0008CE0DF91CF910C948F0180E80E948F0147
:1003B00080E40E948F011092A7031092A803EFEA35
:1003C000F1E0119283E0E73AF807D9F70895962F04
:1003D000969596959695E82FF0E084E5989FE00D28
:1003E000F11D1124E155FE4F677081E090E001C0DE
:1003F000880F6A95EAF7442319F09081892B03C08E
:1004000080959081892380830895BF92CF92DF9257
:10041000EF92FF920F931F93CF93DF93D62E95E029
:10042000699FE001112497E0699F80011124B12C9C
:10043000082E000C990B809725E0289F7001299FBA
:10044000F00C11248B2D90E08C179D0754F5C12CD6
:100450008C2D90E08017910714F58B2D6D2D0E9447
:100460001B09F701E80FF11DEC57FF4FE491F0E095
:100470008C2D0E941B0902C0F595E7958A95E2F73D
:100480006091A8038091A7036C0DE0FF02C041E0DA
:1004900001C040E08B0D0E94E701C394D9CFB39413
:1004A000D1CF8091A70391E0980F8D2D880F880FF1
:1004B0008D0D890F843518F48093A7030BC010921B
:1004C000A7038091A8038F5F97E0D99E800D112428
:1004D0008093A8038091A803803320F01092A70393
:1004E0001092A803DF91CF911F910F91FF90EF9091
:1004F000DF90CF90BF9008951F93CF93DF93162F77
:10050000EC018991882321F0612F0E940502F9CF27
:10051000DF91CF911F9108958093A7036093A80363
:100520000895CF93DF9380E80E948F0180E40E94BA
:100530008F01CFEAD1E061E089910E94730183E0ED
:10054000C73AD807C1F7DF91CF9108952F923F9214
:100550004F925F926F927F928F929F92AF92BF92D3
:10056000CF92DF92EF92FF920F931F93CF93DF937F
:10057000CDB7DEB76C970FB6F894DEBF0FBECDBF18
:100580008C8F962E29013A0115010E94D5018AA966
:10059000882319F091E4B92E02C086E4B82EA12C6C
:1005A00041E069E08A2D0E94E701A39424E5A212AC
:1005B000F7CF8C8D813009F4C5C050F1823009F439
:1005C000E5C0833009F04AC160E080E00E948C02FF
:1005D00061E088E491E00E947C024AE0BE01695E2D
:1005E0007F4F892D90E00E94B90B4AE0BE01675F02
:1005F0007F4F882D90E00E94B90B4AE0BE016F5EEC
:100600007F4F29A9822F90E00E94B90B64E2E1C0DC
:10061000C701B6010E94660A4B015C0160E080E000
:100620000E948C0261E086E291E00E947C024AE036
:10063000BE016F5F7F4FC2010E94B90B4AE0BE014D
:10064000635F7F4FC8010E94B90B4AE0BE016C5E38
:100650007F4FC4010E94B90B20E030E040E251E43A
:10066000C701B6010E944C0B6B017C018AE0889D9A
:10067000B001899D700D112480E090E00E94950AE0
:100680009B01AC01C701B6010E9482090E94660A63
:10069000862F4AE0BE01665E7F4F90E00E94B90B54
:1006A0006CE082E00E948C0261E0CE0101960E9423
:1006B0007C0265E182E00E948C0261E0CE014496FA
:1006C0000E947C0261E084E391E00E947C0261E090
:1006D000CE014A960E947C026FE182E00E948C0269
:1006E00061E0CE010D960E947C0269E282E00E94E8
:1006F0008C0261E0C1010E947C026CE082E30E94F6
:100700008C0261E086E391E00E947C0265E182E375
:100710000E948C0261E08AE391E00E947C026FE11A
:1007200082E30E948C0261E08DE391E00E947C02F2
:1007300069E282E30E948C0261E083E491E00E941E
:100740007C028CC060E080E00E948C0261E088E462
:1007500091E00E947C024AE0BE01695E7F4F892DD4
:1007600090E00E94B90B4AE0BE01675F7F4F882D81
:1007700090E00E94B90B4AE0BE016F5E7F4F29A94D
:10078000822F90E00E94B90B6CE023C060E080E013
:100790000E948C0261E088E491E00E947C024AE0C1
:1007A000BE01695E7F4F892D90E00E94B90B4AE03F
:1007B000BE01675F7F4F882D90E00E94B90B4AE031
:1007C000BE016F5E7F4F29A9822F90E00E94B90B76
:1007D00068E182E00E948C0261E08AE20E940502E8
:1007E0006CE08AE00E948C0261E0CE0147960E9494
:1007F0007C0268E18AE00E948C0261E0CE010996E9
:100800000E947C0264E28AE00E948C0261E0CE01D8
:1008100041960E947C026CE084E20E948C0261E0BE
:1008200084E591E00E947C0268E184E20E948C02EF
:1008300061E08DE591E00E947C0264E284E20E9426
:100840008C0261E081E691E00E947C0268E18CE329
:100850000E948C0263E08B2D0E9405020E9491028F
:100860006C960FB6F894DEBF0FBECDBFDF91CF916F
:100870001F910F91FF90EF90DF90CF90BF90AF90BE
:100880009F908F907F906F905F904F903F902F90B0
:10089000089587B18C6F87B984B18E6384B98AB1AA
:1008A000836E8AB98BB18C608BB985B1816485B94F
:1008B000089582E08093B00084E08093B10089EFD6
:1008C0008093B3008FE39CE9909387008093860028
:1008D00082EA809380008AE18093810080ED97E036
:1008E000909389008093880090938B0080938A0076
:1008F0008BE487BD83E284BD8DE085BD87B5869599
:1009000088BD08958AE08093690083E08DBB85E00F
:100910008093680081EC80936B0080E180936D0090
:1009200082E0809370007894089581E480937C0045
:1009300087EE80937A0010927B008CE380937E0098
:10094000089588E98093C10086E08093C2001092E8
:10095000C50087E68093C40008952091020130917C
:1009600003012E30310508F08FC0F901EC5CFF4F18
:100970000C947C0920ED260F2A30D0F422E030E0E0
:100980001CC020ED260F2A3050F426E030E015C0C0
:1009900020ED260F2A3018F427E030E00EC068372B
:1009A00039F425E030E009C020ED260F2A3018F098
:1009B00020E030E002C024E030E0309303012093D7
:1009C00002012091A903FC01E20FF11D36C020EDC8
:1009D000260F2A3028F06A3331F040E050E005C09D
:1009E0004CE050E002C049E050E0509303014093D6
:1009F00002012091A903FC01E20FF11D4C305105C9
:100A0000D9F41BC020ED260F2A3028F06A3331F0CC
:100A100040E050E005C04DE050E002C049E050E049
:100A200050930301409302012091A903FC01E20FBE
:100A3000F11D4D30510509F060E260832F5F209376
:100A4000A90322C06A3319F080E090E002C089E077
:100A500090E0909303018093020116C06B3319F06C
:100A600080E090E002C083E090E0909303018093E7
:100A7000020108C06B3311F423E030E0309303012E
:100A8000209302011092A903809102019091030129
:100A900008950E9492010C94D5010E9449040E947D
:100AA00059040E9495040E9482040E94A1040E949D
:100AB0004905C0E024E1622E712CD4E68091B00398
:100AC000882309F47CC03091B203209125018091E4
:100AD0008A0090918B00C0901C01D0901D01E09085
:100AE0001E01F0901F010091B7031091B8032090F0
:100AF0002001309021014090220150902301F0917B
:100B00002401E091AF03B3010E9427098CE9882EEC
:100B1000860E3F932F9394E1A92E91E0B92EA20166
:100B200091016F2F8E2F0E94A6020F900F90C1305F
:100B3000B9F080F0C23011F1C33041F5809120014D
:100B400090912101A0912201B09123018093C600D0
:100B5000C4E033C0809124018093C600C1E02DC061
:100B600060911C0170911D0180911E0190911F01E7
:100B70000E94660A6093C600C2E01FC08091B7035E
:100B80009091B8038093C600C3E017C080E090E066
:100B90002091C00025FFFCCFFC01EC5EFE4F2081C0
:100BA0002093C60001968830910591F78091C0008E
:100BB00085FFFCCFD093C600C0E01092B0038091B7
:100BC000B103882309F47ACF8091B203811176CFE3
:100BD00060912501809124010E9451019093890028
:100BE000809388001092B1038091AE03811166CF8B
:100BF0008091880090918900803D974011F45E9A21
:100C00005DCF5E985BCF1F920F920FB60F921124AB
:100C10002F933F934F935F936F937F938F939F9304
:100C2000AF93BF93EF93FF9380917A00877F809378
:100C30007A0080917C00609178007091790080FF4B
:100C400011C080E090E00E94950A2DE637EE4BEF50
:100C50005DE30E944C0B0E94660A7093B803609398
:100C6000B70314C063537F4F80E090E00E94950A61
:100C700024E13EEA43EA51E40E94F40960931C0136
:100C800070931D0180931E0190931F018091B70303
:100C90009091B803CC9700F160911C0170911D01F7
:100CA00080911E0190911F0120E030E04CE052E461
:100CB0000E94EF0987FD10C060911C0170911D0119
:100CC00080911E0190911F0120E030E044E252E447
:100CD0000E94470B1816D4F481E08093AE03609114
:100CE000B3037091B4038091B5039091B6032CE2E5
:100CF00031E040E050E00E943B09672B682B692BF4
:100D000041F09BB180E489278BB903C05E981092B3
:100D1000AE0390917C0081E0892780937C00FF9155
:100D2000EF91BF91AF919F918F917F916F915F9163
:100D30004F913F912F910F900FBE0F901F901895DC
:100D40001F920F920FB60F921124CF92DF92EF9263
:100D5000FF922F933F934F935F936F937F938F9364
:100D60009F93AF93BF93EF93FF938091B3039091C1
:100D7000B403A091B503B091B6030196A11DB11DB6
:100D80008093B3039093B403A093B503B093B603D9
:100D90008091B203811129C0C090B303D090B403F5
:100DA000E090B503F090B6038091240140912501B5
:100DB00090E0880F991F489F9001499F300D1124A2
:100DC000032E000C440B550B60E67AEE80E090E0B9
:100DD0000E945D09C701B6010E943B09672B682B81
:100DE000692B19F481E08093B1036091B303709192
:100DF000B4038091B5039091B60326E930E040E05A
:100E000050E00E943B09672B682B692B29F48091E5
:100E10007A00886080937A006091B3037091B40384
:100E20008091B5039091B60328EC30E040E050E0AB
:100E30000E943B09672B682B692B19F481E0809392
:100E4000B003FF91EF91BF91AF919F918F917F91EF
:100E50006F915F914F913F912F91FF90EF90DF90B5
:100E6000CF900F900FBE0F901F9018951F920F926A
:100E70000FB60F9211242F933F934F935F936F936D
:100E80007F938F939F93AF93BF93EF93FF93809143
:100E9000AF03823051F18330D1F1813009F040C08D
:100EA000809124018E3128F4809124018F5F8093FA
:100EB00024016091240170E080E090E00E94970A94
:100EC0009B01AC016AEB71EE84E694E40E94F409A4
:100ED00020E030E040E85FE30E9482090E94660A59
:100EE00067BD87B5869588BD1BC080918A009091AB
:100EF0008B00803A9F40A0F480918A0090918B00F3
:100F000088539F4F90938B0080938A0009C08091F3
:100F10002501883028F4809125018F5F8093250179
:100F2000FF91EF91BF91AF919F918F917F916F91C1
:100F30005F914F913F912F910F900FBE0F901F9097
:100F400018951F920F920FB60F9211242F933F9373
:100F50004F935F936F937F938F939F93AF93BF93C1
:100F6000EF93FF938091AF03823051F18330D1F141
:100F7000813009F040C080912401863028F08091B2
:100F800024018150809324016091240170E080E06D
:100F900090E00E94970A9B01AC016AEB71EE84E637
:100FA00094E40E94F40920E030E040E85FE30E940E
:100FB00082090E94660A67BD87B5869588BD1BC0F9
:100FC00080918A0090918B00813D9740A0F08091A4
:100FD0008A0090918B00885C910990938B0080939C
:100FE0008A0009C080912501823028F08091250176
:100FF000815080932501FF91EF91BF91AF919F9117
:101000008F917F916F915F914F913F912F910F90B1
:101010000FBE0F901F9018951F920F920FB60F9250
:1010200011242F938F939F9318990DC08091AF0334
:10103000833030F48091AF038F5F8093AF032BC078
:101040001092AF0328C01E990BC09091B20381E0AB
:1010500089278093B20395B188E0892785B91BC0A1
:101060001F9B0DC08091B203882349F08091250118
:101070002AEF829FC00111248053984F08C01F9906
:101080000AC08091B203882331F080ED97E09093FD
:101090008900809388009F918F912F910F900FBEB0
:1010A0000F901F9018951F920F920FB60F92112458
:1010B0002F933F934F935F936F937F938F939F9360
:1010C000AF93BF93EF93FF934C9B11C08091B303F9
:1010D0009091B403A091B503B091B6038093AA0395
:1010E0009093AB03A093AC03B093AD0345C04C9970
:1010F00043C08091B3039091B403A091B503B09124
:10110000B6034091AA035091AB036091AC03709178
:10111000AD03481759076A077B0770F58091B30341
:101120009091B403A091B503B091B603841B950BC5
:10113000A60BB70B880F991FAA1FBB1F8093200116
:1011400090932101A0932201B093230120912001CB
:1011500030912101409122015091230160E67AEE05
:1011600080E090E00E943B09209320013093210110
:101170004093220150932301FF91EF91BF91AF91D2
:101180009F918F917F916F915F914F913F912F919F
:101190000F900FBE0F901F9018951F920F920FB6D1
:1011A0000F9211242F933F934F935F936F937F93ED
:1011B0008F939F93AF93BF93EF93FF936091C6007C
:1011C00084E091E00E94AD04009799F4E4E0F1E03E
:1011D00080E090E020E2DC01A45FBE4F3C91DC01A6
:1011E000AC5EBE4F3C93219301968830910599F7F0
:1011F00011C0099779F4E4E0F1E080E090E020E2AA
:101200003081DC01AC5EBE4F3C9321930196873068
:101210009105B1F7FF91EF91BF91AF919F918F91A0
:101220007F916F915F914F913F912F910F900FBEE2
:101230000F901F901895991B79E004C0991F96177D
:1012400008F0961B881F7A95C9F780950895AA1B08
:10125000BB1B51E107C0AA1FBB1FA617B70710F0A1
:10126000A61BB70B881F991F5A95A9F780959095D3
:10127000BC01CD010895A1E21A2EAA1BBB1BFD01E2
:101280000DC0AA1FBB1FEE1FFF1FA217B307E40765
:10129000F50720F0A21BB30BE40BF50B661F771FBD
:1012A000881F991F1A9469F760957095809590959D
:1012B0009B01AC01BD01CF010895052E97FB1EF4E3
:1012C00000940E94740957FD07D00E943B0907FC57
:1012D00003D04EF40C9474095095409530952195A7
:1012E0003F4F4F4F5F4F0895909580957095619552
:1012F0007F4F8F4F9F4F0895EE0FFF1F0590F49182
:10130000E02D09945058BB27AA270E949A090C94F3
:101310000D0B0E94FF0A38F00E94060B20F039F4F2
:101320009F3F19F426F40C94FC0A0EF4E095E7FBB9
:101330000C94F60AE92F0E941E0B58F3BA176207A5
:1013400073078407950720F079F4A6F50C94400BF9
:101350000EF4E0950B2EBA2FA02D0B01B9019001D0
:101360000C01CA01A0011124FF27591B99F0593F14
:1013700050F4503E68F11A16F040A22F232F342F5C
:101380004427585FF3CF469537952795A795F040AA
:101390005395C9F77EF41F16BA0B620B730B840BBF
:1013A000BAF09150A1F0FF0FBB1F661F771F881F77
:1013B000C2F70EC0BA0F621F731F841F48F48795CF
:1013C00077956795B795F7959E3F08F0B0CF9395C1
:1013D000880F08F09927EE0F9795879508950E943A
:1013E000D20A08F481E008950E94080A0C940D0BBB
:1013F0000E94060B58F00E94FF0A40F029F45F3F5C
:1014000029F00C94F60A51110C94410B0C94FC0A2F
:101410000E941E0B68F39923B1F3552391F3951B9A
:10142000550BBB27AA2762177307840738F09F5F05
:101430005F4F220F331F441FAA1FA9F335D00E2E72
:101440003AF0E0E832D091505040E695001CCAF7DF
:101450002BD0FE2F29D0660F771F881FBB1F2617A2
:1014600037074807AB07B0E809F0BB0B802DBF0179
:10147000FF2793585F4F3AF09E3F510578F00C9448
:10148000F60A0C94410B5F3FE4F3983ED4F3869543
:1014900077956795B795F7959F5FC9F7880F911D69
:1014A0009695879597F90895E1E0660F771F881F55
:1014B000BB1F621773078407BA0720F0621B730B08
:1014C000840BBA0BEE1F88F7E09508950E94260B57
:1014D00088F09F5798F0B92F9927B751B0F0E1F0F5
:1014E000660F771F881F991F1AF0BA95C9F714C0A5
:1014F000B13091F00E94400BB1E008950C94400B84
:10150000672F782F8827B85F39F0B93FCCF38695DD
:1015100077956795B395D9F73EF49095809570953A
:1015200061957F4F8F4F9F4F0895E89409C097FBB7
:101530003EF490958095709561957F4F8F4F9F4FAA
:101540009923A9F0F92F96E9BB279395F6958795EE
:1015500077956795B795F111F8CFFAF4BB0F11F4B1
:1015600060FF1BC06F5F7F4F8F4F9F4F16C0882358
:1015700011F096E911C0772321F09EE8872F762F8E
:1015800005C0662371F096E8862F70E060E02AF0CF
:101590009A95660F771F881FDAF7880F96958795BB
:1015A00097F90895990F0008550FAA0BE0E8FEEF90
:1015B00016161706E807F907C0F012161306E40717
:1015C000F50798F0621B730B840B950B39F40A2610
:1015D00061F0232B242B252B21F408950A2609F4EE
:1015E000A140A6958FEF811D811D089597F99F67F2
:1015F00080E870E060E008959FEF80EC089500249B
:101600000A941616170618060906089500240A9467
:1016100012161306140605060895092E0394000CED
:1016200011F4882352F0BB0F40F4BF2B11F460FF7C
:1016300004C06F5F7F4F8F4F9F4F089557FD9058A5
:10164000440F551F59F05F3F71F04795880F97FB86
:10165000991F61F09F3F79F0879508951216130640
:101660001406551FF2CF4695F1DF08C0161617066F
:101670001806991FF1CF86957105610508940895A4
:10168000E894BB2766277727CB0197F908950E9436
:10169000D20A08F48FEF08950E945F0B0C940D0B93
:1016A0000E94FF0A38F00E94060B20F0952311F0EB
:1016B0000C94F60A0C94FC0A11240C94410B0E9421
:1016C0001E0B70F3959FC1F3950F50E0551F629F5D
:1016D000F001729FBB27F00DB11D639FAA27F00D8B
:1016E000B11DAA1F649F6627B00DA11D661F829FB2
:1016F0002227B00DA11D621F739FB00DA11D621F97
:10170000839FA00D611D221F749F3327A00D611DB3
:10171000231F849F600D211D822F762F6A2F112495
:101720009F5750409AF0F1F088234AF0EE0FFF1FC8
:10173000BB1F661F771F881F91505040A9F79E3F1F
:10174000510580F00C94F60A0C94410B5F3FE4F3D2
:10175000983ED4F3869577956795B795F795E79575
:101760009F5FC1F7FE2B880F911D9695879597F97E
:101770000895BB274A3031F4992322F4BDE29095B5
:1017800081959F4F0C94C50BBB27FB015527AA27BA
:10179000880F991FAA1FA41710F0A41B83955051FE
:1017A000B9F7A05DAA3308F0A95DA193009779F776
:1017B000B111B1931192CB010C94DE0BDC01FC0151
:1017C000672F71917723E1F7329704C07C916D9375
:1017D00070836291AE17BF07C8F30895F894FFCFE6
:1017E000D007010020202020202020004552524F09
:1017F0002120200020202020202020000000204147
:101800003C0000000C08204461646F73207669740A
:10181000616973002E0062706D006F430025537084
:101820004F32006D6D48670020506172616D6574C4
:10183000726F7300726573702F6D696E00254F3281
:0618400000766F6C000051
:00000001FF
