:100000000C9424010C9424060C9439060C944101A0
:100010000C9441010C944E060C9441010C94410146
:100020000C9441010C9441010C942C050C94410159
:100030000C9441010C9441010C9493050C944101E2
:100040000C9441010C9441010C9441010C94410128
:100050000C9441010C949A040C9441010C944101BC
:100060000C9441010C944101000000000000005F6D
:1000700000000007000700147F147F14242A7F2A41
:10008000122313086462364955225000050300000C
:10009000001C2241000041221C0014083E081408E4
:1000A000083E0808005030000008080808080060F2
:1000B00060000020100804023E5149453E00427F86
:1000C000400042615149462141454B311814127F8D
:1000D0001027454545393C4A494930017109050316
:1000E0003649494936064949291E0036360000007E
:1000F0005636000008142241001414141414004150
:100100002214080201510906324979413E7E11113B
:10011000117E7F494949363E414141227F4141227A
:100120001C7F494949417F090909013E4149497AF2
:100130007F0808087F00417F41002040413F017F48
:10014000081422417F404040407F020C027F7F0420
:1001500008107F3E4141413E7F090909063E415159
:10016000215E7F09192946464949493101017F012C
:10017000013F4040403F1F2040201F3F4038403F4C
:100180006314081463070870080761514945430068
:100190007F41410002040810200041417F00040219
:1001A0000102044040404040000102040020545439
:1001B00054787F48444438384444442038444448C0
:1001C0007F3854545418087E0901020C5252523E92
:1001D0007F0804047800447D40002040443D007FB7
:1001E0001028440000417F40007C041804787C08FB
:1001F00004047838444444387C1414140808141453
:10020000187C7C080404084854545420043F44409B
:10021000203C4040207C1C2040201C3C4030403C86
:1002200044281028440C5050503C4464544C440022
:100230000836410000007F00000041360800100829
:10024000081008000000000011241FBECFEFD8E006
:10025000DEBFCDBF11E0A0E0B1E0EEE3F2E102C00D
:1002600005900D92A032B107D9F723E0A0E2B1E0EA
:1002700001C01D92A137B207E1F70E9467040C94F8
:100280001D090C940000909121018091200198306B
:1002900040F4880F8F5F809320019F5F909321012E
:1002A00007C0869580932001811102C01092210120
:1002B0008091200108954298662311F0449A01C06C
:1002C000449827E030E090E0AC01022E02C0559542
:1002D00047950A94E2F740FF02C0459A01C045984D
:1002E000469A46982150310978F7429A089560E07D
:1002F0000C945B01CF93DF933A9A3B9A3C9A3D9AD8
:100300003E9A439A429A8FE39CE90197F1F700C025
:10031000000043989FEF2AE683E091502040804000
:10032000E1F700C00000439A429881E20E94770101
:1003300083E10E94770186E00E94770182EC0E94AF
:10034000770180E20E94770189E00E94770180E8CE
:100350000E94770180E40E947701C8EFD1E061E05C
:1003600080E00E945B012197D1F788E00E9477012D
:100370008CE0DF91CF910C94770180E80E947701A7
:1003800080E40E9477011092620310926303EAE610
:10039000F1E0119283E0E236F807D9F70895962F3D
:1003A000969596959695E82FF0E084E5989FE00D58
:1003B000F11D1124E659FE4F677081E090E001C005
:1003C000880F6A95EAF7442319F09081892B03C0BE
:1003D00080959081892380830895BF92CF92DF9288
:1003E000EF92FF920F931F93CF93DF93D62E95E05A
:1003F000699FE001112497E0699F80011124B12CCD
:10040000082E000C990B809725E0289F7001299FEA
:10041000F00C11248B2D90E08C179D0754F5C12C06
:100420008C2D90E08017910714F58B2D6D2D0E9477
:100430006406F701E80FF11DE859FF4FE491F0E081
:100440008C2D0E94640602C0F595E7958A95E2F727
:1004500060916303809162036C0DE0FF02C041E094
:1004600001C040E08B0D0E94CF01C394D9CFB3945B
:10047000D1CF8091620391E0980F8D2D880F880F66
:100480008D0D890F843518F4809362030BC0109290
:100490006203809163038F5F97E0D99E800D1124E2
:1004A0008093630380916303803320F01092620392
:1004B00010926303DF91CF911F910F91FF90EF9006
:1004C000DF90CF90BF9008951F93CF93DF93162FA7
:1004D000EC018991882321F0612F0E94ED01F9CF71
:1004E000DF91CF911F91089580936203609363031E
:1004F0000895CF93DF9380E80E94770180E40E9403
:100500007701CAE6D1E061E089910E945B0183E056
:10051000C236D807C1F7DF91CF910895DC01AA5BFD
:10052000BF4F2C9121110AC02091220131E0320FDE
:1005300030932201FC01E20FF11D06C0FC01818114
:100540008193EA17FB07D9F760830895DF92EF9252
:10055000FF920F931F93CF93DF9300D000D000D072
:10056000CDB7DEB7082F7B01D42E0E94BD01EEE08F
:10057000F3E026EC32E08291806480832E173F07FF
:10058000D1F715E241E0612F8CE00E94CF011150BC
:100590001530C1F710926203109263034AE0BE0166
:1005A0006F5F7F4F8D2D90E00E94E80861E0CE01E3
:1005B00001960E94640286E0809362038EE180933C
:1005C000630361E085E091E00E9464024AE0BE01BD
:1005D0006C5F7F4F802F90E00E94E8088AE0809354
:1005E00062030A3070F418E21093630361E085E05F
:1005F00091E00E94640280E18093620310936303A0
:1006000003C088E28093630361E0CE0104960E94F8
:10061000640261E0C7010E946402602F83E291E0FE
:100620000E948E028AE6E82E81E0F82E13E506E2AB
:10063000F70182917F01602F681B41E0812F0E94AA
:10064000CF0111501C30A1F726960FB6F894DEBFEB
:100650000FBECDBFDF91CF911F910F91FF90EF9013
:10066000DF9008953F924F925F926F927F928F92A8
:100670009F92AF92BF92CF92DF92EF92FF920F9331
:100680001F93CF93DF93CDB7DEB764970FB6F8947F
:10069000DEBF0FBECDBFA82E362E29013A010E9423
:1006A000BD014EE167E071E0832D0E94A602A1101A
:1006B000A7C00E94BD01C701B6010E9495074B016A
:1006C0005C0160E083E20E94740261E087E091E0F7
:1006D0000E9464026CE083E20E94740261E080E1A7
:1006E00091E00E94640268E183E20E94740261E08A
:1006F00084E191E00E94640264E283E20E94740259
:1007000061E087E191E00E9464024AE0BE01605F1F
:100710007F4F832D90E00E94E8084AE0BE016F5FA2
:100720007F4FC2010E94E8084AE0BE01675F7F4F29
:10073000C8010E94E8084AE0BE01635F7F4FC40120
:100740000E94E80820E030E040E251E4C701B60131
:100750000E947B086B017C018AE0889DB001899D25
:10076000700D112480E090E00E94C4079B01AC0151
:10077000C701B6010E94B1060E949507862F4AE084
:10078000BE016D5E7F4F90E00E94E80889E060E066
:10079000831548F080E00E94740261E085E091E0FA
:1007A0000E94640203C080E00E94740261E0CE01F6
:1007B00040960E9464026CE080E00E94740261E056
:1007C000CE0101960E94640268E180E00E947402FA
:1007D00061E0CE010D960E94640261E08DE191E03E
:1007E0000E94640261E0CE0143960E94640264E2CA
:1007F00080E00E94740261E0CE0109960E946402CA
:100800000E94790264960FB6F894DEBF0FBECDBF8A
:10081000DF91CF911F910F91FF90EF90DF90CF90DC
:10082000BF90AF909F908F907F906F905F904F9010
:100830003F90089587B18C6F87B984B18E6F84B96A
:100840008AB183678AB98BB18C688BB9289A08956D
:1008500082E084BD83E085BD89EF87BD85E4809318
:100860008100109285001092840008958AE08093A0
:10087000690083E08DBB84E08093680080E880930A
:100880006D0082E080936E00EFE6F0E08081806290
:1008900080837894089581E480937C0087EE809330
:1008A0007A0010927B008CE380937E0008950E9472
:1008B0007A010C94BD01809104010E94430180FFE4
:1008C00002C05E9A01C05E988E7F85B908950E942D
:1008D0001A040E9428040E944B040E9436040E94BD
:1008E0005704809165038823E1F0C0906B03D0909A
:1008F0006C03E0906D03F0906E0300916F03109114
:10090000700320910001309101014091020150914A
:10091000030160910401809164030E9432031092EC
:100920006503809166038823E1F20E945B041092C4
:100930006603D7CF1F920F920FB60F9211242F93F9
:100940003F934F935F936F937F938F939F93AF9357
:10095000BF93EF93FF9380917A00877F80937A0013
:1009600080917C00609178007091790080FF11C0C7
:1009700080E090E00E94C4072DE637EE4BEF5DE388
:100980000E947B080E9495077093700360936F0329
:1009900014C063537F4F80E090E00E94C40724E1BD
:1009A0003EEA43EA51E40E94230760936B0370938D
:1009B0006C0380936D0390936E0380916F0390910D
:1009C0007003CC9700F160916B0370916C03809180
:1009D0006D0390916E0320E030E04CE052E40E9401
:1009E0001E0787FD10C060916B0370916C038091AE
:1009F0006D0390916E0320E030E044E252E40E94E7
:100A000076081816BCF460916703709168038091B2
:100A1000690390916A032CE231E040E050E00E94CB
:100A20007006672B682B692B31F49BB180E2892714
:100A30008BB901C05D98FF91EF91BF91AF919F91EC
:100A40008F917F916F915F914F913F912F910F9077
:100A50000FBE0F901F9018951F920F920FB60F9216
:100A600011242F933F934F935F936F937F938F93B3
:100A70009F93AF93BF93EF93FF93809186009091E4
:100A80008700A0E0B0E026E0880F991FAA1FBB1FD7
:100A90002A95D1F78093000190930101A093020160
:100AA000B0930301609100017091010180910201F6
:100AB0009091030128EE33E040E050E00E94700680
:100AC00020930001309301014093020150930301F0
:100AD00020910001309101014091020150910301E8
:100AE00060E67AEE80E090E00E94700620930001BC
:100AF000309301014093020150930301109285004D
:100B000010928400FF91EF91BF91AF919F918F91CF
:100B10007F916F915F914F913F912F910F900FBEF9
:100B20000F901F9018951F920F920FB60F921124DD
:100B3000CF92DF92EF92FF922F933F934F935F9369
:100B40006F937F938F939F93AF93BF93EF93FF9395
:100B50008091670390916803A0916903B0916A0343
:100B60000196A11DB11D8093670390936803A09324
:100B70006903B0936A03C0906703D0906803E09064
:100B80006903F0906A032091040180E1289F90019D
:100B90001124032E000C440B550B60E67AEE80E026
:100BA00090E00E949206C701B6010E947006672B72
:100BB000682B692B19F481E08093660360916703C9
:100BC000709168038091690390916A0326E930E08F
:100BD00040E050E00E947006672B682B692B29F4D7
:100BE00080917A00886080937A00609167037091A9
:100BF00068038091690390916A0328EC30E040E03B
:100C000050E00E947006672B682B692B41F481E04D
:100C10008093650390917C00892780937C00FF91ED
:100C2000EF91BF91AF919F918F917F916F915F9164
:100C30004F913F912F91FF90EF90DF90CF900F90C9
:100C40000FBE0F901F9018951F920F920FB60F9224
:100C500011248F93809104018E3128F48091040136
:100C60008F5F809304018F910F900FBE0F901F90A4
:100C700018951F920F920FB60F9211248F938091A7
:100C80000401863028F08091040181508093040192
:100C90008F910F900FBE0F901F9018951F920F927B
:100CA0000FB60F9211248F939F934F9906C0909186
:100CB000640381E08927809364039F918F910F9053
:100CC0000FBE0F901F901895991B79E004C0991FD3
:100CD000961708F0961B881F7A95C9F78095089596
:100CE000A1E21A2EAA1BBB1BFD010DC0AA1FBB1F30
:100CF000EE1FFF1FA217B307E407F50720F0A21BA2
:100D0000B30BE40BF50B661F771F881F991F1A940E
:100D100069F760957095809590959B01AC01BD0138
:100D2000CF010895052E97FB1EF400940E94A9069A
:100D300057FD07D00E94700607FC03D04EF40C94B8
:100D4000A90650954095309521953F4F4F4F5F4FE5
:100D5000089590958095709561957F4F8F4F9F4F27
:100D600008955058BB27AA270E94C9060C943C0836
:100D70000E942E0838F00E94350820F039F49F3F79
:100D800019F426F40C942B080EF4E095E7FB0C9470
:100D90002508E92F0E944D0858F3BA176207730718
:100DA0008407950720F079F4A6F50C946F080EF4EB
:100DB000E0950B2EBA2FA02D0B01B90190010C016B
:100DC000CA01A0011124FF27591B99F0593F50F483
:100DD000503E68F11A16F040A22F232F342F4427DB
:100DE000585FF3CF469537952795A795F0405395D3
:100DF000C9F77EF41F16BA0B620B730B840BBAF0A3
:100E00009150A1F0FF0FBB1F661F771F881FC2F70D
:100E10000EC0BA0F621F731F841F48F48795779521
:100E20006795B795F7959E3F08F0B0CF9395880FDB
:100E300008F09927EE0F9795879508950E9401086D
:100E400008F481E008950E9437070C943C080E9442
:100E5000350858F00E942E0840F029F45F3F29F031
:100E60000C94250851110C9470080C942B080E94C6
:100E70004D0868F39923B1F3552391F3951B550B56
:100E8000BB27AA2762177307840738F09F5F5F4F5D
:100E9000220F331F441FAA1FA9F335D00E2E3AF09C
:100EA000E0E832D091505040E695001CCAF72BD0B4
:100EB000FE2F29D0660F771F881FBB1F2617370705
:100EC0004807AB07B0E809F0BB0B802DBF01FF2737
:100ED00093585F4F3AF09E3F510578F00C942508E7
:100EE0000C9470085F3FE4F3983ED4F386957795B1
:100EF0006795B795F7959F5FC9F7880F911D9695F0
:100F0000879597F90895E1E0660F771F881FBB1F4B
:100F1000621773078407BA0720F0621B730B840BF8
:100F2000BA0BEE1F88F7E09508950E94550888F0E7
:100F30009F5798F0B92F9927B751B0F0E1F0660F9D
:100F4000771F881F991F1AF0BA95C9F714C0B130DE
:100F500091F00E946F08B1E008950C946F08672F1C
:100F6000782F8827B85F39F0B93FCCF3869577950D
:100F70006795B395D9F73EF49095809570956195F6
:100F80007F4F8F4F9F4F0895E89409C097FB3EF421
:100F900090958095709561957F4F8F4F9F4F9923C6
:100FA000A9F0F92F96E9BB279395F6958795779544
:100FB0006795B795F111F8CFFAF4BB0F11F460FF04
:100FC0001BC06F5F7F4F8F4F9F4F16C0882311F05C
:100FD00096E911C0772321F09EE8872F762F05C070
:100FE000662371F096E8862F70E060E02AF09A950B
:100FF000660F771F881FDAF7880F9695879597F900
:101000000895990F0008550FAA0BE0E8FEEF161699
:101010001706E807F907C0F012161306E407F507EC
:1010200098F0621B730B840B950B39F40A2661F060
:10103000232B242B252B21F408950A2609F4A14003
:10104000A6958FEF811D811D089597F99F6780E810
:1010500070E060E008959FEF80EC089500240A940A
:101060001616170618060906089500240A94121683
:101070001306140605060895092E0394000C11F4B6
:10108000882352F0BB0F40F4BF2B11F460FF04C063
:101090006F5F7F4F8F4F9F4F089557FD9058440FBC
:1010A000551F59F05F3F71F04795880F97FB991FC7
:1010B00061F09F3F79F08795089512161306140684
:1010C000551FF2CF4695F1DF08C016161706180611
:1010D000991FF1CF86957105610508940895E894EC
:1010E000BB2766277727CB0197F908950E9401084F
:1010F00008F48FEF08950E948E080C943C080E941B
:101100002E0838F00E94350820F0952311F00C9439
:1011100025080C942B0811240C9470080E944D088B
:1011200070F3959FC1F3950F50E0551F629FF0013A
:10113000729FBB27F00DB11D639FAA27F00DB11D53
:10114000AA1F649F6627B00DA11D661F829F2227DC
:10115000B00DA11D621F739FB00DA11D621F839F63
:10116000A00D611D221F749F3327A00D611D231F39
:10117000849F600D211D822F762F6A2F11249F5787
:1011800050409AF0F1F088234AF0EE0FFF1FBB1F8A
:10119000661F771F881F91505040A9F79E3F510549
:1011A00080F00C9425080C9470085F3FE4F3983E9F
:1011B000D4F3869577956795B795F795E7959F5FF3
:1011C000C1F7FE2B880F911D9695879597F9089585
:1011D000BB274A3031F4992322F4BDE290958195E2
:1011E0009F4F0C94F408BB27FB015527AA27880FB3
:1011F000991FAA1FA41710F0A41B83955051B9F78B
:10120000A05DAA3308F0A95DA193009779F7B11109
:10121000B1931192CB010C940D09DC01FC01672FF5
:1012200071917723E1F7329704C07C916D937083BD
:0E1230006291AE17BF07C8F30895F894FFCF80
:10123E003C0000000C3000726573702F6D696E00FB
:10124E0062706D006F43002553704F32002E000008
:00000001FF
