:100000000C9424010C9473050C9488050C94410104
:100010000C9441010C949D050C9441010C944101F8
:100020000C9441010C9441010C9457040C9441012F
:100030000C9441010C9441010C94FE040C94410178
:100040000C9441010C9441010C9441010C94410128
:100050000C9441010C941B040C9441010C9441013B
:100060000C9441010C944101000000000000005F6D
:1000700000000007000700147F147F14242A7F2A41
:10008000122313086462364955225000050300000C
:10009000001C2241000041221C0014083E081408E4
:1000A000083E0808005030000008080808080060F2
:1000B00060000020100804023E5149453E00427F86
:1000C000400042615149462141454B311814127F8D
:1000D0001027454545393C4A494930017109050316
:1000E0003649494936064949291E0036360000007E
:1000F0005636000008142241001414141414004150
:100100002214080201510906324979413E7E11113B
:10011000117E7F494949363E414141227F4141227A
:100120001C7F494949417F090909013E4149497AF2
:100130007F0808087F00417F41002040413F017F48
:10014000081422417F404040407F020C027F7F0420
:1001500008107F3E4141413E7F090909063E415159
:10016000215E7F09192946464949493101017F012C
:10017000013F4040403F1F2040201F3F4038403F4C
:100180006314081463070870080761514945430068
:100190007F41410002040810200041417F00040219
:1001A0000102044040404040000102040020545439
:1001B00054787F48444438384444442038444448C0
:1001C0007F3854545418087E0901020C5252523E92
:1001D0007F0804047800447D40002040443D007FB7
:1001E0001028440000417F40007C041804787C08FB
:1001F00004047838444444387C1414140808141453
:10020000187C7C080404084854545420043F44409B
:10021000203C4040207C1C2040201C3C4030403C86
:1002200044281028440C5050503C4464544C440022
:100230000836410000007F00000041360800100829
:10024000081008000000000011241FBECFEFD8E006
:10025000DEBFCDBF11E0A0E0B1E0E2ECFEE002C005
:1002600005900D92AA31B107D9F723E0AAE1B1E0D8
:1002700001C01D92AC36B207E1F70E94F3030C9463
:100280005F070C94000090911B0180911A01983037
:1002900040F4880F8F5F80931A019F5F90931B013A
:1002A00007C0869580931A01811102C010921B012C
:1002B00080911A0108954298662311F0449A01C072
:1002C000449827E030E090E0AC01022E02C0559542
:1002D00047950A94E2F740FF02C0459A01C045984D
:1002E000469A46982150310978F7429A089560E07D
:1002F0000C945B01CF93DF933A9A3B9A3C9A3D9AD8
:100300003E9A439A429A83EC99E00197F1F700C034
:10031000000043988BE594E40197F1F700C00000DA
:10032000439A429881E20E94770183E10E9477011B
:1003300086E00E94770182EC0E94770180E20E94B1
:10034000770189E00E94770180E80E94770180E4CC
:100350000E947701C8EFD1E061E080E00E945B017C
:100360002197D1F788E00E9477018CE0DF91CF914F
:100370000C94770180E80E94770180E40E94770165
:1003800010925C0310925D03E4E6F1E0119283E0C9
:10039000EC35F807D9F70895962F9695969596958A
:1003A000E82FF0E084E5989FE00DF11D1124EC5951
:1003B000FE4F677081E090E001C0880F6A95EAF710
:1003C000442319F09081892B03C080959081892363
:1003D00080830895BF92CF92DF92EF92FF920F93A6
:1003E0001F93CF93DF93D62E95E0699FE0011124F0
:1003F00097E0699F80011124B12C082E000C990B05
:10040000809725E0289F7001299FF00C11248B2DE7
:1004100090E08C179D0754F5C12C8C2D90E080172F
:10042000910714F58B2D6D2D0E94B305F701E80F90
:10043000F11DE859FF4FE491F0E08C2D0E94B305C7
:1004400002C0F595E7958A95E2F760915D0380918A
:100450005C036C0DE0FF02C041E001C040E08B0D89
:100460000E94CC01C394D9CFB394D1CF80915C03C7
:1004700091E0980F8D2D880F880F8D0D890F843591
:1004800018F480935C030BC010925C0380915D03B1
:100490008F5F97E0D99E800D112480935D0380913A
:1004A0005D03803320F010925C0310925D03DF91B6
:1004B000CF911F910F91FF90EF90DF90CF90BF9061
:1004C00008951F93CF93DF93162FEC018991882312
:1004D00021F0612F0E94EA01F9CFDF91CF911F91A6
:1004E000089580935C0360935D030895CF93DF9339
:1004F00080E80E94770180E40E947701C4E6D1E0A1
:1005000061E089910E945B0183E0CC35D807C1F797
:10051000DF91CF910895DC01AA5BBF4F2C9121118F
:100520000AC020911C0131E0320F30931C01FC0104
:10053000E20FF11D06C0FC0181818193EA17FB07E0
:10054000D9F760830895DF92EF92FF920F931F9384
:10055000CF93DF9300D000D000D0CDB7DEB7082F07
:100560007B01D42E0E94BA01E8E0F3E020EC32E0F7
:100570008291806480832E173F07D1F715E241E016
:10058000612F8CE00E94CC0111501530C1F7109200
:100590005C0310925D034AE0BE016F5F7F4F8D2DBB
:1005A00090E00E942A0761E0CE0101960E9461025C
:1005B00086E080935C038EE180935D0361E085E0DB
:1005C00091E00E9461024AE0BE016C5F7F4F802F84
:1005D00090E00E942A078AE080935C030A3070F45E
:1005E00018E210935D0361E085E091E00E946102F2
:1005F00080E180935C0310935D0303C088E28093E5
:100600005D0361E0CE0104960E94610261E0C701D2
:100610000E946102602F8DE191E00E948B0284E6CE
:10062000E82E81E0F82E13E506E2F70182917F01C2
:10063000602F681B41E0812F0E94CC0111501C30BB
:10064000A1F726960FB6F894DEBF0FBECDBFDF919F
:10065000CF911F910F91FF90EF90DF9008958F92AF
:100660009F92AF92BF92EF92FF920F931F93CF93FF
:10067000DF93CDB7DEB72B970FB6F894DEBF0FBE72
:10068000CDBFE82EF62E49015A010E94BA014EE173
:1006900067E071E08F2D0E94A302E1105CC00E9410
:1006A000BA0160E083E20E94710261E087E091E0BC
:1006B0000E9461026CE083E20E94710261E080E1CD
:1006C00091E00E94610268E183E20E94710261E0B0
:1006D00084E191E00E9461024AE0BE01675F7F4FC2
:1006E0008F2D90E00E942A074AE0BE016B5F7F4F8A
:1006F000C4010E942A074AE0BE016F5F7F4FC80114
:100700000E942A0789E060E08F1558F080E00E947F
:10071000710261E085E091E00E94610260E080E1A9
:1007200001C080E00E94710261E0CE0109960E9442
:1007300061026CE080E00E94710261E0CE010596EA
:100740000E94610268E180E00E94710261E0CE01D6
:1007500001960E9461020E9476022B960FB6F894D1
:10076000DEBF0FBECDBFDF91CF911F910F91FF90E4
:10077000EF90BF90AF909F908F90089587B18E6F4C
:1007800087B984B18E6F84B98AB183678AB98BB116
:100790008C688BB9289A8AE08093690093E09DBBAE
:1007A00084E08093680080E880936D0082E084BDDF
:1007B00095BD99EF97BD80936E0085E4809381008D
:1007C000EFE6F0E080818062808381E480937C00AA
:1007D00010927B008CE380937E00789408950E94B1
:1007E0007A010C94BA010E94BE030E94EF030091AB
:1007F0006A0310916B032091000130910101409137
:100800000201509103016091040180915E030E94F6
:100810002F0380916503882351F3809104010E9486
:10082000430180FF02C05E9A01C05E988E7F85B949
:1008300010926503DCCF1F920F920FB60F92112416
:100840002F933F934F935F936F937F938F939F93D8
:10085000AF93BF93EF93FF9310927A009BB181E027
:1008600089278BB9609178007091790080E090E0E1
:100870000E942F062DE637EE4BEF5DE30E949506B2
:100880000E94000670936B0360936A03FF91EF91DF
:10089000BF91AF919F918F917F916F915F914F9198
:1008A0003F912F910F900FBE0F901F9018951F92A0
:1008B0000F920FB60F9211242F933F934F935F9394
:1008C0006F937F938F939F93AF93BF93EF93FF9318
:1008D0009091810080E48927809381002091860097
:1008E000309187008091630390916403821793078E
:1008F00008F06BC08091630390916403892B09F425
:1009000064C080915F0390916003A0916103B091F6
:100910006203892B8A2B8B2B09F443C080915F03E0
:1009200090916003A0916103B091620327E0880F6A
:10093000991FAA1FBB1F2A95D1F78093000190939E
:100940000101A0930201B093030160910001709135
:100950000101809102019091030128EE33E040E013
:1009600050E00E94BF0520930001309301014093A5
:100970000201509303012091000130910101409147
:1009800002015091030160E67AEE80E090E00E945F
:10099000BF05209300013093010140930201509361
:1009A000030180918600909187002091630330912C
:1009B0006403821B930BA0E0B0E080935F039093ED
:1009C0006003A0936103B0936203809186009091CD
:1009D00087009093640380936303FF91EF91BF912D
:1009E000AF919F918F917F916F915F914F913F91C7
:1009F0002F910F900FBE0F901F9018951F920F927E
:100A00000FB60F921124CF92DF92EF92FF922F93A5
:100A10003F934F935F936F937F938F939F93AF9386
:100A2000BF93EF93FF938091660390916703A0912A
:100A30006803B09169030196A11DB11D80936603FF
:100A400090936703A0936803B0936903C090660313
:100A5000D0906703E0906803F0906903209104014F
:100A600080E1289F90011124032E000C440B550BAC
:100A700060E67AEE80E090E00E94E105C701B601F1
:100A80000E94BF05672B682B692B19F481E08093C6
:100A9000650360916603709167038091680390918C
:100AA000690326E930E040E050E00E94BF05672B73
:100AB000682B692B19F48FEE80937A00FF91EF91E8
:100AC000BF91AF919F918F917F916F915F914F9166
:100AD0003F912F91FF90EF90DF90CF900F900FBE3E
:100AE0000F901F9018951F920F920FB60F9211241E
:100AF0008F93809104018E3128F4809104018F5FDF
:100B0000809304018F910F900FBE0F901F90189546
:100B10001F920F920FB60F9211248F9380910401B0
:100B2000863028F0809104018150809304018F91D8
:100B30000F900FBE0F901F9018951F920F920FB637
:100B40000F9211248F939F934F9906C090915E034B
:100B500081E0892780935E039F918F910F900FBE54
:100B60000F901F901895991B79E004C0991F961754
:100B700008F0961B881F7A95C9F780950895A1E221
:100B80001A2EAA1BBB1BFD010DC0AA1FBB1FEE1F07
:100B9000FF1FA217B307E407F50720F0A21BB30B52
:100BA000E40BF50B661F771F881F991F1A9469F7CE
:100BB00060957095809590959B01AC01BD01CF012A
:100BC0000895052E97FB1EF400940E94F80557FD2A
:100BD00007D00E94BF0507FC03D04EF40C94F80523
:100BE00050954095309521953F4F4F4F5F4F089559
:100BF00090958095709561957F4F8F4F9F4F089589
:100C00000E94740688F09F5798F0B92F9927B75122
:100C1000B0F0E1F0660F771F881F991F1AF0BA95A0
:100C2000C9F714C0B13091F00E948E06B1E008956A
:100C30000C948E06672F782F8827B85F39F0B93F5C
:100C4000CCF3869577956795B395D9F73EF4909553
:100C50008095709561957F4F8F4F9F4F0895E894D1
:100C600009C097FB3EF490958095709561957F4FF4
:100C70008F4F9F4F9923A9F0F92F96E9BB279395A2
:100C8000F695879577956795B795F111F8CFFAF4B2
:100C9000BB0F11F460FF1BC06F5F7F4F8F4F9F4FE3
:100CA00016C0882311F096E911C0772321F09EE841
:100CB000872F762F05C0662371F096E8862F70E0A7
:100CC00060E02AF09A95660F771F881FDAF7880F81
:100CD0009695879597F9089557FD9058440F551F9D
:100CE00059F05F3F71F04795880F97FB991F61F0AE
:100CF0009F3F79F087950895121613061406551F25
:100D0000F2CF4695F1DF08C0161617061806991F90
:100D1000F1CF86957105610508940895E894BB2785
:100D200066277727CB0197F908950E94A8060C94AF
:100D300019070E940B0738F00E94120720F0952334
:100D400011F00C9402070C94080711240C948F06E0
:100D50000E946C0670F3959FC1F3950F50E0551FEC
:100D6000629FF001729FBB27F00DB11D639FAA2700
:100D7000F00DB11DAA1F649F6627B00DA11D661F4F
:100D8000829F2227B00DA11D621F739FB00DA11D70
:100D9000621F839FA00D611D221F749F3327A00D2A
:100DA000611D231F849F600D211D822F762F6A2FC6
:100DB00011249F5750409AF0F1F088234AF0EE0F2B
:100DC000FF1FBB1F661F771F881F91505040A9F758
:100DD0009E3F510580F00C9402070C948F065F3FF4
:100DE000E4F3983ED4F3869577956795B795F79594
:100DF000E7959F5FC1F7FE2B880F911D969587950C
:100E000097F9089597F99F6780E870E060E008958A
:100E10009FEF80EC089500240A9416161706180612
:100E20000906089500240A941216130614060506EE
:100E30000895092E0394000C11F4882352F0BB0F7F
:100E400040F4BF2B11F460FF04C06F5F7F4F8F4FE2
:100E50009F4F0895BB274A3031F4992322F4BDE215
:100E6000909581959F4F0C943607BB27FB01552722
:100E7000AA27880F991FAA1FA41710F0A41B8395F7
:100E80005051B9F7A05DAA3308F0A95DA19300976E
:100E900079F7B111B1931192CB010C944F07DC019A
:100EA000FC01672F71917723E1F7329704C07C91A1
:100EB0006D9370836291AE17BF07C8F30895F894DD
:020EC000FFCF62
:100EC2003C0000000C3000726573702F6D696E007B
:0A0ED20062706D002553704F32006E
:00000001FF
