:100000000C9432010C9424070C9439070C944F0182
:100010000C944F010C944E070C944F010C944F011B
:100020000C944F010C944F010C942C060C944F012E
:100030000C944F010C944F010C9493060C944F01B7
:100040000C944F010C944F010C9464070C944F01D5
:100050000C944F010C949A050C944F010C944F0191
:100060000C944F010C944F0189057B05E804DD04D5
:100070001E050505F304FE0495057B05950595050C
:1000800044056D05000000000000005F000000074F
:10009000000700147F147F14242A7F2A12231308D8
:1000A000646236495522500005030000001C2241BD
:1000B000000041221C0014083E081408083E0808ED
:1000C00000503000000808080808006060000020A8
:1000D000100804023E5149453E00427F4000426103
:1000E0005149462141454B311814127F102745458F
:1000F00045393C4A494930017109050336494949A6
:1001000036064949291E00363600000056360000E2
:10011000081422410014141414140041221408027B
:1001200001510906324979413E7E1111117E7F4904
:100130004949363E414141227F4141221C7F494984
:1001400049417F090909013E4149497A7F08080868
:100150007F00417F41002040413F017F0814224140
:100160007F404040407F020C027F7F0408107F3EAA
:100170004141413E7F090909063E4151215E7F0907
:10018000192946464949493101017F01013F404053
:10019000403F1F2040201F3F4038403F6314081459
:1001A0006307087008076151494543007F414100DA
:1001B00002040810200041417F00040201020440B3
:1001C00040404040000102040020545454787F48CD
:1001D0004444383844444420384444487F385454D4
:1001E0005418087E0901020C5252523E7F08040442
:1001F0007800447D40002040443D007F10284400AA
:1002000000417F40007C041804787C08040478389E
:10021000444444387C14141408081414187C7C08D2
:100220000404084854545420043F4440203C4040B7
:10023000207C1C2040201C3C4030403C442810289E
:10024000440C5050503C4464544C44000836410027
:1002500000007F0000004136080010080810080068
:100260000000000011241FBECFEFD8E0DEBFCDBFDD
:1002700011E0A0E0B1E0EAEEF4E102C005900D92D9
:10028000A634B107D9F723E0A6E4B1E001C01D927E
:10029000AA39B207E1F70E9493040C94730A0C94F4
:1002A00000009091470180914601983040F4880FFA
:1002B0008F5F809346019F5F9093470107C08695AB
:1002C00080934601811102C010924701809146013E
:1002D00008954298662311F0449A01C0449827E09B
:1002E00030E090E0AC01022E02C0559547950A948B
:1002F000E2F740FF02C0459A01C04598469A4698E9
:100300002150310978F7429A089560E00C94690110
:10031000CF93DF933A9A3B9A3C9A3D9A3E9A439AFE
:10032000429A8FE39CE90197F1F700C000004398DF
:100330009FEF2AE683E0915020408040E1F700C023
:100340000000439A429881E20E94850183E10E9465
:10035000850186E00E94850182EC0E94850180E291
:100360000E94850189E00E94850180E80E94850144
:1003700080E40E948501C8EFD1E061E080E00E9446
:1003800069012197D1F788E00E9485018CE0DF9117
:10039000CF910C94850180E80E94850180E40E9441
:1003A00085011092880310928903E0E9F1E011922F
:1003B00083E0E838F807D9F70895962F9695969533
:1003C0009695E82FF0E084E5989FE00DF11D11244B
:1003D000E057FE4F677081E090E001C0880F6A959A
:1003E000EAF7442319F09081892B03C0809590810E
:1003F000892380830895BF92CF92DF92EF92FF927C
:100400000F931F93CF93DF93D62E95E0699FE00162
:10041000112497E0699F80011124B12C082E000C53
:10042000990B809725E0289F7001299FF00C1124DB
:100430008B2D90E08C179D0754F5C12C8C2D90E0EE
:100440008017910714F58B2D6D2D0E94B407F701CD
:10045000E80FF11DEC57FF4FE491F0E08C2D0E9466
:10046000B40702C0F595E7958A95E2F76091890394
:10047000809188036C0DE0FF02C041E001C040E0C4
:100480008B0D0E94DD01C394D9CFB394D1CF80915D
:10049000880391E0980F8D2D880F880F8D0D890F9F
:1004A000843518F4809388030BC0109288038091E0
:1004B00089038F5F97E0D99E800D11248093890373
:1004C00080918903803320F0109288031092890371
:1004D000DF91CF911F910F91FF90EF90DF90CF9020
:1004E000BF9008951F93CF93DF93162FEC0189914E
:1004F000882321F0612F0E94FB01F9CFDF91CF917A
:100500001F91089580938803609389030895CF9382
:10051000DF9380E80E94850180E40E948501C0E9A4
:10052000D1E061E089910E94690183E0C838D80771
:10053000C1F7DF91CF910895DC01AA5BBF4F2C91E9
:1005400021110AC02091480131E0320F3093480157
:10055000FC01E20FF11D06C0FC0181818193EA17C5
:10056000FB07D9F760830895DF92EF92FF920F9314
:100570001F93CF93DF9300D000D000D0CDB7DEB76C
:10058000082F7B01D42E0E94CB01E4E3F3E02CEE94
:1005900032E08291806480832E173F07D1F715E205
:1005A00041E0612F8CE00E94DD0111501530C1F750
:1005B00010928803109289034AE0BE016F5F7F4F5B
:1005C0008D2D90E00E943E0A61E0CE0101960E94CE
:1005D000720286E0809388038EE18093890361E054
:1005E0008FE191E00E9472024AE0BE016C5F7F4F92
:1005F000802F90E00E943E0A8AE0809388030A30B0
:1006000070F418E21093890361E08FE191E00E9499
:10061000720280E1809388031093890303C088E20B
:100620008093890361E0CE0104960E94720261E02A
:10063000C7010E947202602F89E491E00E949C022F
:1006400080E9E82E81E0F82E13E506E2F7018291B9
:100650007F01602F681B41E0812F0E94DD01115056
:100660001C30A1F726960FB6F894DEBF0FBECDBFA3
:10067000DF91CF911F910F91FF90EF90DF90089540
:100680004F925F926F927F928F929F92AF92BF92A2
:10069000CF92DF92EF92FF920F931F93CF93DF934E
:1006A000CDB7DEB768970FB6F894DEBF0FBECDBFEB
:1006B000882E962E2D8B3E8B4F8B588F0E94CB0110
:1006C0004EE161E271E0892D0E94B4028110B9C04F
:1006D0000E94CB01C701B6010E94EB082B013C012F
:1006E00060E08AE20E94820261E08AE291E00E9478
:1006F00072026AE08AE20E94820261E082E391E093
:100700000E94720264E18AE20E94820261E086E352
:1007100091E00E9472026EE18AE20E94820261E030
:1007200089E391E00E94720268E28AE20E948202FA
:1007300061E08FE391E00E9472024AE0BE01605FD7
:100740007F4F892D90E00E943E0A4AE0BE016F5F14
:100750007F4F8D899E890E943E0A4AE0BE01675FF5
:100760007F4FC8010E943E0A4AE0BE01635F7F4F8F
:10077000C2010E943E0A20E030E040E251E4C7019D
:10078000B6010E94D1096B017C018AE0849DB00111
:10079000859D700D112480E090E00E941A099B0154
:1007A000AC01C701B6010E9407080E94EB08862F22
:1007B0004AE0BE016D5E7F4F90E00E943E0A89E0F4
:1007C00060E0891548F080E00E94820261E08FE1DC
:1007D00091E00E94720203C080E00E94820261E008
:1007E000CE0140960E9472026AE080E00E9482027E
:1007F00061E0CE0101960E94720264E180E00E94F5
:10080000820261E0CE010D960E94720261E084E4F2
:1008100091E00E94720261E0CE0143960E94720252
:100820006EE180E00E94820261E0CE0109960E94A2
:10083000720268E280E00E94820261E0C5010E94CB
:1008400072020E94870268960FB6F894DEBF0FBE50
:10085000CDBFDF91CF911F910F91FF90EF90DF906F
:10086000CF90BF90AF909F908F907F906F905F9050
:100870004F90089587B18C6F87B984B18E6F84B91A
:100880008AB183678AB98BB18C688BB9289A08952D
:1008900082E084BD83E085BD89EF87BD85E48093D8
:1008A0008100109285001092840008958AE0809360
:1008B000690083E08DBB84E08093680080E88093CA
:1008C0006D0082E080936E00EFE6F0E08081806250
:1008D00080837894089581E480937C0087EE8093F0
:1008E0007A0010927B008CE380937E00089588E963
:1008F0008093C10086E08093C2001092C50087E615
:100900008093C40008950E9488010C94CB018091CB
:100910001E010E94510180FF02C05E9A01C05E98D4
:100920008E7F85B908950E943A040E9448040E946F
:100930006B040E9456040E9477040E9483048091F5
:100940008D03882321F1C0909403D0909503E0900B
:100950009603F090970300919803109199032091CA
:100960001A0130911B0140911C0150911D016091B1
:100970001E0180918C0392E1A92E91E0B92E0E9474
:10098000400310928D0380911E018093C6008091D8
:100990008E038823A1F20E94870410928E03CFCF8A
:1009A00020910801309109012E30310508F0BDC0B9
:1009B000F901EC5CFF4F0C94010820919303203364
:1009C00078F1209193032A3358F522E030E02AC0D1
:1009D00020919303203390F0209193032A3370F4F5
:1009E00026E030E01FC020919303203338F020919F
:1009F00093032A3318F427E030E014C020919303C6
:100A0000283771F425E030E00DC0209193032033A6
:100A100038F0209193032A3318F424E030E002C028
:100A200020E030E0309309012093080120918A03EF
:100A300030919303FC01E20FF11D4AC02091930312
:100A4000203320F0209193032A3338F02091930330
:100A50002A3331F040E050E005C04CE050E002C0E5
:100A600049E050E0509309014093080120918A0326
:100A7000FC01E20FF11D4C30510519F490919303E4
:100A800001C090E2908325C020919303203320F091
:100A9000209193032A3338F0209193032A3331F0C5
:100AA00040E050E005C04DE050E002C049E050E0B9
:100AB000509309014093080120918A03FC01E20F41
:100AC000F11D4D30510519F43091930301C030E20E
:100AD00030832F5F20938A0328C0809193038A3349
:100AE00019F080E090E002C089E090E09093090165
:100AF000809308011AC0809193038B3319F080E032
:100B000090E002C083E090E0909309018093080197
:100B10000AC0809193038B3311F423E030E03093CB
:100B200009012093080110928A0380910801909195
:100B3000090108951F920F920FB60F9211242F935F
:100B40003F934F935F936F937F938F939F93AF9355
:100B5000BF93EF93FF9380917A00877F80937A0011
:100B600080917C00609178007091790080FF11C0C5
:100B700080E090E00E941A092DE637EE4BEF5DE32E
:100B80000E94D1090E94EB08709399036093980327
:100B900014C063537F4F80E090E00E941A0924E163
:100BA0003EEA43EA51E40E9479086093940370930B
:100BB0009503809396039093970380919803909167
:100BC0009903CC9700F16091940370919503809103
:100BD00096039091970320E030E04CE052E40E94AD
:100BE000740887FD10C06091940370919503809103
:100BF00096039091970320E030E044E252E40E9493
:100C0000CC091816BCF460918F0370919003809109
:100C10009103909192032CE231E040E050E00E9479
:100C2000C007672B682B692B31F49BB180E28927C1
:100C30008BB901C05D98FF91EF91BF91AF919F91EA
:100C40008F917F916F915F914F913F912F910F9075
:100C50000FBE0F901F9018951F920F920FB60F9214
:100C600011242F933F934F935F936F937F938F93B1
:100C70009F93AF93BF93EF93FF93809186009091E2
:100C80008700A0E0B0E026E0880F991FAA1FBB1FD5
:100C90002A95D1F780931A0190931B01A0931C0110
:100CA000B0931D0160911A0170911B0180911C018C
:100CB00090911D0128EE33E040E050E00E94C00713
:100CC00020931A0130931B0140931C0150931D0186
:100CD00020911A0130911B0140911C0150911D017E
:100CE00060E67AEE80E090E00E94C00720931A014F
:100CF00030931B0140931C0150931D0110928500FD
:100D000010928400FF91EF91BF91AF919F918F91CD
:100D10007F916F915F914F913F912F910F900FBEF7
:100D20000F901F9018951F920F920FB60F921124DB
:100D3000CF92DF92EF92FF922F933F934F935F9367
:100D40006F937F938F939F93AF93BF93EF93FF9393
:100D500080918F0390919003A0919103B0919203A1
:100D60000196A11DB11D80938F0390939003A093D2
:100D70009103B0939203C0908F03D0909003E090C2
:100D80009103F090920320911E0180E1289F900131
:100D90001124032E000C440B550B60E67AEE80E024
:100DA00090E00E94E207C701B6010E94C007672BCE
:100DB000682B692B19F481E080938E0360918F0377
:100DC00070919003809191039091920326E930E015
:100DD00040E050E00E94C007672B682B692B29F484
:100DE00080917A00886080937A0060918F0370917F
:100DF0009003809191039091920328EC30E040E0C1
:100E000050E00E94C007672B682B692B41F481E0FA
:100E100080938D0390917C00892780937C00FF91C3
:100E2000EF91BF91AF919F918F917F916F915F9162
:100E30004F913F912F91FF90EF90DF90CF900F90C7
:100E40000FBE0F901F9018951F920F920FB60F9222
:100E500011248F9380911E018E3128F480911E0100
:100E60008F5F80931E018F910F900FBE0F901F9088
:100E700018951F920F920FB60F9211248F938091A5
:100E80001E01863028F080911E01815080931E0142
:100E90008F910F900FBE0F901F9018951F920F9279
:100EA0000FB60F9211248F939F934F9906C0909184
:100EB0008C0381E0892780938C039F918F910F9001
:100EC0000FBE0F901F9018951F920F920FB60F92A2
:100ED00011242F933F934F935F936F937F938F933F
:100EE0009F93AF93BF93EF93FF938091C60080933E
:100EF000930380E091E00E94D004009799F4E0E031
:100F0000F1E080E090E020E2DC01A65FBE4F3C9182
:100F1000DC01AE5EBE4F3C93219301968830910573
:100F200099F711C0099779F4E0E0F1E080E090E0F2
:100F300020E23081DC01AE5EBE4F3C9321930196EE
:100F400087309105B1F7FF91EF91BF91AF919F91DC
:100F50008F917F916F915F914F913F912F910F9062
:100F60000FBE0F901F901895991B79E004C0991F30
:100F7000961708F0961B881F7A95C9F780950895F3
:100F8000A1E21A2EAA1BBB1BFD010DC0AA1FBB1F8D
:100F9000EE1FFF1FA217B307E407F50720F0A21BFF
:100FA000B30BE40BF50B661F771F881F991F1A946C
:100FB00069F760957095809590959B01AC01BD0196
:100FC000CF010895052E97FB1EF400940E94F907A7
:100FD00057FD07D00E94C00707FC03D04EF40C94C5
:100FE000F90750954095309521953F4F4F4F5F4FF2
:100FF000089590958095709561957F4F8F4F9F4F85
:101000000895EE0FFF1F0590F491E02D09945058BC
:10101000BB27AA270E941F080C9492090E948409EA
:1010200038F00E948B0920F039F49F3F19F426F420
:101030000C9481090EF4E095E7FB0C947B09E92FF1
:101040000E94A30958F3BA1762077307840795072C
:1010500020F079F4A6F50C94C5090EF4E0950B2E5A
:10106000BA2FA02D0B01B90190010C01CA01A001FA
:101070001124FF27591B99F0593F50F4503E68F155
:101080001A16F040A22F232F342F4427585FF3CF96
:10109000469537952795A795F0405395C9F77EF467
:1010A0001F16BA0B620B730B840BBAF09150A1F0B0
:1010B000FF0FBB1F661F771F881FC2F70EC0BA0F36
:1010C000621F731F841F48F4879577956795B795BE
:1010D000F7959E3F08F0B0CF9395880F08F09927B9
:1010E000EE0F9795879508950E94570908F481E0BF
:1010F00008950E948D080C9492090E948B0958F063
:101100000E94840940F029F45F3F29F00C947B0988
:1011100051110C94C6090C9481090E94A30968F32B
:101120009923B1F3552391F3951B550BBB27AA27A0
:1011300062177307840738F09F5F5F4F220F331FDA
:10114000441FAA1FA9F335D00E2E3AF0E0E832D0A2
:1011500091505040E695001CCAF72BD0FE2F29D0A5
:10116000660F771F881FBB1F261737074807AB0777
:10117000B0E809F0BB0B802DBF01FF2793585F4FEC
:101180003AF09E3F510578F00C947B090C94C60907
:101190005F3FE4F3983ED4F3869577956795B795CE
:1011A000F7959F5FC9F7880F911D9695879597F9D9
:1011B0000895E1E0660F771F881FBB1F6217730752
:1011C0008407BA0720F0621B730B840BBA0BEE1F67
:1011D00088F7E09508950E94AB0988F09F5798F032
:1011E000B92F9927B751B0F0E1F0660F771F881F2C
:1011F000991F1AF0BA95C9F714C0B13091F00E9446
:10120000C509B1E008950C94C509672F782F882788
:10121000B85F39F0B93FCCF3869577956795B3956C
:10122000D9F73EF490958095709561957F4F8F4FDB
:101230009F4F0895E89409C097FB3EF490958095E0
:10124000709561957F4F8F4F9F4F9923A9F0F92F8C
:1012500096E9BB279395F695879577956795B7950A
:10126000F111F8CFFAF4BB0F11F460FF1BC06F5FF0
:101270007F4F8F4F9F4F16C0882311F096E911C002
:10128000772321F09EE8872F762F05C0662371F023
:1012900096E8862F70E060E02AF09A95660F771F37
:1012A000881FDAF7880F9695879597F90895990F13
:1012B0000008550FAA0BE0E8FEEF16161706E80720
:1012C000F907C0F012161306E407F50798F0621B41
:1012D000730B840B950B39F40A2661F0232B242B16
:1012E000252B21F408950A2609F4A140A6958FEF35
:1012F000811D811D089597F99F6780E870E060E087
:1013000008959FEF80EC089500240A94161617069E
:1013100018060906089500240A94121613061406E6
:1013200005060895092E0394000C11F4882352F049
:10133000BB0F40F4BF2B11F460FF04C06F5F7F4F01
:101340008F4F9F4F089557FD9058440F551F59F0E8
:101350005F3F71F04795880F97FB991F61F09F3FA2
:1013600079F087950895121613061406551FF2CFCB
:101370004695F1DF08C0161617061806991FF1CF1B
:1013800086957105610508940895E894BB27662742
:101390007727CB0197F908950E94570908F48FEF3A
:1013A00008950E94E4090C9492090E94840938F07F
:1013B0000E948B0920F0952311F00C947B090C946A
:1013C000810911240C94C6090E94A30970F3959F0A
:1013D000C1F3950F50E0551F629FF001729FBB272C
:1013E000F00DB11D639FAA27F00DB11DAA1F649FC8
:1013F0006627B00DA11D661F829F2227B00DA11D7B
:10140000621F739FB00DA11D621F839FA00D611D00
:10141000221F749F3327A00D611D231F849F600D21
:10142000211D822F762F6A2F11249F5750409AF04A
:10143000F1F088234AF0EE0FFF1FBB1F661F771FD6
:10144000881F91505040A9F79E3F510580F00C94A1
:101450007B090C94C6095F3FE4F3983ED4F386956C
:1014600077956795B795F795E7959F5FC1F7FE2B41
:10147000880F911D9695879597F90895BB274A3057
:1014800031F4992322F4BDE2909581959F4F0C94FD
:101490004A0ABB27FB015527AA27880F991FAA1FB5
:1014A000A41710F0A41B83955051B9F7A05DAA337F
:1014B00008F0A95DA193009779F7B111B19311924A
:1014C000CB010C94630ADC01FC01672F7191772337
:1014D000E1F7329704C07C916D9370836291AE17EF
:0A14E000BF07C8F30895F894FFCF8A
:1014EA00202020202020200001004552524F212098
:1014FA00200020202020202020003C0000000C306A
:10150A0000726573702F6D696E007273702F6D694A
:10151A006E0062706D006F43002553704F32006D8C
:06152A006D4867002E0071
:00000001FF
