:100000000C9424010C94DB040C94F0040C94410136
:100010000C9441010C9405050C9441010C94410190
:100020000C9441010C9441010C94ED030C9441019A
:100030000C9441010C9441010C9487040C944101EF
:100040000C9441010C9441010C9441010C94410128
:100050000C9441010C9441010C9441010C94410118
:100060000C9441010C944101000000000000005F6D
:1000700000000007000700147F147F14242A7F2A41
:10008000122313086462364955225000050300000C
:10009000001C2241000041221C0014083E081408E4
:1000A000083E0808005030000008080808080060F2
:1000B00060000020100804023E5149453E00427F86
:1000C000400042615149462141454B311814127F8D
:1000D0001027454545393C4A494930017109050316
:1000E0003649494936064949291E0036360000007E
:1000F0005636000008142241001414141414004150
:100100002214080201510906324979413E7E11113B
:10011000117E7F494949363E414141227F4141227A
:100120001C7F494949417F090909013E4149497AF2
:100130007F0808087F00417F41002040413F017F48
:10014000081422417F404040407F020C027F7F0420
:1001500008107F3E4141413E7F090909063E415159
:10016000215E7F09192946464949493101017F012C
:10017000013F4040403F1F2040201F3F4038403F4C
:100180006314081463070870080761514945430068
:100190007F41410002040810200041417F00040219
:1001A0000102044040404040000102040020545439
:1001B00054787F48444438384444442038444448C0
:1001C0007F3854545418087E0901020C5252523E92
:1001D0007F0804047800447D40002040443D007FB7
:1001E0001028440000417F40007C041804787C08FB
:1001F00004047838444444387C1414140808141453
:10020000187C7C080404084854545420043F44409B
:10021000203C4040207C1C2040201C3C4030403C86
:1002200044281028440C5050503C4464544C440022
:100230000836410000007F00000041360800100829
:10024000081008000000000011241FBECFEFD8E006
:10025000DEBFCDBF11E0A0E0B1E0EEE3FBE002C005
:1002600005900D92A431B107D9F723E0A4E1B1E0E4
:1002700001C01D92A236B207E1F70E94C9030C9497
:100280009D050C9400009091150180911401983007
:1002900040F4880F8F5F809314019F5F9093150146
:1002A00007C0869580931401811102C01092150138
:1002B0008091140108954198662311F0439A01C07A
:1002C000439827E030E090E0AC01022E02C0559543
:1002D00047950A94E2F740FF02C0449A01C044984F
:1002E000459A45982150310978F7419A089560E080
:1002F0000C945B01CF93DF93399A3A9A3B9A3C9ADC
:100300003D9A429A419A83EC99E00197F1F700C037
:10031000000042988BE594E40197F1F700C00000DB
:10032000429A419881E20E94770183E10E9477011D
:1003300086E00E94770182EC0E94770180E20E94B1
:10034000770189E00E94770180E80E94770180E4CC
:100350000E947701C8EFD1E061E080E00E945B017C
:100360002197D1F788E00E9477018CE0DF91CF914F
:100370000C94770180E80E94770180E40E94770165
:100380001092560310925703EEE5F1E0119283E0CC
:10039000E635F807D9F70895962F96959695969590
:1003A000E82FF0E084E5989FE00DF11D1124E25A5A
:1003B000FE4F677081E090E001C0880F6A95EAF710
:1003C000442319F09081892B03C080959081892363
:1003D00080830895BF92CF92DF92EF92FF920F93A6
:1003E0001F93CF93DF93D62E95E0699FE0011124F0
:1003F00097E0699F80011124B12C082E000C990B05
:10040000809725E0289F7001299FF00C11248B2DE7
:1004100090E08C179D0754F5C12C8C2D90E080172F
:10042000910714F58B2D6D2D0E941B05F701E80F28
:10043000F11DE859FF4FE491F0E08C2D0E941B055F
:1004400002C0F595E7958A95E2F760915703809190
:1004500056036C0DE0FF02C041E001C040E08B0D8F
:100460000E94CC01C394D9CFB394D1CF80915603CD
:1004700091E0980F8D2D880F880F8D0D890F843591
:1004800018F4809356030BC01092560380915703C3
:100490008F5F97E0D99E800D112480935703809140
:1004A0005703803320F01092560310925703DF91C8
:1004B000CF911F910F91FF90EF90DF90CF90BF9061
:1004C00008951F93CF93DF93162FEC018991882312
:1004D00021F0612F0E94EA01F9CFDF91CF911F91A6
:1004E000089580935603609357030895CF93DF9345
:1004F00080E80E94770180E40E947701CEE5D1E098
:1005000061E089910E945B0183E0C635D807C1F79D
:10051000DF91CF910895DC01AA5BBF4F2C9121118F
:100520000AC02091160131E0320F30931601FC0110
:10053000E20FF11D06C0FC0181818193EA17FB07E0
:10054000D9F760830895DF92EF92FF920F931F9384
:10055000CF93DF9300D000D000D0CDB7DEB7082F07
:100560007B01D42E0E94BA01E2E0F3E02AEB32E0F4
:100570008291806480832E173F07D1F715E241E016
:10058000612F8CE00E94CC0111501530C1F7109200
:100590005603109257034AE0BE016F5F7F4F8D2DC7
:1005A00090E00E94680561E0CE0101960E94610220
:1005B00086E0809356038EE18093570361E085E0E7
:1005C00091E00E9461024AE0BE016C5F7F4F802F84
:1005D00090E00E9468058AE0809356030A3070F428
:1005E00018E21093570361E085E091E00E946102F8
:1005F00080E1809356031093570303C088E28093F1
:10060000570361E0CE0104960E94610261E0C701D8
:100610000E946102602F87E191E00E948B028EE5CB
:10062000E82E81E0F82E13E506E2F70182917F01C2
:10063000602F681B41E0812F0E94CC0111501C30BB
:10064000A1F726960FB6F894DEBF0FBECDBFDF919F
:10065000CF911F910F91FF90EF90DF900895CF926F
:10066000DF92EF92FF920F931F93CF93DF93CDB75B
:10067000DEB729970FB6F894DEBF0FBECDBF082FA7
:10068000162F69017A010E94BA014EE167E071E01C
:10069000812F0E94A302011140C00E94BA016EE0A6
:1006A00083E20E94710261E087E091E00E946102B2
:1006B00062E283E20E94710261E080E191E00E94C7
:1006C00061024AE0BE01695F7F4F812F90E00E9486
:1006D000680560E080E01A3048F40E94710263E02F
:1006E00085E091E00E94610260E080E10E94710279
:1006F00063E0CE0107960E9461026EE180E00E94F5
:1007000071024AE0BE016F5F7F4FC6010E9468051B
:1007100062E0CE0101960E9461020E947602299653
:100720000FB6F894DEBF0FBECDBFDF91CF911F9102
:100730000F91FF90EF90DF90CF9008953E9A84B193
:100740008E6F84B98AB183678AB98BB18C688BB993
:10075000289A8AE08093690093E09DBB84E08093AF
:10076000680080E880936D0082E084BD95BD99EFBC
:1007700097BD80936E0085E480938100EFE6F0E002
:10078000808180628083789408950E947A010C941D
:10079000BA010E949E030E94C5032091000130917E
:1007A0000101409102015091030160910401809187
:1007B00061030E942F0380915803882371F3809175
:1007C00004010E94430180FF02C05E9A01C05E984E
:1007D0008E7F85B910925803E0CF1F920F920FB60B
:1007E0000F9211242F933F934F935F936F937F93B7
:1007F0008F939F93AF93BF93EF93FF93909181005B
:1008000080E48927809381002091860030918700C1
:100810008091590390915A038217930708F05EC0A4
:100820008091590390915A03892B09F457C0809104
:100830005B0390915C03A0915D03B0915E0327E0A0
:10084000880F991FAA1FBB1F2A95D1F7809300011B
:1008500090930101A0930201B09303016091000104
:1008600070910101809102019091030128EE33E023
:1008700040E050E00E9427052093000130930101E1
:100880004093020150930301209100013091010136
:10089000409102015091030160E67AEE80E090E021
:1008A0000E9427052093000130930101409302012B
:1008B0005093030180918600909187002091590305
:1008C00030915A03821B930BA0E0B0E080935B034E
:1008D00090935C03A0935D03B0935E0380918600C8
:1008E0009091870090935A0380935903FF91EF9161
:1008F000BF91AF919F918F917F916F915F914F9138
:100900003F912F910F900FBE0F901F9018951F923F
:100910000F920FB60F921124CF92DF92EF92FF92B7
:100920002F933F934F935F936F937F938F939F93F7
:10093000AF93BF93EF93FF9380915F039091600318
:1009400001969093600380935F03C0905F03D09003
:10095000600320910401E12CF12C80E1289F90019B
:100960001124032E000C440B550B60E67AEE80E058
:1009700090E00E944905C701B6010E944905672B16
:10098000682B692B19F481E080935803FF91EF9154
:10099000BF91AF919F918F917F916F915F914F9197
:1009A0003F912F91FF90EF90DF90CF900F900FBE6F
:1009B0000F901F9018951F920F920FB60F9211244F
:1009C0008F93809104018E3128F4809104018F5F10
:1009D000809304018F910F900FBE0F901F90189578
:1009E0001F920F920FB60F9211248F9380910401E2
:1009F000863028F0809104018150809304018F910A
:100A00000F900FBE0F901F9018951F920F920FB668
:100A10000F9211248F939F934F9906C09091610379
:100A200081E08927809361039F918F910F900FBE82
:100A30000F901F901895991B79E004C0991F961785
:100A400008F0961B881F7A95C9F780950895A1E252
:100A50001A2EAA1BBB1BFD010DC0AA1FBB1FEE1F38
:100A6000FF1FA217B307E407F50720F0A21BB30B83
:100A7000E40BF50B661F771F881F991F1A9469F7FF
:100A800060957095809590959B01AC01BD01CF015B
:100A90000895052E97FB1EF400940E94600557FDF3
:100AA00007D00E94270507FC03D04EF40C94600584
:100AB00050954095309521953F4F4F4F5F4F08958A
:100AC00090958095709561957F4F8F4F9F4F0895BA
:100AD000BB274A3031F4992322F4BDE290958195E9
:100AE0009F4F0C947405BB27FB015527AA27880F3D
:100AF000991FAA1FA41710F0A41B83955051B9F792
:100B0000A05DAA3308F0A95DA193009779F7B11110
:100B1000B1931192CB010C948D05DC01FC01672F80
:100B200071917723E1F7329704C07C916D937083C4
:0E0B30006291AE17BF07C8F30895F894FFCF87
:100B3E003C0000000C3000726573702F6D696E0002
:040B4E0062706D0064
:00000001FF
