:100000000C9424010C948F030C94A4030C944101D0
:100010000C9441010C9441010C9441010C94410158
:100020000C9441010C9441010C9441010C94410148
:100030000C9441010C9441010C9441010C94410138
:100040000C9441010C9441010C9441010C94410128
:100050000C9441010C9441010C9441010C94410118
:100060000C9441010C944101000000000000005F6D
:1000700000000007000700147F147F14242A7F2A41
:10008000122313086462364955225000050300000C
:10009000001C2241000041221C0014083E081408E4
:1000A000083E0808005030000008080808080060F2
:1000B00060000020100804023E5149453E00427F86
:1000C000400042615149462141454B311814127F8D
:1000D0001027454545393C4A494930017109050316
:1000E0003649494936064949291E0036360000007E
:1000F0005636000008142241001414141414004150
:100100002214080201510906324979413E7E11113B
:10011000117E7F494949363E414141227F4141227A
:100120001C7F494949417F090909013E4149497AF2
:100130007F0808087F00417F41002040413F017F48
:10014000081422417F404040407F020C027F7F0420
:1001500008107F3E4141413E7F090909063E415159
:10016000215E7F09192946464949493101017F012C
:10017000013F4040403F1F2040201F3F4038403F4C
:100180006314081463070870080761514945430068
:100190007F41410002040810200041417F00040219
:1001A0000102044040404040000102040020545439
:1001B00054787F48444438384444442038444448C0
:1001C0007F3854545418087E0901020C5252523E92
:1001D0007F0804047800447D40002040443D007FB7
:1001E0001028440000417F40007C041804787C08FB
:1001F00004047838444444387C1414140808141453
:10020000187C7C080404084854545420043F44409B
:10021000203C4040207C1C2040201C3C4030403C86
:1002200044281028440C5050503C4464544C440022
:100230000836410000007F00000041360800100829
:10024000081008000000000011241FBECFEFD8E006
:10025000DEBFCDBF11E0A0E0B1E0EAEBF8E002C004
:1002600005900D92AC30B107D9F723E0ACE0B1E0D6
:1002700001C01D92A035B207E1F70E94B9030C94AA
:100280005B040C940000009741F0EFE9FFE0319728
:10029000F1F700C000000197F6CF089520910D01FD
:1002A00090910C01283040F4990F9F5F90930C01BE
:1002B0002F5F20930D0107C0969590930C0191112B
:1002C00002C010920D0190E1899F90011124032E2C
:1002D000000C440B550B60E67AEE80E090E00E9443
:1002E000E503C9010E94430180910C0108954198E2
:1002F000662311F0439A01C0439827E030E090E074
:10030000AC01022E02C0559547950A94E2F740FFD2
:1003100002C0449A01C04498459A45982150310939
:1003200078F7419A089560E00C947701CF93DF93BA
:10033000399A3A9A3B9A3C9A3D9A429A419A83EC6E
:1003400099E00197F1F700C0000042988BE594E432
:100350000197F1F700C00000429A419881E20E94A3
:10036000930183E10E94930186E00E94930182EC55
:100370000E94930180E20E94930189E00E94930110
:1003800080E80E94930180E40E949301C8EFD1E0CD
:1003900061E080E00E9477012197D1F788E00E9418
:1003A00093018CE0DF91CF910C94930180E80E943F
:1003B000930180E40E94930110924E0310924F0328
:1003C000E6E5F1E0119283E0EE34F807D9F70895FD
:1003D000962F969596959695E82FF0E084E5989F50
:1003E000E00DF11D1124EA5AFE4F677081E090E0A4
:1003F00001C0880F6A95EAF7442319F09081892B90
:1004000003C080959081892380830895BF92CF9205
:10041000DF92EF92FF920F931F93CF93DF93D62E2D
:1004200095E0699FE001112497E0699F8001112404
:10043000B12C082E000C990B809725E0289F7001A5
:10044000299FF00C11248B2D90E08C179D0754F5FB
:10045000C12C8C2D90E08017910714F58B2D6D2DFC
:100460000E94D903F701E80FF11DE859FF4FE4910D
:10047000F0E08C2D0E94D90302C0F595E7958A958E
:10048000E2F760914F0380914E036C0DE0FF02C0D4
:1004900041E001C040E08B0D0E94E801C394D9CF38
:1004A000B394D1CF80914E0391E0980F8D2D880F9A
:1004B000880F8D0D890F843518F480934E030BC07F
:1004C00010924E0380914F038F5F97E0D99E800D6D
:1004D000112480934F0380914F03803320F01092BA
:1004E0004E0310924F03DF91CF911F910F91FF9018
:1004F000EF90DF90CF90BF9008951F93CF93DF933D
:10050000162FEC018991882321F0612F0E940602A9
:10051000F9CFDF91CF911F91089580934E0360939F
:100520004F030895CF93DF9380E80E94930180E406
:100530000E949301C6E5D1E061E089910E947701B4
:1005400083E0CE34D807C1F7DF91CF910895DC0165
:10055000AA5BBF4F2C9121110AC020910E0131E0FE
:10056000320F30930E01FC01E20FF11D06C0FC01B9
:1005700081818193EA17FB07D9F760830895DF92A1
:10058000EF92FF920F931F93CF93DF9300D000D091
:1005900000D0CDB7DEB7082F7B01D42E0E94D60144
:1005A000EAEFF2E022EB32E08291806480832E1742
:1005B0003F07D1F715E241E0612F8CE00E94E8018E
:1005C00011501530C1F710924E0310924F034AE0BC
:1005D000BE016F5F7F4F8D2D90E00E94260461E089
:1005E000CE0101960E947D0286E080934E038EE14B
:1005F00080934F0361E081E091E00E947D024AE038
:10060000BE016C5F7F4F802F90E00E9426048AE03D
:1006100080934E030A3070F418E210934F0361E0A8
:1006200081E091E00E947D0280E180934E0310936F
:100630004F0303C088E280934F0361E0CE0104962C
:100640000E947D0261E0C7010E947D02602F8FE061
:1006500091E00E94A70286E5E82E81E0F82E13E5DE
:1006600006E2F70182917F01602F681B41E0812F34
:100670000E94E80111501C30A1F726960FB6F8949D
:10068000DEBF0FBECDBFDF91CF911F910F91FF90C5
:10069000EF90DF9008950F931F93CF93DF9300D0D7
:1006A0001F92CDB7DEB7082F162F0E94D601011179
:1006B00007C04EE163E071E0812F0E94BF0225C0B8
:1006C0006EE083E20E948D0261E083E091E00E948F
:1006D0007D024AE0BE016F5F7F4F812F90E00E9454
:1006E000260460E080E01A3048F40E948D0263E046
:1006F00081E091E00E947D0260E080E10E948D0235
:1007000063E0CE0101960E947D020E9492020F904A
:100710000F900F90DF91CF911F910F9108951F922D
:100720000F920FB60F9211248F93809100018E319A
:1007300028F4809100018F5F809300018F910F90CA
:100740000FBE0F901F9018951F920F920FB60F9229
:1007500011248F9380910001863028F08091000150
:100760008150809300018F910F900FBE0F901F90CA
:1007700018950E9496010E94D60184B18FEF84B92A
:100780008AB1836F8AB98BB18C608BB985B185B919
:100790008AE08093690083E08DBB789460910001CA
:1007A00081E00E944B03809100010E944E0185B9B7
:1007B000F5CF991B79E004C0991F961708F0961B96
:1007C000881F7A95C9F780950895052E97FB1EF42A
:1007D00000940E94FC0357FD07D00E94040407FC0C
:1007E00003D04EF40C94FC03509540953095219520
:1007F0003F4F4F4F5F4F089590958095709561954D
:100800007F4F8F4F9F4F0895A1E21A2EAA1BBB1B4B
:10081000FD010DC0AA1FBB1FEE1FFF1FA217B307CC
:10082000E407F50720F0A21BB30BE40BF50B661FE2
:10083000771F881F991F1A9469F7609570958095A6
:1008400090959B01AC01BD01CF010895BB274A30B3
:1008500031F4992322F4BDE2909581959F4F0C9439
:100860003204BB27FB015527AA27880F991FAA1F0F
:10087000A41710F0A41B83955051B9F7A05DAA33BB
:1008800008F0A95DA193009779F7B111B193119286
:10089000CB010C944B04DC01FC01672F7191772391
:1008A000E1F7329704C07C916D9370836291AE172B
:0A08B000BF07C8F30895F894FFCFC6
:0C08BA000C3000726573702F6D696E00C9
:00000001FF
