:100000000C9437010C9454010C9454010C949A04F0
:100010000C9454010C9452030C9454010C94DE047F
:100020000C9454010C9454010C941A040C94540133
:100030000C9454010C9454010C9454010C945401EC
:100040000C9454010C9454010C94CC030C94540162
:100050000C9454010C940A020C9454010C94540115
:100060000C9454010C945401CC07C00753074C075F
:10007000790766075A076107D607C007D607D6076C
:100080009407B407000000000000005F00000007B4
:10009000000700147F147F14242A7F2A12231308D8
:1000A000646236495522500005030000001C2241BD
:1000B000000041221C0014083E081408083E0808ED
:1000C00000503000000808080808006060000020A8
:1000D000100804023E5149453E00427F4000426103
:1000E0005149462141454B311814127F102745458F
:1000F00045393C4A494930017109050336494949A6
:1001000036064949291E00363600000056360000E2
:10011000081422410014141414140041221408027B
:1001200001510906324979413E7E1111117E7F4904
:100130004949363E414141227F4141221C7F494984
:1001400049417F090909013E4149497A7F08080868
:100150007F00417F41002040413F017F0814224140
:100160007F404040407F020C027F7F0408107F3EAA
:100170004141413E7F090909063E4151215E7F0907
:10018000192946464949493101017F01013F404053
:10019000403F1F2040201F3F4038403F6314081459
:1001A0006307087008076151494543007F414100DA
:1001B00002040810200041417F00040201020440B3
:1001C00040404040000102040020545454787F48CD
:1001D0004444383844444420384444487F385454D4
:1001E0005418087E0901020C5252523E7F08040442
:1001F0007800447D40002040443D007F10284400AA
:1002000000417F40007C041804787C08040478389E
:10021000444444387C14141408081414187C7C08D2
:100220000404084854545420043F4440203C4040B7
:10023000207C1C2040201C3C4030403C442810289E
:10024000440C5050503C4464544C44000836410027
:1002500000007F0000004136080010080810080068
:10026000000000002040FF40200402FF020411248F
:100270001FBECFEFD8E0DEBFCDBF11E0A0E0B1E000
:10028000E0EFF8E102C005900D92AA36B107D9F768
:1002900023E0AAE6B1E001C01D92A83CB207E1F755
:1002A0000E9456010C94760C0C9400000E94A40548
:1002B0000E94B0050E94D4050E94C4050E94E0057A
:1002C0000E942D060E947006C0E0D4E6809177015E
:1002D000882309F483C0E09179017091250187B4E6
:1002E000C0901C01D0901D01E0901E01F0901F01F4
:1002F0000091820110918301209120013091210110
:100300004091220150912301609124018091760156
:10031000880C982D990F990F980DF8E88F2E890E5B
:10032000909174019F93909173019F9390917201AA
:100330009F93EF937F93A4E1AA2EA1E0BA2E0E948F
:10034000DB070F900F900F900F900F90C130B9F016
:1003500080F0C23011F1C33041F5809120019091BD
:100360002101A0912201B09123018093C600C4E035
:1003700033C0809124018093C600C1E02DC06091FC
:100380001C0170911D0180911E0190911F010E941E
:10039000EE0A6093C600C2E01FC080918201909176
:1003A00083018093C600C3E017C080E090E02091F5
:1003B000C00025FFFCCFFC01EC5EFE4F20812093A6
:1003C000C60001968830910591F78091C00085FFA5
:1003D000FCCFD093C600C0E01092770180917B01E2
:1003E000882309F473CF80917501811106C088B507
:1003F0008D3010F42E9A01C02E98809178018823B8
:1004000009F464CF809125010E94EC0588BD10920B
:1004100078015CCF1F920F920FB60F9211242F9389
:100420003F934F935F936F937F938F939F93AF937C
:10043000BF93EF93FF9380917A00877F80937A0038
:1004400080917C0082FD1DC080917C0081FD19C0DF
:1004500080917C0080FD15C06091780070917900DA
:1004600080E090E00E941D0B2DE637EE4BEF5DE340
:100470000E94D40B0E94EE0A709383016093820164
:10048000ADC080917C0082FD21C080917C0081FD07
:100490001DC080917C0080FF19C060917800709130
:1004A000790063537F4F80E090E00E941D0B24E1B0
:1004B0003EEA43EA51E40E947C0A60931C01709377
:1004C0001D0180931E0190931F0188C080917C00C4
:1004D00082FD84C080917C0081FF80C080917C007F
:1004E00080FD7CC08091780090917900813921E075
:1004F000920709F462C068F4883A9105E1F0843506
:1005000021E0920709F461C08D39910509F066C0B8
:100510001FC0833A22E09207C9F128F48B3692403B
:1005200009F444C05BC0843523E09207C9F1803CE4
:10053000934021F153C080917601823030F4809154
:1005400076018F5F8093760149C01092760146C094
:1005500080917901823030F4809179018F5F8093AE
:10056000790102C01092790180917901813019F0EE
:1005700010927D0133C080937D0130C080912401B1
:10058000863060F180912401815007C08091240160
:100590008E3120F5809124018F5F809324011EC04D
:1005A00087B58D30D8F087B5815005C087B58631C5
:1005B000A8F487B58F5F87BD11C080912501823077
:1005C00068F080912501815007C0809125018A3013
:1005D00028F4809125018F5F80932501809182010D
:1005E00090918301CC97C8F160911C0170911D011D
:1005F00080911E0190911F0120E030E04CE052E418
:100600000E94770A87FD29C060911C0170911D012D
:1006100080911E0190911F0120E030E040E252E401
:100620000E94CF0B1816CCF08091200190912101EF
:10063000A0912201B0912301C297A105B10568F0F4
:100640008091200190912101A0912201B09123017C
:100650008D389105A105B10528F081E080937501E1
:100660002E9A02C01092750180917C0081FD04C019
:1006700080917C008F5F03C080917C0082508093CA
:100680007C00FF91EF91BF91AF919F918F917F91EE
:100690006F915F914F913F912F910F900FBE0F90EF
:1006A0001F9018951F920F920FB60F9211242F933F
:1006B0003F934F935F936F937F938F939F93AF93EA
:1006C000BF93EF93FF934F9B11C080917E01909158
:1006D0007F01A0918001B091810180936E01909380
:1006E0006F01A0937001B093710145C04F9943C051
:1006F00080917E0190917F01A0918001B091810154
:1007000040916E0150916F01609170017091710183
:10071000481759076A077B0770F580917E01909111
:100720007F01A0918001B0918101841B950BA60BE4
:10073000B70B880F991FAA1FBB1F809320019093AE
:100740002101A0932201B093230120912001309137
:100750002101409122015091230160E67AEE80E070
:1007600090E00E94C309209320013093210140931F
:10077000220150932301FF91EF91BF91AF919F917F
:100780008F917F916F915F914F913F912F910F903A
:100790000FBE0F901F9018951F920F920FB60F92D9
:1007A00011242F933F934F935F936F937F938F9376
:1007B0009F93AF93BF93EF93FF936091C60084E044
:1007C00091E00E943F07009799F4E4E0F1E080E0B7
:1007D00090E020E2DC01A45FBE4F3C91DC01AC5E06
:1007E000BE4F3C93219301968830910599F711C033
:1007F000099779F4E4E0F1E080E090E020E23081D4
:10080000DC01AC5EBE4F3C9321930196873091058D
:10081000B1F7FF91EF91BF91AF919F918F917F9130
:100820006F915F914F913F912F910F900FBE0F905D
:100830001F9018951F920F920FB60F9211240F93CD
:100840001F932F933F934F935F936F937F938F9358
:100850009F93AF93BF93EF93FF939091810080E4B8
:100860008927809381008091810086FD0FC080914F
:10087000860090918700A0E0B0E080936A01909399
:100880006B01A0936C01B0936D012EC08091860026
:100890009091870000916A0110916B0120916C0189
:1008A00030916D01A0E0B0E0081719072A073B0757
:1008B000D8F46091860070918700CB01A0E0B0E091
:1008C000BC01CD01601B710B820B930B24E730E060
:1008D00040E050E00E94C3092093000130930101E1
:1008E0004093020150930301809100019091010116
:1008F000A0910201B09103010597A105B10520F473
:1009000081E080937B0103C010927B012E98FF91C0
:10091000EF91BF91AF919F918F917F916F915F9177
:100920004F913F912F911F910F910F900FBE0F90FC
:100930001F9018951F920F920FB60F9211248F934C
:1009400080917901813021F080917D01882361F0CF
:100950001F9B05C080912501845F88BD0BC01F9936
:100960000CC08CE088BD09C080917901823029F4E7
:100970001F9B03C081E080937D018F910F900FBE7C
:100980000F901F901895809174018F5F8C3319F030
:100990008093740107C010927401809173018F5F7E
:1009A00080937301809173018C3339F480917201CB
:1009B0008F5F809372011092730108951F920F92BE
:1009C0000FB60F921124CF92DF92EF92FF922F93E6
:1009D0003F934F935F936F937F938F939F93AF93C7
:1009E000BF93EF93FF9380917E0190917F01A0913F
:1009F0008001B09181010196A11DB11D80937E01FE
:100A000090937F01A0938001B0938101809179013F
:100A1000882321F080917D01811129C0C0907E0141
:100A2000D0907F01E0908001F090810180912401BD
:100A30004091250190E0880F991F489F9001499FA0
:100A4000300D1124032E000C440B550B60E67AEE9A
:100A500080E090E00E94E509C701B6010E94C30949
:100A6000672B682B692B19F481E0809378016091E2
:100A70007E0170917F01809180019091810122E33C
:100A800030E040E050E00E94C309672B682B692BDF
:100A900029F480917A00886080937A0060917E01C9
:100AA00070917F01809180019091810128EC30E06C
:100AB00040E050E00E94C309672B682B692B19F4B2
:100AC00081E08093770160917E0170917F01809138
:100AD00080019091810124E630E040E050E00E94E6
:100AE000C309672B682B692B31F45A9A85E38A95E1
:100AF000F1F700005A9860917E0170917F0180911A
:100B000080019091810128EE33E040E050E00E94A6
:100B1000C309672B682B692B11F40E94C304FF9152
:100B2000EF91BF91AF919F918F917F916F915F9165
:100B30004F913F912F91FF90EF90DF90CF900F90CA
:100B40000FBE0F901F90189587B187B984B18E673B
:100B500084B98AB18F668AB98BB18BB9289A089506
:100B600082E08093B00084E08093B10089EF8093AD
:100B7000B30082E48093810083EA84BD87E085BD71
:100B80008CE087BD88BD089585E08093680080E88B
:100B900080936B0080936D0080E280936F0082E011
:100BA000809370007894089581E480937C0087EEB0
:100BB00080937A0010927B0088E380937E000895F2
:100BC00088E98093C10086E08093C2001092C5003E
:100BD00087E68093C40008959091840120912601B6
:100BE00030912701981750F42F5F3F4F3093270122
:100BF000209326019F5F909384010BC021503109FF
:100C000030932701209326012C30310511F41092E6
:100C10008401809126019091270108952D986623E3
:100C200011F02A9A01C02A9827E030E090E0AC0148
:100C3000022E02C0559547950A94E2F740FF02C084
:100C40002B9A01C02B982C9A2C982150310978F7B7
:100C50002D9A089560E00C940E06CF93DF93259AA9
:100C6000219A229A239A249A299A2D9A8FE39CE911
:100C70000197F1F700C0000029989FEF2AE683E072
:100C8000915020408040E1F700C00000299A2D9843
:100C900081E20E942A0683E10E942A0686E00E94E1
:100CA0002A0682EC0E942A0680E20E942A0689E037
:100CB0000E942A0680E80E942A0680E40E942A06F2
:100CC000C8EFD1E061E080E00E940E062197D1F7E5
:100CD00088E00E942A068CE0DF91CF910C942A06CE
:100CE00080E80E942A0680E40E942A061092C5032A
:100CF0001092C603EDECF1E0119283E0E53CF807B9
:100D0000D9F70895962F969596959695E82FF0E049
:100D100084E5989FE00DF11D1124E353FE4F6770A9
:100D200081E090E001C0880F6A95EAF7442319F04A
:100D30009081892B03C080959081892380830895B9
:100D4000BF92CF92DF92EF92FF920F931F93CF93B8
:100D5000DF93D62E95E0699FE001112497E0699F0B
:100D600080011124B12C90E0809725E0289F70012C
:100D7000299FF00C11248B2D90E08C179D0754F5C2
:100D8000C12C8C2D90E08017910714F58B2D6D2DC3
:100D90000E94B709F701E80FF11DEC57FF4FE491EE
:100DA000F0E08C2D0E94B70902C0F595E7958A9571
:100DB000E2F76091C6038091C5036C0DE0FF02C0AD
:100DC00041E001C040E08B0D0E948206C394D9CF60
:100DD000B394D1CF8091C50391E0980F8D2D880FEA
:100DE000880F8D0D890F843518F48093C5030BC0CF
:100DF0001092C5038091C6038F5F97E0D99E800D46
:100E000011248093C6038091C603803320F0109292
:100E1000C5031092C603DF91CF911F910F91FF90F0
:100E2000EF90DF90CF90BF9008951F93CF93DF9303
:100E3000162FEC018991882321F0612F0E94A006D2
:100E4000F9CFDF91CF911F9108958093C5036093EF
:100E5000C6030895CF93DF9380E80E942A0680E4BA
:100E60000E942A06CDECD1E061E089910E940E0635
:100E700083E0C53CD807C1F7DF91CF910895209159
:100E80002801309129012E30310508F08FC0F90179
:100E9000EC5CFF4F0C94040A20ED260F2A30D0F4AE
:100EA00022E030E01CC020ED260F2A3050F426E06E
:100EB00030E015C020ED260F2A3018F427E030E08E
:100EC0000EC0683739F425E030E009C020ED260F68
:100ED0002A3018F020E030E002C024E030E0309307
:100EE0002901209328012091C703FC01E20FF11D85
:100EF00036C020ED260F2A3028F06A3331F040E06A
:100F000050E005C04CE050E002C049E050E0509392
:100F10002901409328012091C703FC01E20FF11D34
:100F20004C305105D9F41BC020ED260F2A3028F093
:100F30006A3331F040E050E005C04DE050E002C0BF
:100F400049E050E050932901409328012091C703C4
:100F5000FC01E20FF11D4D30510509F060E26083A4
:100F60002F5F2093C70322C06A3319F080E090E01E
:100F700002C089E090E0909329018093280116C077
:100F80006B3319F080E090E002C083E090E0909332
:100F900029018093280108C06B3311F423E030E06D
:100FA00030932901209328011092C70380912801D2
:100FB0009091290108952F923F924F925F926F92E4
:100FC0007F928F929F92AF92BF92CF92DF92EF92D9
:100FD000FF920F931F93CF93DF93CDB7DEB7A29706
:100FE0000FB6F894DEBF0FBECDBF88A369A3290159
:100FF0003A011501B8AC29AD2AA39AACABAC0E945A
:101000007006BB2029F081E0B81629F023E504C062
:1010100086E48F8F02C021E42F8FB12C41E069E07C
:101020008B2D0E948206B39484E5B812F7CF28A1D5
:10103000213009F41AC1C0F1223009F07DC10E94AB
:10104000700660E18CE00E9425074AE0BE016F5EF9
:101050007F4F2AA1822F90E00E94410C62E0CE01D6
:1010600041960E94150762E08AE30E94A0064AE0CA
:10107000BE016F5E7F4F892D90E00E94410C62E0BF
:10108000CE0141960E94150762E08AE30E94A00605
:101090004AE0BE016F5E7F4F8A2D90E00E94410CB6
:1010A00062E0CE01419646C182E3481651046104D4
:1010B000710438F46CE088E20E94250761E080E862
:1010C0000CC02DE8421651046104710440F06CE03C
:1010D00088E20E94250761E081E80E94A0060C33A7
:1010E000110540F46FE188E20E94250761E080E885
:1010F0000E94A00620E030E04CE052E4C701B601B7
:101100000E94770A87FF07C065E188E20E942507F1
:1011100061E080E810C020E030E040E252E4C70126
:10112000B6010E94CF0B181644F465E188E20E94D4
:10113000250761E081E80E94A006C701B6010E9470
:10114000EE0A4B015C0160E080E00E94250761E04F
:101150008AE291E00E9415074AE0BE016F5F7F4F6F
:10116000C2010E94410C4AE0BE01635F7F4FC8018B
:101170000E94410C4AE0BE01695E7F4FC4010E949B
:10118000410C20E030E040E251E4C701B6010E948A
:10119000D40B6B017C018AE0889DB001899D700DA4
:1011A000112480E090E00E941D0B9B01AC01C7015F
:1011B000B6010E940A0A0E94EE0A862F4AE0BE018A
:1011C000635E7F4F90E00E94410C6CE082E00E94E1
:1011D000250761E0CE0101960E94150765E182E0D6
:1011E0000E94250761E0CE0147960E94150761E045
:1011F00088E391E00E94150761E0CE014D960E94C0
:1012000015076FE182E00E94250761E0CE010D968F
:101210000E94150769E282E00E94250761E0C10192
:101220000E9415076CE082E30E94250761E08AE3D3
:1012300091E00E94150765E182E30E94250761E0C5
:101240008EE391E00E9415076FE182E30E9425077B
:1012500061E081E491E00E94150769E282E30E9467
:10126000250761E087E491E065C060E080E00E94CE
:10127000250761E08CE491E00E9415074AE0BE0179
:10128000665E7F4F29A1822F90E00E94410C4AE0C8
:10129000BE01675F7F4F882D90E00E94410C4AE0BD
:1012A000BE016C5E7F4F8FA990E00E94410C6CE004
:1012B00082E00E9425076CE08AE00E94250761E039
:1012C000CE014A960E94150768E18AE00E94250730
:1012D00061E0CE0109960E94150764E28AE00E944F
:1012E000250761E0CE0144960E9415076CE084E278
:1012F0000E94250761E088E591E00E94150768E1FA
:1013000084E20E94250761E081E691E00E941507D2
:1013100064E284E20E94250761E085E691E00E9494
:10132000150768E18CE30E94250763E08F8D0E941A
:10133000A00602C00E9415070E942A07A2960FB6B7
:10134000F894DEBF0FBECDBFDF91CF911F910F91FB
:10135000FF90EF90DF90CF90BF90AF909F908F90D5
:101360007F906F905F904F903F902F900895991BC2
:1013700079E004C0991F961708F0961B881F7A958C
:10138000C9F780950895A1E21A2EAA1BBB1BFD0187
:101390000DC0AA1FBB1FEE1FFF1FA217B307E40754
:1013A000F50720F0A21BB30BE40BF50B661F771FAC
:1013B000881F991F1A9469F760957095809590958C
:1013C0009B01AC01BD01CF010895052E97FB1EF4D2
:1013D00000940E94FC0957FD07D00E94C30907FC36
:1013E00003D04EF40C94FC0950954095309521950E
:1013F0003F4F4F4F5F4F0895909580957095619541
:101400007F4F8F4F9F4F0895EE0FFF1F0590F49170
:10141000E02D09945058BB27AA270E94220A0C9459
:10142000950B0E94870B38F00E948E0B20F039F448
:101430009F3F19F426F40C94840B0EF4E095E7FB1F
:101440000C947E0BE92F0E94A60B58F3BA17620783
:1014500073078407950720F079F4A6F50C94C80B60
:101460000EF4E0950B2EBA2FA02D0B01B9019001BF
:101470000C01CA01A0011124FF27591B99F0593F03
:1014800050F4503E68F11A16F040A22F232F342F4B
:101490004427585FF3CF469537952795A795F04099
:1014A0005395C9F77EF41F16BA0B620B730B840BAE
:1014B000BAF09150A1F0FF0FBB1F661F771F881F66
:1014C000C2F70EC0BA0F621F731F841F48F48795BE
:1014D00077956795B795F7959E3F08F0B0CF9395B0
:1014E000880F08F09927EE0F9795879508950E9429
:1014F0005A0B08F481E008950E94900A0C94950B11
:101500000E948E0B58F00E94870B40F029F45F3F39
:1015100029F00C947E0B51110C94C90B0C94840B84
:101520000E94A60B68F39923B1F3552391F3951B01
:10153000550BBB27AA2762177307840738F09F5FF4
:101540005F4F220F331F441FAA1FA9F335D00E2E61
:101550003AF0E0E832D091505040E695001CCAF7CE
:101560002BD0FE2F29D0660F771F881FBB1F261791
:1015700037074807AB07B0E809F0BB0B802DBF0168
:10158000FF2793585F4F3AF09E3F510578F00C9437
:101590007E0B0C94C90B5F3FE4F3983ED4F3869521
:1015A00077956795B795F7959F5FC9F7880F911D58
:1015B0009695879597F90895E1E0660F771F881F44
:1015C000BB1F621773078407BA0720F0621B730BF7
:1015D000840BBA0BEE1F88F7E09508950E94AE0BBE
:1015E00088F09F5798F0B92F9927B751B0F0E1F0E4
:1015F000660F771F881F991F1AF0BA95C9F714C094
:10160000B13091F00E94C80BB1E008950C94C80B62
:10161000672F782F8827B85F39F0B93FCCF38695CC
:1016200077956795B395D9F73EF490958095709529
:1016300061957F4F8F4F9F4F0895E89409C097FBA6
:101640003EF490958095709561957F4F8F4F9F4F99
:101650009923A9F0F92F96E9BB279395F6958795DD
:1016600077956795B795F111F8CFFAF4BB0F11F4A0
:1016700060FF1BC06F5F7F4F8F4F9F4F16C0882347
:1016800011F096E911C0772321F09EE8872F762F7D
:1016900005C0662371F096E8862F70E060E02AF0BE
:1016A0009A95660F771F881FDAF7880F96958795AA
:1016B00097F90895990F0008550FAA0BE0E8FEEF7F
:1016C00016161706E807F907C0F012161306E40706
:1016D000F50798F0621B730B840B950B39F40A26FF
:1016E00061F0232B242B252B21F408950A2609F4DD
:1016F000A140A6958FEF811D811D089597F99F67E1
:1017000080E870E060E008959FEF80EC0895002489
:101710000A941616170618060906089500240A9456
:1017200012161306140605060895092E0394000CDC
:1017300011F4882352F0BB0F40F4BF2B11F460FF6B
:1017400004C06F5F7F4F8F4F9F4F089557FD905894
:10175000440F551F59F05F3F71F04795880F97FB75
:10176000991F61F09F3F79F087950895121613062F
:101770001406551FF2CF4695F1DF08C0161617065E
:101780001806991FF1CF8695710561050894089593
:10179000E894BB2766277727CB0197F908950E9425
:1017A0005A0B08F48FEF08950E94E70B0C94950BE9
:1017B0000E94870B38F00E948E0B20F0952311F0C9
:1017C0000C947E0B0C94840B11240C94C90B0E9476
:1017D000A60B70F3959FC1F3950F50E0551F629FC4
:1017E000F001729FBB27F00DB11D639FAA27F00D7A
:1017F000B11DAA1F649F6627B00DA11D661F829FA1
:101800002227B00DA11D621F739FB00DA11D621F85
:10181000839FA00D611D221F749F3327A00D611DA2
:10182000231F849F600D211D822F762F6A2F112484
:101830009F5750409AF0F1F088234AF0EE0FFF1FB7
:10184000BB1F661F771F881F91505040A9F79E3F0E
:10185000510580F00C947E0B0C94C90B5F3FE4F3B0
:10186000983ED4F3869577956795B795F795E79564
:101870009F5FC1F7FE2B880F911D9695879597F96D
:101880000895BB274A3031F4992322F4BDE29095A4
:1018900081959F4F0C944D0CBB27FB015527AA2720
:1018A000880F991FAA1FA41710F0A41B83955051ED
:1018B000B9F7A05DAA3308F0A95DA193009779F765
:1018C000B111B1931192CB010C94660CDC01FC01B7
:1018D000672F71917723E1F7329704C07C916D9364
:1018E00070836291AE17BF07C8F30895F894FFCFD5
:1018F0001400000020202020202020004552524FBC
:101900002120200020202020202020000000204135
:101910003C0000000C0A0C000100204461646F735D
:1019200020766974616973002E0062706D006F43E8
:10193000002553704F32006D6D4867002050617272
:10194000616D6574726F7300726573702F6D696E6F
:0A19500000254F3200766F6C000096
:00000001FF
