:100000000C9432010C944F010C944F010C944F014D
:100010000C944F010C94FA030C944F010C944C0374
:100020000C944F010C944F010C94C2040C944F019A
:100030000C944F010C944F010C944F010C944F0100
:100040000C944F010C944F010C9474040C944F01C8
:100050000C944F010C94FF010C944F010C944F0130
:100060000C944F010C944F0166075A07ED06E60603
:1000700013070007F406FB0670075A07700770079E
:100080002E074E07000000000000005F0000000780
:10009000000700147F147F14242A7F2A12231308D8
:1000A000646236495522500005030000001C2241BD
:1000B000000041221C0014083E081408083E0808ED
:1000C00000503000000808080808006060000020A8
:1000D000100804023E5149453E00427F4000426103
:1000E0005149462141454B311814127F102745458F
:1000F00045393C4A494930017109050336494949A6
:1001000036064949291E00363600000056360000E2
:10011000081422410014141414140041221408027B
:1001200001510906324979413E7E1111117E7F4904
:100130004949363E414141227F4141221C7F494984
:1001400049417F090909013E4149497A7F08080868
:100150007F00417F41002040413F017F0814224140
:100160007F404040407F020C027F7F0408107F3EAA
:100170004141413E7F090909063E4151215E7F0907
:10018000192946464949493101017F01013F404053
:10019000403F1F2040201F3F4038403F6314081459
:1001A0006307087008076151494543007F414100DA
:1001B00002040810200041417F00040201020440B3
:1001C00040404040000102040020545454787F48CD
:1001D0004444383844444420384444487F385454D4
:1001E0005418087E0901020C5252523E7F08040442
:1001F0007800447D40002040443D007F10284400AA
:1002000000417F40007C041804787C08040478389E
:10021000444444387C14141408081414187C7C08D2
:100220000404084854545420043F4440203C4040B7
:10023000207C1C2040201C3C4030403C442810289E
:10024000440C5050503C4464544C44000836410027
:1002500000007F0000004136080010080810080068
:100260000000000011241FBECFEFD8E0DEBFCDBFDD
:1002700011E0A0E0B1E0E2EBF7E102C005900D92E1
:10028000AA36B107D9F723E0AAE6B1E001C01D9272
:10029000A33CB207E1F70E9451010C94D70B0C94D8
:1002A00000000E9441050E944D050E946F050E94BA
:1002B00061050E947B050E94C5050E940806C0E0FA
:1002C000D4E680917401882309F477C0E091760127
:1002D0007091250187B4C0901C01D0901D01E09061
:1002E0001E01F0901F0100917D0110917E0120916F
:1002F0002001309121014091220150912301609110
:10030000240180917301880C982D990F990F980DF5
:10031000F8E88F2E890EEF937F93A4E1AA2EA1E037
:10032000BA2E0E9475070F900F90C130B9F080F07F
:10033000C23011F1C33041F580912001909121012B
:10034000A0912201B09123018093C600C4E033C084
:10035000809124018093C600C1E02DC060911C01F2
:1003600070911D0180911E0190911F010E944F0A02
:100370006093C600C2E01FC080917D0190917E0114
:100380008093C600C3E017C080E090E02091C000D9
:1003900025FFFCCFFC01EC5EFE4F20812093C600C0
:1003A00001968830910591F78091C00085FFFCCFC0
:1003B000D093C600C0E01092740180917801882328
:1003C00009F47FCF80917501882309F47ACF809159
:1003D0007601811176CF60912501809124010E94E0
:1003E000870588BD1092750180917201811169CFD6
:1003F00088B58D3010F42E9A64CF2E9862CF1F925C
:100400000F920FB60F9211242F933F934F935F9348
:100410006F937F938F939F93AF93BF93EF93FF93CC
:1004200080917A00877F80937A0080917C0082FDA2
:100430001DC080917C0081FD19C080917C0080FDF1
:1004400015C0609178007091790080E090E00E9482
:100450007E0A2DE637EE4BEF5DE30E94350B0E94DE
:100460004F0A70937E0160937D019CC080917C0057
:1004700082FD21C080917C0081FD1DC080917C00A7
:1004800080FF19C0609178007091790063537F4FAD
:1004900080E090E00E947E0A24E13EEA43EA51E4D3
:1004A0000E94DD0960931C0170931D0180931E0161
:1004B00090931F0177C080917C0082FD73C0809172
:1004C0007C0081FF6FC080917C0080FD6BC08091BB
:1004D000780090917900813921E0920709F451C0A8
:1004E00098F4883A910509F1843521E0920709F4DE
:1004F00050C08D39910509F055C09091760181E089
:100500008927809376014EC0833A22E0920711F149
:1005100020F48B36924071F145C0843523E0920778
:1005200019F1803C934071F03DC08091730183309C
:1005300030F4809173018F5F8093730133C0109208
:10054000730130C080912401863060F180912401D4
:10055000815007C0809124018E3120F580912401C3
:100560008F5F809324011EC087B58D30D8F087B58A
:10057000815005C087B58631A8F487B58F5F87BDE8
:1005800011C080912501823068F080912501815051
:1005900007C0809125018A3028F4809125018F5F62
:1005A0008093250180917D0190917E01CC97C8F1C7
:1005B00060911C0170911D0180911E0190911F019D
:1005C00020E030E04CE052E40E94D80987FD29C0C9
:1005D00060911C0170911D0180911E0190911F017D
:1005E00020E030E040E252E40E94300B1816CCF0DC
:1005F0008091200190912101A0912201B0912301CD
:10060000C297A105B10568F0809120019091210168
:10061000A0912201B09123018D389105A105B1056A
:10062000D8F081E0809372016091790170917A0134
:1006300080917B0190917C012CE231E040E050E020
:100640000E942409672B682B692B21F49BB188E059
:1006500089278BB92E9A02C01092720180917C007A
:1006600081FD04C080917C008F5F03C080917C007D
:10067000825080937C00FF91EF91BF91AF919F9149
:100680008F917F916F915F914F913F912F910F903B
:100690000FBE0F901F9018951F920F920FB60F92DA
:1006A0001124CF92DF92EF92FF922F933F934F93BB
:1006B0005F936F937F938F939F93AF93BF93EF93CA
:1006C000FF938091790190917A01A0917B01B09183
:1006D0007C010196A11DB11D8093790190937A014F
:1006E000A0937B01B0937C0180917601811129C098
:1006F000C0907901D0907A01E0907B01F0907C016C
:10070000809124014091250190E0880F991F489F16
:100710009001499F300D1124032E000C440B550B02
:1007200060E67AEE80E090E00E944609C701B601DB
:100730000E942409672B682B692B19F481E08093B0
:1007400075016091790170917A0180917B0190919E
:100750007C0122E330E040E050E00E942409672B56
:10076000682B692B29F480917A00886080937A0045
:100770006091790170917A0180917B0190917C0167
:1007800028EC30E040E050E00E942409672B682B01
:10079000692B19F481E08093740160917901709163
:1007A0007A0180917B0190917C0124E630E040E069
:1007B00050E00E942409672B682B692B31F45A9A68
:1007C00085E38A95F1F700005A98FF91EF91BF9168
:1007D000AF919F918F917F916F915F914F913F91D9
:1007E0002F91FF90EF90DF90CF900F900FBE0F9062
:1007F0001F9018951F920F920FB60F9211242F93EE
:100800003F934F935F936F937F938F939F93AF9398
:10081000BF93EF93FF934F9B11C08091790190910B
:100820007A01A0917B01B0917C0180936E0190933D
:100830006F01A0937001B093710145C04F9943C0FF
:100840008091790190917A01A0917B01B0917C0116
:1008500040916E0150916F01609170017091710132
:10086000481759076A077B0770F5809179019091C5
:100870007A01A0917B01B0917C01841B950BA60BA2
:10088000B70B880F991FAA1FBB1F8093200190935D
:100890002101A0932201B0932301209120013091E6
:1008A0002101409122015091230160E67AEE80E01F
:1008B00090E00E942409209320013093210140936D
:1008C000220150932301FF91EF91BF91AF919F912E
:1008D0008F917F916F915F914F913F912F910F90E9
:1008E0000FBE0F901F9018951F920F920FB60F9288
:1008F00011242F933F934F935F936F937F938F9325
:100900009F93AF93BF93EF93FF936091C60084E0F2
:1009100091E00E94D906009799F4E4E0F1E080E0CC
:1009200090E020E2DC01A45FBE4F3C91DC01AC5EB4
:10093000BE4F3C93219301968830910599F711C0E1
:10094000099779F4E4E0F1E080E090E020E2308182
:10095000DC01AC5EBE4F3C9321930196873091053C
:10096000B1F7FF91EF91BF91AF919F918F917F91DF
:100970006F915F914F913F912F910F900FBE0F900C
:100980001F9018951F920F920FB60F9211240F937C
:100990001F932F933F934F935F936F937F938F9307
:1009A0009F93AF93BF93EF93FF939091810080E467
:1009B0008927809381008091810086FD0FC08091FE
:1009C000860090918700A0E0B0E080936A01909348
:1009D0006B01A0936C01B0936D012EC080918600D5
:1009E0009091870000916A0110916B0120916C0138
:1009F00030916D01A0E0B0E0081719072A073B0706
:100A0000D8F46091860070918700CB01A0E0B0E03F
:100A1000BC01CD01601B710B820B930B24E730E00E
:100A200040E050E00E94240920930001309301012E
:100A300040930201509303018091000190910101C4
:100A4000A0910201B09103010597A105B10520F421
:100A500081E08093780102C010927801FF91EF91BC
:100A6000BF91AF919F918F917F916F915F914F91C6
:100A70003F912F911F910F910F900FBE0F901F90DC
:100A8000189587B187B984B18E6784B98AB18F66AA
:100A90008AB98BB18BB9289A089582E08093B0000F
:100AA00084E08093B10089EF8093B30082E4809367
:100AB000810083EA84BD87E085BD8CE087BD88BD69
:100AC000089585E08093680080E880936D0080E25F
:100AD00080936F0082E0809370007894089581E4A1
:100AE00080937C0087EE80937A0010927B0088E3ED
:100AF00080937E00089588E98093C10086E080930A
:100B0000C2001092C50087E68093C400089520912A
:100B10007F018091260190912701261748F40196C4
:100B200090932701809326012F5F20937F0109C0B6
:100B3000019790932701809326010C9711F410924E
:100B40007F01809126019091270108952D986623B9
:100B500011F02A9A01C02A9827E030E090E0AC0119
:100B6000022E02C0559547950A94E2F740FF02C055
:100B70002B9A01C02B982C9A2C982150310978F788
:100B80002D9A089560E00C94A605CF93DF93259AE3
:100B9000219A229A239A249A299A2D9A8FE39CE9E2
:100BA0000197F1F700C0000029989FEF2AE683E043
:100BB000915020408040E1F700C00000299A2D9814
:100BC00081E20E94C20583E10E94C20586E00E9484
:100BD000C20582EC0E94C20580E20E94C20589E043
:100BE0000E94C20580E80E94C20580E40E94C205FE
:100BF000C8EFD1E061E080E00E94A6052197D1F71F
:100C000088E00E94C2058CE0DF91CF910C94C20570
:100C100080E80E94C20580E40E94C2051092C003D1
:100C20001092C103E8ECF1E0119283E0E03CF80798
:100C3000D9F70895962F969596959695E82FF0E01A
:100C400084E5989FE00DF11D1124E853FE4F677075
:100C500081E090E001C0880F6A95EAF7442319F01B
:100C60009081892B03C0809590818923808308958A
:100C7000BF92CF92DF92EF92FF920F931F93CF9389
:100C8000DF93D62E95E0699FE001112497E0699FDC
:100C900080011124B12C082E000C990B809725E0BF
:100CA000289F7001299FF00C11248B2D90E08C1748
:100CB0009D0754F5C12C8C2D90E08017910714F5F9
:100CC0008B2D6D2D0E941809F701E80FF11DEC57CF
:100CD000FF4FE491F0E08C2D0E94180902C0F595B9
:100CE000E7958A95E2F76091C1038091C0036C0D8E
:100CF000E0FF02C041E001C040E08B0D0E941A06F7
:100D0000C394D9CFB394D1CF8091C00391E0980F11
:100D10008D2D880F880F8D0D890F843518F48093E1
:100D2000C0030BC01092C0038091C1038F5F97E096
:100D3000D99E800D11248093C1038091C10380331B
:100D400020F01092C0031092C103DF91CF911F9148
:100D50000F91FF90EF90DF90CF90BF9008951F9379
:100D6000CF93DF93162FEC018991882321F0612F17
:100D70000E943806F9CFDF91CF911F91089580939B
:100D8000C0036093C1030895CF93DF9380E80E946E
:100D9000C20580E40E94C205C8ECD1E061E08991FF
:100DA0000E94A60583E0C03CD807C1F7DF91CF9130
:100DB000089520912801309129012E30310508F045
:100DC0008FC0F901EC5CFF4F0C94650920ED260FF4
:100DD0002A30D0F422E030E01CC020ED260F2A306B
:100DE00050F426E030E015C020ED260F2A3018F42C
:100DF00027E030E00EC0683739F425E030E009C064
:100E000020ED260F2A3018F020E030E002C024E068
:100E100030E030932901209328012091C203FC0186
:100E2000E20FF11D36C020ED260F2A3028F06A337C
:100E300031F040E050E005C04CE050E002C049E035
:100E400050E050932901409328012091C203FC01F6
:100E5000E20FF11D4C305105D9F41BC020ED260FD7
:100E60002A3028F06A3331F040E050E005C04DE010
:100E700050E002C049E050E050932901409328011E
:100E80002091C203FC01E20FF11D4D30510509F024
:100E900060E260832F5F2093C20322C06A3319F09F
:100EA00080E090E002C089E090E090932901809377
:100EB000280116C06B3319F080E090E002C083E097
:100EC00090E0909329018093280108C06B3311F4BE
:100ED00023E030E030932901209328011092C203CF
:100EE000809128019091290108952F923F924F926D
:100EF0005F926F927F928F929F92AF92BF92CF92AA
:100F0000DF92EF92FF920F931F93CF93DF93CDB7B2
:100F1000DEB76C970FB6F894DEBF0FBECDBF8C8FD7
:100F2000962E29013A0115010E9408068AA98823F4
:100F300019F091E4B92E02C086E4B82EA12C41E04C
:100F400069E08A2D0E941A06A39424E5A212F7CF25
:100F50008C8D813009F4C5C050F1823009F4E5C0B0
:100F6000833009F04AC160E080E00E94BF0661E082
:100F70008CE491E00E94AF064AE0BE01695E7F4FBB
:100F8000892D90E00E94A20B4AE0BE01675F7F4F6F
:100F9000882D90E00E94A20B4AE0BE016F5E7F4F59
:100FA00029A9822F90E00E94A20B64E2E1C0C70150
:100FB000B6010E944F0A4B015C0160E080E00E9494
:100FC000BF0661E08AE291E00E94AF064AE0BE01FE
:100FD0006F5F7F4FC2010E94A20B4AE0BE01635FB8
:100FE0007F4FC8010E94A20B4AE0BE016C5E7F4F9A
:100FF000C4010E94A20B20E030E040E251E4C701AE
:10100000B6010E94350B6B017C018AE0889DB0011E
:10101000899D700D112480E090E00E947E0A9B0162
:10102000AC01C701B6010E946B090E944F0A862FCE
:101030004AE0BE01665E7F4F90E00E94A20B6CE02A
:1010400082E00E94BF0661E0CE0101960E94AF06D9
:1010500065E182E00E94BF0661E0CE0144960E94F5
:10106000AF0661E088E391E00E94AF0661E0CE0147
:101070004A960E94AF066FE182E00E94BF0661E0DF
:10108000CE010D960E94AF0669E282E00E94BF0683
:1010900061E0C1010E94AF066CE082E30E94BF06DE
:1010A00061E08AE391E00E94AF0665E182E30E947D
:1010B000BF0661E08EE391E00E94AF066FE182E33C
:1010C0000E94BF0661E081E491E00E94AF0669E200
:1010D00082E30E94BF0661E087E491E00E94AF06D0
:1010E0008CC060E080E00E94BF0661E08CE491E08B
:1010F0000E94AF064AE0BE01695E7F4F892D90E0F5
:101100000E94A20B4AE0BE01675F7F4F882D90E0EE
:101110000E94A20B4AE0BE016F5E7F4F29A9822F79
:1011200090E00E94A20B6CE023C060E080E00E948F
:10113000BF0661E08CE491E00E94AF064AE0BE0188
:10114000695E7F4F892D90E00E94A20B4AE0BE01AC
:10115000675F7F4F882D90E00E94A20B4AE0BE019E
:101160006F5E7F4F29A9822F90E00E94A20B68E159
:1011700082E00E94BF0661E08AE20E9438066CE0CD
:101180008AE00E94BF0661E0CE0147960E94AF064A
:1011900068E18AE00E94BF0661E0CE0109960E94E4
:1011A000AF0664E28AE00E94BF0661E0CE0141968C
:1011B0000E94AF066CE084E20E94BF0661E088E511
:1011C00091E00E94AF0668E184E20E94BF0661E000
:1011D00081E691E00E94AF0664E284E20E94BF06CD
:1011E00061E085E691E00E94AF0668E18CE30E9431
:1011F000BF0663E08B2D0E9438060E94C4066C96E1
:101200000FB6F894DEBF0FBECDBFDF91CF911F9117
:101210000F91FF90EF90DF90CF90BF90AF909F9095
:101220008F907F906F905F904F903F902F90089598
:10123000991B79E004C0991F961708F0961B881F28
:101240007A95C9F780950895A1E21A2EAA1BBB1BB7
:10125000FD010DC0AA1FBB1FEE1FFF1FA217B30782
:10126000E407F50720F0A21BB30BE40BF50B661F98
:10127000771F881F991F1A9469F76095709580955C
:1012800090959B01AC01BD01CF010895052E97FB00
:101290001EF400940E945D0957FD07D00E942409A6
:1012A00007FC03D04EF40C945D09509540953095A1
:1012B00021953F4F4F4F5F4F0895909580957095C2
:1012C00061957F4F8F4F9F4F0895EE0FFF1F059041
:1012D000F491E02D09945058BB27AA270E94830956
:1012E0000C94F60A0E94E80A38F00E94EF0A20F0F7
:1012F00039F49F3F19F426F40C94E50A0EF4E095B6
:10130000E7FB0C94DF0AE92F0E94070B58F3BA178A
:10131000620773078407950720F079F4A6F50C940B
:10132000290B0EF4E0950B2EBA2FA02D0B01B9015D
:1013300090010C01CA01A0011124FF27591B99F04B
:10134000593F50F4503E68F11A16F040A22F232F57
:10135000342F4427585FF3CF469537952795A795A7
:10136000F0405395C9F77EF41F16BA0B620B730B4E
:10137000840BBAF09150A1F0FF0FBB1F661F771FBF
:10138000881FC2F70EC0BA0F621F731F841F48F474
:10139000879577956795B795F7959E3F08F0B0CFFD
:1013A0009395880F08F09927EE0F979587950895E4
:1013B0000E94BB0A08F481E008950E94F1090C9490
:1013C000F60A0E94EF0A58F00E94E80A40F029F459
:1013D0005F3F29F00C94DF0A51110C942A0B0C94F6
:1013E000E50A0E94070B68F39923B1F3552391F3A3
:1013F000951B550BBB27AA2762177307840738F084
:101400009F5F5F4F220F331F441FAA1FA9F335D0E0
:101410000E2E3AF0E0E832D091505040E695001C94
:10142000CAF72BD0FE2F29D0660F771F881FBB1F4E
:10143000261737074807AB07B0E809F0BB0B802D2C
:10144000BF01FF2793585F4F3AF09E3F510578F058
:101450000C94DF0A0C942A0B5F3FE4F3983ED4F31C
:10146000869577956795B795F7959F5FC9F7880F2C
:10147000911D9695879597F90895E1E0660F771F7E
:10148000881FBB1F621773078407BA0720F0621B0F
:10149000730B840BBA0BEE1F88F7E09508950E943A
:1014A0000F0B88F09F5798F0B92F9927B751B0F0DC
:1014B000E1F0660F771F881F991F1AF0BA95C9F7D8
:1014C00014C0B13091F00E94290BB1E008950C9442
:1014D000290B672F782F8827B85F39F0B93FCCF3F5
:1014E000869577956795B395D9F73EF49095809555
:1014F000709561957F4F8F4F9F4F0895E89409C075
:1015000097FB3EF490958095709561957F4F8F4F36
:101510009F4F9923A9F0F92F96E9BB279395F6954C
:10152000879577956795B795F111F8CFFAF4BB0FCA
:1015300011F460FF1BC06F5F7F4F8F4F9F4F16C02E
:10154000882311F096E911C0772321F09EE8872FB8
:10155000762F05C0662371F096E8862F70E060E074
:101560002AF09A95660F771F881FDAF7880F9695ED
:10157000879597F90895990F0008550FAA0BE0E891
:10158000FEEF16161706E807F907C0F01216130645
:10159000E407F50798F0621B730B840B950B39F485
:1015A0000A2661F0232B242B252B21F408950A26EB
:1015B00009F4A140A6958FEF811D811D089597F92B
:1015C0009F6780E870E060E008959FEF80EC0895E9
:1015D00000240A9416161706180609060895002412
:1015E0000A9412161306140605060895092E03948C
:1015F000000C11F4882352F0BB0F40F4BF2B11F400
:1016000060FF04C06F5F7F4F8F4F9F4F089557FD5E
:101610009058440F551F59F05F3F71F04795880F60
:1016200097FB991F61F09F3F79F0879508951216F7
:1016300013061406551FF2CF4695F1DF08C01616A3
:1016400017061806991FF1CF869571056105089454
:101650000895E894BB2766277727CB0197F908956B
:101660000E94BB0A08F48FEF08950E94480B0C9467
:10167000F60A0E94E80A38F00E94EF0A20F095234B
:1016800011F00C94DF0A0C94E50A11240C942A0B37
:101690000E94070B70F3959FC1F3950F50E0551F03
:1016A000629FF001729FBB27F00DB11D639FAA27B7
:1016B000F00DB11DAA1F649F6627B00DA11D661F06
:1016C000829F2227B00DA11D621F739FB00DA11D27
:1016D000621F839FA00D611D221F749F3327A00DE1
:1016E000611D231F849F600D211D822F762F6A2F7D
:1016F00011249F5750409AF0F1F088234AF0EE0FE2
:10170000FF1FBB1F661F771F881F91505040A9F70E
:101710009E3F510580F00C94DF0A0C942A0B5F3F2A
:10172000E4F3983ED4F3869577956795B795F7954A
:10173000E7959F5FC1F7FE2B880F911D96958795C2
:1017400097F90895BB274A3031F4992322F4BDE27A
:10175000909581959F4F0C94AE0BBB27FB015527AD
:10176000AA27880F991FAA1FA41710F0A41B8395FE
:101770005051B9F7A05DAA3308F0A95DA193009775
:1017800079F7B111B1931192CB010C94C70BDC0125
:10179000FC01672F71917723E1F7329704C07C91A8
:1017A0006D9370836291AE17BF07C8F30895F894E4
:0217B000FFCF69
:1017B2001400000020202020202020004552524FFB
:1017C2002120200020202020202020000000204175
:1017D2003C0000000C0A0C000100204461646F739D
:1017E20020766974616973002E0062706D006F4328
:1017F200002553704F32006D6D48670020506172B2
:10180200616D6574726F7300726573702F6D696EAE
:0A18120000254F3200766F6C0000D5
:00000001FF
