:100000000C9424010C9441010C9441010C94410185
:100010000C9441010C94CA030C9441010C944101CD
:100020000C9441010C9441010C9441010C94410148
:100030000C9441010C9441010C9474030C94410103
:100040000C9441010C9441010C9441010C94410128
:100050000C9441010C9441010C9441010C94410118
:100060000C9441010C944101000000000000005F6D
:1000700000000007000700147F147F14242A7F2A41
:10008000122313086462364955225000050300000C
:10009000001C2241000041221C0014083E081408E4
:1000A000083E0808005030000008080808080060F2
:1000B00060000020100804023E5149453E00427F86
:1000C000400042615149462141454B311814127F8D
:1000D0001027454545393C4A494930017109050316
:1000E0003649494936064949291E0036360000007E
:1000F0005636000008142241001414141414004150
:100100002214080201510906324979413E7E11113B
:10011000117E7F494949363E414141227F4141227A
:100120001C7F494949417F090909013E4149497AF2
:100130007F0808087F00417F41002040413F017F48
:10014000081422417F404040407F020C027F7F0420
:1001500008107F3E4141413E7F090909063E415159
:10016000215E7F09192946464949493101017F012C
:10017000013F4040403F1F2040201F3F4038403F4C
:100180006314081463070870080761514945430068
:100190007F41410002040810200041417F00040219
:1001A0000102044040404040000102040020545439
:1001B00054787F48444438384444442038444448C0
:1001C0007F3854545418087E0901020C5252523E92
:1001D0007F0804047800447D40002040443D007FB7
:1001E0001028440000417F40007C041804787C08FB
:1001F00004047838444444387C1414140808141453
:10020000187C7C080404084854545420043F44409B
:10021000203C4040207C1C2040201C3C4030403C86
:1002200044281028440C5050503C4464544C440022
:100230000836410000007F00000041360800100829
:10024000081008000000000011241FBECFEFD8E006
:10025000DEBFCDBF11E0A0E0B1E0E8E4F9E002C00C
:1002600005900D92AE30B107D9F723E0AEE0B1E0D2
:1002700001C01D92A435B207E1F70E94FB030C9464
:10028000A2040C94000090910F0180910E0198300F
:1002900040F4880F8F5F80930E019F5F90930F0152
:1002A00007C0869580930E01811102C010920F0144
:1002B00080910E0108954198662311F0439A01C080
:1002C000439827E030E090E0AC01022E02C0559543
:1002D00047950A94E2F740FF02C0449A01C044984F
:1002E000459A45982150310978F7419A089560E080
:1002F0000C945B01CF93DF93399A3A9A3B9A3C9ADC
:100300003D9A429A419A83EC99E00197F1F700C037
:10031000000042988BE594E40197F1F700C00000DB
:10032000429A419881E20E94770183E10E9477011D
:1003300086E00E94770182EC0E94770180E20E94B1
:10034000770189E00E94770180E80E94770180E4CC
:100350000E947701C8EFD1E061E080E00E945B017C
:100360002197D1F788E00E9477018CE0DF91CF914F
:100370000C94770180E80E94770180E40E94770165
:100380001092500310925103E8E5F1E0119283E0DE
:10039000E035F807D9F70895962F96959695969596
:1003A000E82FF0E084E5989FE00DF11D1124E85A54
:1003B000FE4F677081E090E001C0880F6A95EAF710
:1003C000442319F09081892B03C080959081892363
:1003D00080830895BF92CF92DF92EF92FF920F93A6
:1003E0001F93CF93DF93D62E95E0699FE0011124F0
:1003F00097E0699F80011124B12C082E000C990B05
:10040000809725E0289F7001299FF00C11248B2DE7
:1004100090E08C179D0754F5C12C8C2D90E080172F
:10042000910714F58B2D6D2D0E942004F701E80F24
:10043000F11DE859FF4FE491F0E08C2D0E9420045B
:1004400002C0F595E7958A95E2F760915103809196
:1004500050036C0DE0FF02C041E001C040E08B0D95
:100460000E94CC01C394D9CFB394D1CF80915003D3
:1004700091E0980F8D2D880F880F8D0D890F843591
:1004800018F4809350030BC01092500380915103D5
:100490008F5F97E0D99E800D112480935103809146
:1004A0005103803320F01092500310925103DF91DA
:1004B000CF911F910F91FF90EF90DF90CF90BF9061
:1004C00008951F93CF93DF93162FEC018991882312
:1004D00021F0612F0E94EA01F9CFDF91CF911F91A6
:1004E000089580935003609351030895CF93DF9351
:1004F00080E80E94770180E40E947701C8E5D1E09E
:1005000061E089910E945B0183E0C035D807C1F7A3
:10051000DF91CF910895DC01AA5BBF4F2C9121118F
:100520000AC02091100131E0320F30931001FC011C
:10053000E20FF11D06C0FC0181818193EA17FB07E0
:10054000D9F760830895DF92EF92FF920F931F9384
:10055000CF93DF9300D000D000D0CDB7DEB7082F07
:100560007B01D42E0E94BA01ECEFF2E024EB32E0E2
:100570008291806480832E173F07D1F715E241E016
:10058000612F8CE00E94CC0111501530C1F7109200
:100590005003109251034AE0BE016F5F7F4F8D2DD3
:1005A00090E00E946D0461E0CE0101960E9461021C
:1005B00086E0809350038EE18093510361E082E0F6
:1005C00091E00E9461024AE0BE016C5F7F4F802F84
:1005D00090E00E946D048AE0809350030A3070F42A
:1005E00018E21093510361E082E091E00E94610201
:1005F00080E1809350031093510303C088E28093FD
:10060000510361E0CE0104960E94610261E0C701DE
:100610000E946102602F81E191E00E948B0288E5D7
:10062000E82E81E0F82E13E506E2F70182917F01C2
:10063000602F681B41E0812F0E94CC0111501C30BB
:10064000A1F726960FB6F894DEBF0FBECDBFDF919F
:10065000CF911F910F91FF90EF90DF9008950F932E
:100660001F93CF93DF9300D01F92CDB7DEB7082F33
:10067000162F0E94BA014EE164E071E0812F0E94C2
:10068000A302011127C00E94BA016EE083E20E941A
:10069000710261E084E091E00E9461024AE0BE01E3
:1006A0006F5F7F4F812F90E00E946D0460E080E0DB
:1006B0001A3048F40E94710263E082E091E00E94E7
:1006C000610260E080E10E94710263E0CE01019668
:1006D0000E9461020E9476020F900F900F90DF91AE
:1006E000CF911F910F9108951F920F920FB60F9205
:1006F0001124CF92DF92EF92FF922F933F934F936B
:100700005F936F937F938F939F93AF93BF93EF9379
:10071000FF9380915203909153030196909353035A
:1007200080935203C0905203D09053032091010153
:10073000E12CF12C80E1289F90011124032E000C64
:10074000440B550B60E67AEE80E090E00E942C04AA
:10075000C701B6010E942C04672B682B692B29F472
:10076000809101010E94430185B9FF91EF91BF91F2
:10077000AF919F918F917F916F915F914F913F9139
:100780002F91FF90EF90DF90CF900F900FBE0F90C2
:100790001F9018951F920F920FB60F9211248F93EE
:1007A0009F93489904C0809101018F5F05C04999CA
:1007B00006C08091010181508093010108C04F99CA
:1007C00006C09091000181E089278093000180910B
:1007D0000101853010F485E005C0809101018F3161
:1007E00018F08EE1809301019F918F910F900FBEC1
:1007F0000F901F9018950E947A010E94BA0184B14F
:100800008FEF84B98AB18C678AB98BB183688BB951
:1008100085B185B984E08093680083E880936D009A
:1008200082E084BD93E095BD99EF97BD80936E0003
:10083000789460910101809100010E942F03F9CF0B
:10084000991B79E004C0991F961708F0961B881F22
:100850007A95C9F780950895052E97FB1EF40094AC
:100860000E94430457FD07D00E944B0407FC03D0AD
:100870004EF40C94430450954095309521953F4F8C
:100880004F4F5F4F089590958095709561957F4F7C
:100890008F4F9F4F0895A1E21A2EAA1BBB1BFD018B
:1008A0000DC0AA1FBB1FEE1FFF1FA217B307E4074F
:1008B000F50720F0A21BB30BE40BF50B661F771FA7
:1008C000881F991F1A9469F7609570958095909587
:1008D0009B01AC01BD01CF010895BB274A3031F423
:1008E000992322F4BDE2909581959F4F0C94790451
:1008F000BB27FB015527AA27880F991FAA1FA417FA
:1009000010F0A41B83955051B9F7A05DAA3308F0ED
:10091000A95DA193009779F7B111B1931192CB0121
:100920000C949204DC01FC01672F71917723E1F7AD
:10093000329704C07C916D9370836291AE17BF07AC
:08094000C8F30895F894FFCFFD
:0E094800010C3000726573702F6D696E000037
:00000001FF
