:100000000C9437010C9454010C9454010C94460543
:100010000C9454010C94FF030C9454010C94510360
:100020000C9454010C9454010C94C7040C94540186
:100030000C9454010C9454010C9454010C945401EC
:100040000C9454010C9454010C9479040C945401B4
:100050000C9454010C9404020C9454010C9454011B
:100060000C9454010C9454018B077F0712070B0763
:10007000380725071907200795077F079507950774
:1000800053077307000000000000005F0000000736
:10009000000700147F147F14242A7F2A12231308D8
:1000A000646236495522500005030000001C2241BD
:1000B000000041221C0014083E081408083E0808ED
:1000C00000503000000808080808006060000020A8
:1000D000100804023E5149453E00427F4000426103
:1000E0005149462141454B311814127F102745458F
:1000F00045393C4A494930017109050336494949A6
:1001000036064949291E00363600000056360000E2
:10011000081422410014141414140041221408027B
:1001200001510906324979413E7E1111117E7F4904
:100130004949363E414141227F4141221C7F494984
:1001400049417F090909013E4149497A7F08080868
:100150007F00417F41002040413F017F0814224140
:100160007F404040407F020C027F7F0408107F3EAA
:100170004141413E7F090909063E4151215E7F0907
:10018000192946464949493101017F01013F404053
:10019000403F1F2040201F3F4038403F6314081459
:1001A0006307087008076151494543007F414100DA
:1001B00002040810200041417F00040201020440B3
:1001C00040404040000102040020545454787F48CD
:1001D0004444383844444420384444487F385454D4
:1001E0005418087E0901020C5252523E7F08040442
:1001F0007800447D40002040443D007F10284400AA
:1002000000417F40007C041804787C08040478389E
:10021000444444387C14141408081414187C7C08D2
:100220000404084854545420043F4440203C4040B7
:10023000207C1C2040201C3C4030403C442810289E
:10024000440C5050503C4464544C44000836410027
:1002500000007F0000004136080010080810080068
:10026000000000002040FF40200402FF020411248F
:100270001FBECFEFD8E0DEBFCDBF11E0A0E0B1E000
:10028000ECEEF7E102C005900D92AA36B107D9F75E
:1002900023E0AAE6B1E001C01D92A33CB207E1F75A
:1002A0000E9456010C94F40B0C9400000E94660509
:1002B0000E9472050E9496050E9486050E94A20572
:1002C0000E94EC050E942F06C0E0D4E680917401E4
:1002D000882309F477C0E09176017091250187B4F5
:1002E000C0901C01D0901D01E0901E01F0901F01F4
:1002F00000917D0110917E0120912001309121011A
:100300004091220150912301609124018091730159
:10031000880C982D990F990F980DF8E88F2E890E5B
:10032000EF937F93A4E1AA2EA1E0BA2E0E949A0730
:100330000F900F90C130B9F080F0C23011F1C3308E
:1003400041F58091200190912101A0912201B0916D
:1003500023018093C600C4E033C0809124018093C0
:10036000C600C1E02DC060911C0170911D018091FB
:100370001E0190911F010E946C0A6093C600C2E0AA
:100380001FC080917D0190917E018093C600C3E0E3
:1003900017C080E090E02091C00025FFFCCFFC0159
:1003A000EC5EFE4F20812093C600019688309105B7
:1003B00091F78091C00085FFFCCFD093C600C0E0CC
:1003C0001092740180917801882309F47FCF809185
:1003D0007501882309F47ACF80917601811176CF57
:1003E00060912501809124010E94AE0588BD109284
:1003F000750180917201811169CF88B58D3010F43B
:100400002E9A64CF2E9862CF1F920F920FB60F9242
:1004100011242F933F934F935F936F937F938F9309
:100420009F93AF93BF93EF93FF9380917A00877F61
:1004300080937A0080917C0082FD1DC080917C00B9
:1004400081FD19C080917C0080FD15C0609178000D
:100450007091790080E090E00E949B0A2DE637EED3
:100460004BEF5DE30E94520B0E946C0A70937E0179
:1004700060937D019CC080917C0082FD21C08091B1
:100480007C0081FD1DC080917C0080FF19C06091BF
:1004900078007091790063537F4F80E090E00E9474
:1004A0009B0A24E13EEA43EA51E40E94FA09609380
:1004B0001C0170931D0180931E0190931F0177C052
:1004C00080917C0082FD73C080917C0081FF6FC0B1
:1004D00080917C0080FD6BC08091780090917900C4
:1004E000813921E0920709F451C098F4883A9105C6
:1004F00009F1843521E0920709F450C08D39910546
:1005000009F055C09091760181E0892780937601AA
:100510004EC0833A22E0920711F120F48B369240CC
:1005200071F145C0843523E0920719F1803C934076
:1005300071F03DC080917301811106C080917301FB
:100540008F5F8093730133C01092730130C080912C
:100550002401863060F180912401815007C0809190
:1005600024018E3120F5809124018F5F8093240136
:100570001EC087B58D30D8F087B5815005C087B5CE
:100580008631A8F487B58F5F87BD11C080912501A2
:10059000823068F080912501815007C0809125014B
:1005A0008A3028F4809125018F5F80932501809106
:1005B0007D0190917E01CC97C8F160911C017091F2
:1005C0001D0180911E0190911F0120E030E04CE060
:1005D00052E40E94F50987FD29C060911C017091C9
:1005E0001D0180911E0190911F0120E030E040E24A
:1005F00052E40E944D0B1816CCF08091200190918E
:100600002101A0912201B0912301C297A105B1055A
:1006100068F08091200190912101A0912201B09178
:1006200023018D389105A105B105D8F081E08093B3
:1006300072016091790170917A0180917B019091B2
:100640007C012CE231E040E050E00E944109672B40
:10065000682B692B21F49BB188E089278BB92E9AEE
:1006600002C01092720180917C0081FD04C08091D3
:100670007C008F5F03C080917C00825080937C005F
:10068000FF91EF91BF91AF919F918F917F916F916A
:100690005F914F913F912F910F900FBE0F901F9040
:1006A00018951F920F920FB60F921124CF92DF92DE
:1006B000EF92FF922F933F934F935F936F937F93AC
:1006C0008F939F93AF93BF93EF93FF9380917901A3
:1006D00090917A01A0917B01B0917C010196A11DBE
:1006E000B11D8093790190937A01A0937B01B0931F
:1006F0007C0180917601811129C0C0907901D09050
:100700007A01E0907B01F0907C018091240140917E
:10071000250190E0880F991F489F9001499F300D57
:100720001124032E000C440B550B60E67AEE80E09A
:1007300090E00E946309C701B6010E944109672B3E
:10074000682B692B19F481E0809375016091790120
:1007500070917A0180917B0190917C0122E330E0DD
:1007600040E050E00E944109672B682B692B29F477
:1007700080917A00886080937A006091790170910D
:100780007A0180917B0190917C0128EC30E040E07F
:1007900050E00E944109672B682B692B19F481E016
:1007A000809374016091790170917A0180917B014D
:1007B00090917C0124E630E040E050E00E94410945
:1007C000672B682B692B31F45A9A85E38A95F1F7E8
:1007D00000005A98FF91EF91BF91AF919F918F9137
:1007E0007F916F915F914F913F912F91FF90EF908B
:1007F000DF90CF900F900FBE0F901F9018951F9213
:100800000F920FB60F9211242F933F934F935F9344
:100810006F937F938F939F93AF93BF93EF93FF93C8
:100820004F9B11C08091790190917A01A0917B0139
:10083000B0917C0180936E0190936F01A093700141
:10084000B093710145C04F9943C080917901909157
:100850007A01A0917B01B0917C0140916E01509191
:100860006F016091700170917101481759076A0713
:100870007B0770F58091790190917A01A0917B01BD
:10088000B0917C01841B950BA60BB70B880F991FA9
:10089000AA1FBB1F8093200190932101A0932201E6
:1008A000B093230120912001309121014091220138
:1008B0005091230160E67AEE80E090E00E944109C9
:1008C0002093200130932101409322015093230172
:1008D000FF91EF91BF91AF919F918F917F916F9118
:1008E0005F914F913F912F910F900FBE0F901F90EE
:1008F00018951F920F920FB60F9211242F933F93CA
:100900004F935F936F937F938F939F93AF93BF9317
:10091000EF93FF936091C60084E091E00E94FE0691
:10092000009799F4E4E0F1E080E090E020E2DC015F
:10093000A45FBE4F3C91DC01AC5EBE4F3C93219363
:1009400001968830910599F711C0099779F4E4E090
:10095000F1E080E090E020E23081DC01AC5EBE4F4F
:100960003C932193019687309105B1F7FF91EF9168
:10097000BF91AF919F918F917F916F915F914F91B7
:100980003F912F910F900FBE0F901F9018951F92BF
:100990000F920FB60F9211240F931F932F933F9333
:1009A0004F935F936F937F938F939F93AF93BF9377
:1009B000EF93FF939091810080E4892780938100D9
:1009C0008091810086FD0FC0809186009091870004
:1009D000A0E0B0E080936A0190936B01A0936C015A
:1009E000B0936D012EC08091860090918700009198
:1009F0006A0110916B0120916C0130916D01A0E0B2
:100A0000B0E0081719072A073B07D8F46091860061
:100A100070918700CB01A0E0B0E0BC01CD01601B6C
:100A2000710B820B930B24E730E040E050E00E9412
:100A3000410920930001309301014093020150933A
:100A400003018091000190910101A0910201B091F8
:100A500003010597A105B10520F481E08093780199
:100A600002C010927801FF91EF91BF91AF919F91D9
:100A70008F917F916F915F914F913F912F911F9136
:100A80000F910F900FBE0F901F9018951F920F920D
:100A90000FB60F9211248F939F939BB188E0892703
:100AA0008BB980917601813051F41F9B04C08091F5
:100AB0002501845F03C01F9902C08CE088BD9F910F
:100AC0008F910F900FBE0F901F90189587B187B927
:100AD00084B18E6784B98AB18F668AB98BB18BB9BC
:100AE000289A089582E08093B00084E08093B1005A
:100AF00089EF8093B30082E48093810083EA84BD10
:100B000087E085BD8CE087BD88BD089585E0809332
:100B1000680080E880936B0080936D0080E2809392
:100B20006F0082E0809370007894089581E4809350
:100B30007C0087EE80937A0010927B0088E380939C
:100B40007E00089588E98093C10086E08093C2000A
:100B50001092C50087E68093C400089520917F011C
:100B60008091260190912701261748F401969093D1
:100B70002701809326012F5F20937F0109C00197F1
:100B800090932701809326010C9711F410927F0116
:100B9000809126019091270108952D98662311F0E8
:100BA0002A9A01C02A9827E030E090E0AC01022E9A
:100BB00002C0559547950A94E2F740FF02C02B9A70
:100BC00001C02B982C9A2C982150310978F72D9A36
:100BD000089560E00C94CD05CF93DF93259A219A78
:100BE000229A239A249A299A2D9A8FE39CE90197B5
:100BF000F1F700C0000029989FEF2AE683E09150AA
:100C000020408040E1F700C00000299A2D9881E241
:100C10000E94E90583E10E94E90586E00E94E9055A
:100C200082EC0E94E90580E20E94E90589E00E94C9
:100C3000E90580E80E94E90580E40E94E905C8EF23
:100C4000D1E061E080E00E94CD052197D1F788E0F6
:100C50000E94E9058CE0DF91CF910C94E90580E8D2
:100C60000E94E90580E40E94E9051092C0031092F9
:100C7000C103E8ECF1E0119283E0E03CF807D9F71A
:100C80000895962F969596959695E82FF0E084E531
:100C9000989FE00DF11D1124E853FE4F677081E02D
:100CA00090E001C0880F6A95EAF7442319F090811B
:100CB000892B03C080959081892380830895BF92FA
:100CC000CF92DF92EF92FF920F931F93CF93DF9318
:100CD000D62E95E0699FE001112497E0699F80017D
:100CE0001124B12C90E0809725E0289F7001299F66
:100CF000F00C11248B2D90E08C179D0754F5C12C1E
:100D00008C2D90E08017910714F58B2D6D2D0E948E
:100D10003509F701E80FF11DEC57FF4FE491F0E0C2
:100D20008C2D0E94350902C0F595E7958A95E2F76A
:100D30006091C1038091C0036C0DE0FF02C041E0EF
:100D400001C040E08B0D0E944106C394D9CFB394FB
:100D5000D1CF8091C00391E0980F8D2D880F880F1F
:100D60008D0D890F843518F48093C0030BC0109249
:100D7000C0038091C1038F5F97E0D99E800D11243D
:100D80008093C1038091C103803320F01092C0038F
:100D90001092C103DF91CF911F910F91FF90EF90BF
:100DA000DF90CF90BF9008951F93CF93DF93162FBE
:100DB000EC018991882321F0612F0E945F06F9CF11
:100DC000DF91CF911F9108958093C0036093C10379
:100DD0000895CF93DF9380E80E94E90580E40E94A4
:100DE000E905C8ECD1E061E089910E94CD0583E07E
:100DF000C03CD807C1F7DF91CF9108952091280119
:100E0000309129012E30310508F08FC0F901EC5CDA
:100E1000FF4F0C94820920ED260F2A30D0F422E0F7
:100E200030E01CC020ED260F2A3050F426E030E0E0
:100E300015C020ED260F2A3018F427E030E00EC050
:100E4000683739F425E030E009C020ED260F2A305C
:100E500018F020E030E002C024E030E030932901B7
:100E6000209328012091C203FC01E20FF11D36C03E
:100E700020ED260F2A3028F06A3331F040E050E0B0
:100E800005C04CE050E002C049E050E05093290119
:100E9000409328012091C203FC01E20FF11D4C3068
:100EA0005105D9F41BC020ED260F2A3028F06A33F3
:100EB00031F040E050E005C04DE050E002C049E0B4
:100EC00050E050932901409328012091C203FC0176
:100ED000E20FF11D4D30510509F060E260832F5F94
:100EE0002093C20322C06A3319F080E090E002C070
:100EF00089E090E0909329018093280116C06B331C
:100F000019F080E090E002C083E090E09093290126
:100F10008093280108C06B3311F423E030E0309354
:100F20002901209328011092C203809128019091F9
:100F3000290108952F923F924F925F926F927F9274
:100F40008F929F92AF92BF92CF92DF92EF92FF92D9
:100F50000F931F93CF93DF93CDB7DEB76C970FB688
:100F6000F894DEBF0FBECDBF982E6C8F29013A01D9
:100F700015010E942F068AA9882319F091E4A92E51
:100F800002C086E4A82EB12C41E069E08B2D0E94BE
:100F90004106B39424E5B212F7CF992009F468C052
:100FA00081E0981247C160E080E00E94E40661E0C1
:100FB0008CE491E00E94D4064AE0BE01695E7F4F56
:100FC0002C8D822F90E00E94BF0B4AE0BE01675F2C
:100FD0007F4F882D90E00E94BF0B4AE0BE016F5EFC
:100FE0007F4F89A990E00E94BF0B6CE082E00E94D5
:100FF000E4066CE08AE00E94E40661E0CE014796D8
:101000000E94D40668E18AE00E94E40661E0CE0115
:1010100009960E94D40664E28AE00E94E40661E038
:10102000CE0141960E94D4066CE084E20E94E40660
:1010300061E088E591E00E94D40668E184E20E94C4
:10104000E40661E081E691E00E94D40664E284E275
:101050000E94E40661E085E691E00E94D40668E122
:101060008CE30E94E40663E08A2D0E945F06E2C0E2
:1010700022E3421651046104710438F46CE088E202
:101080000E94E40661E080E80CC08DE84816510437
:101090006104710440F06CE088E20E94E40661E0C3
:1010A00081E80E945F060C33110540F46FE188E28D
:1010B0000E94E40661E080E80E945F0620E030E0E4
:1010C0004CE052E4C701B6010E94F50987FF07C052
:1010D00065E188E20E94E40661E080E810C020E05B
:1010E00030E040E252E4C701B6010E944D0B1816F1
:1010F00044F465E188E20E94E40661E081E80E9430
:101100005F06C701B6010E946C0A4B015C0160E0FA
:1011100080E00E94E40661E08AE291E00E94D40649
:101120004AE0BE016F5F7F4FC2010E94BF0B4AE0E1
:10113000BE01635F7F4FC8010E94BF0B4AE0BE0142
:101140006C5E7F4FC4010E94BF0B20E030E040E2A4
:1011500051E4C701B6010E94520B6B017C018AE089
:10116000889DB001899D700D112480E090E00E945F
:101170009B0A9B01AC01C701B6010E9488090E942D
:101180006C0A862F4AE0BE01665E7F4F90E00E94A7
:10119000BF0B6CE082E00E94E40661E0CE010196A4
:1011A0000E94D40665E182E00E94E40661E0CE017F
:1011B00044960E94D40661E088E391E00E94D40640
:1011C00061E0CE014A960E94D4066FE182E00E945F
:1011D000E40661E0CE010D960E94D40669E282E049
:1011E0000E94E40661E0C1010E94D4066CE082E343
:1011F0000E94E40661E08AE391E00E94D40665E182
:1012000082E30E94E40661E08EE391E00E94D4064E
:101210006FE182E30E94E40661E081E491E00E94D4
:10122000D40669E282E30E94E40661E087E491E08B
:101230000E94D4060E94E9066C960FB6F894DEBFB1
:101240000FBECDBFDF91CF911F910F91FF90EF9017
:10125000DF90CF90BF90AF909F908F907F906F90D6
:101260005F904F903F902F900895991B79E004C0B4
:10127000991F961708F0961B881F7A95C9F78095D5
:101280000895A1E21A2EAA1BBB1BFD010DC0AA1FC7
:10129000BB1FEE1FFF1FA217B307E407F50720F0DF
:1012A000A21BB30BE40BF50B661F771F881F991F5A
:1012B0001A9469F760957095809590959B01AC01A3
:1012C000BD01CF010895052E97FB1EF400940E94E6
:1012D0007A0957FD07D00E94410907FC03D04EF45C
:1012E0000C947A0950954095309521953F4F4F4F7A
:1012F0005F4F089590958095709561957F4F8F4FC2
:101300009F4F0895EE0FFF1F0590F491E02D099473
:101310005058BB27AA270E94A0090C94130B0E94C7
:10132000050B38F00E940C0B20F039F49F3F19F4A4
:1013300026F40C94020B0EF4E095E7FB0C94FC0AE7
:10134000E92F0E94240B58F3BA176207730784072A
:10135000950720F079F4A6F50C94460B0EF4E09571
:101360000B2EBA2FA02D0B01B90190010C01CA015F
:10137000A0011124FF27591B99F0593F50F4503E0A
:1013800068F11A16F040A22F232F342F4427585FFC
:10139000F3CF469537952795A795F0405395C9F714
:1013A0007EF41F16BA0B620B730B840BBAF09150CC
:1013B000A1F0FF0FBB1F661F771F881FC2F70EC06B
:1013C000BA0F621F731F841F48F48795779567953E
:1013D000B795F7959E3F08F0B0CF9395880F08F02A
:1013E0009927EE0F9795879508950E94D80A08F4DB
:1013F00081E008950E940E0A0C94130B0E940C0BBE
:1014000058F00E94050B40F029F45F3F29F00C943E
:10141000FC0A51110C94470B0C94020B0E94240BF4
:1014200068F39923B1F3552391F3951B550BBB2713
:10143000AA2762177307840738F09F5F5F4F220F58
:10144000331F441FAA1FA9F335D00E2E3AF0E0E84F
:1014500032D091505040E695001CCAF72BD0FE2F99
:1014600029D0660F771F881FBB1F2617370748072D
:10147000AB07B0E809F0BB0B802DBF01FF279358E5
:101480005F4F3AF09E3F510578F00C94FC0A0C94A3
:10149000470B5F3FE4F3983ED4F3869577956795C5
:1014A000B795F7959F5FC9F7880F911D969587951A
:1014B00097F90895E1E0660F771F881FBB1F621739
:1014C00073078407BA0720F0621B730B840BBA0BF7
:1014D000EE1F88F7E09508950E942C0B88F09F5727
:1014E00098F0B92F9927B751B0F0E1F0660F771F48
:1014F000881F991F1AF0BA95C9F714C0B13091F03E
:101500000E94460BB1E008950C94460B672F782F8C
:101510008827B85F39F0B93FCCF386957795679502
:10152000B395D9F73EF490958095709561957F4F6E
:101530008F4F9F4F0895E89409C097FB3EF4909514
:101540008095709561957F4F8F4F9F4F9923A9F09C
:10155000F92F96E9BB279395F6958795779567952B
:10156000B795F111F8CFFAF4BB0F11F460FF1BC06F
:101570006F5F7F4F8F4F9F4F16C0882311F096E902
:1015800011C0772321F09EE8872F762F05C06623B0
:1015900071F096E8862F70E060E02AF09A95660F69
:1015A000771F881FDAF7880F9695879597F9089522
:1015B000990F0008550FAA0BE0E8FEEF1616170664
:1015C000E807F907C0F012161306E407F50798F0CC
:1015D000621B730B840B950B39F40A2661F0232BE5
:1015E000242B252B21F408950A2609F4A140A69561
:1015F0008FEF811D811D089597F99F6780E870E046
:1016000060E008959FEF80EC089500240A94161678
:10161000170618060906089500240A9412161306E0
:10162000140605060895092E0394000C11F488236E
:1016300052F0BB0F40F4BF2B11F460FF04C06F5F8A
:101640007F4F8F4F9F4F089557FD9058440F551F60
:1016500059F05F3F71F04795880F97FB991F61F034
:101660009F3F79F087950895121613061406551FAB
:10167000F2CF4695F1DF08C0161617061806991F17
:10168000F1CF86957105610508940895E894BB270C
:1016900066277727CB0197F908950E94D80A08F4A6
:1016A0008FEF08950E94650B0C94130B0E94050B9D
:1016B00038F00E940C0B20F0952311F00C94FC0ADA
:1016C0000C94020B11240C94470B0E94240B70F312
:1016D000959FC1F3950F50E0551F629FF001729FD7
:1016E000BB27F00DB11D639FAA27F00DB11DAA1FE6
:1016F000649F6627B00DA11D661F829F2227B00D33
:10170000A11D621F739FB00DA11D621F839FA00DBD
:10171000611D221F749F3327A00D611D231F849F0D
:10172000600D211D822F762F6A2F11249F57504064
:101730009AF0F1F088234AF0EE0FFF1FBB1F661FDF
:10174000771F881F91505040A9F79E3F510580F0A8
:101750000C94FC0A0C94470B5F3FE4F3983ED4F3DF
:10176000869577956795B795F795E7959F5FC1F74C
:10177000FE2B880F911D9695879597F90895BB27A5
:101780004A3031F4992322F4BDE2909581959F4F20
:101790000C94CB0BBB27FB015527AA27880F991F59
:1017A000AA1FA41710F0A41B83955051B9F7A05D90
:1017B000AA3308F0A95DA193009779F7B111B1930D
:1017C0001192CB010C94E40BDC01FC01672F7191A9
:1017D0007723E1F7329704C07C916D937083629117
:0C17E000AE17BF07C8F30895F894FFCFC0
:1017EC001400000020202020202020004552524FC1
:1017FC00212020002020202020202000000020413B
:10180C003C0000000C0A0C000100204461646F7362
:10181C0020766974616973002E0062706D006F43ED
:10182C00002553704F32006D6D4867002050617277
:10183C00616D6574726F7300726573702F6D696E74
:0A184C0000254F3200766F6C00009B
:00000001FF
