:100000000C9432010C943C070C9451070C944F0152
:100010000C944F010C9466070C944F010C944F0103
:100020000C944F010C944F010C9444060C944F0116
:100030000C944F010C944F010C94AB060C944F019F
:100040000C944F010C944F010C947C070C944F01BD
:100050000C944F010C94B2050C944F010C944F0179
:100060000C944F010C944F01100504059704900463
:10007000BD04AA049E04A5041A0504051A051A0560
:10008000D804F804000000000000005F0000000732
:10009000000700147F147F14242A7F2A12231308D8
:1000A000646236495522500005030000001C2241BD
:1000B000000041221C0014083E081408083E0808ED
:1000C00000503000000808080808006060000020A8
:1000D000100804023E5149453E00427F4000426103
:1000E0005149462141454B311814127F102745458F
:1000F00045393C4A494930017109050336494949A6
:1001000036064949291E00363600000056360000E2
:10011000081422410014141414140041221408027B
:1001200001510906324979413E7E1111117E7F4904
:100130004949363E414141227F4141221C7F494984
:1001400049417F090909013E4149497A7F08080868
:100150007F00417F41002040413F017F0814224140
:100160007F404040407F020C027F7F0408107F3EAA
:100170004141413E7F090909063E4151215E7F0907
:10018000192946464949493101017F01013F404053
:10019000403F1F2040201F3F4038403F6314081459
:1001A0006307087008076151494543007F414100DA
:1001B00002040810200041417F00040201020440B3
:1001C00040404040000102040020545454787F48CD
:1001D0004444383844444420384444487F385454D4
:1001E0005418087E0901020C5252523E7F08040442
:1001F0007800447D40002040443D007F10284400AA
:1002000000417F40007C041804787C08040478389E
:10021000444444387C14141408081414187C7C08D2
:100220000404084854545420043F4440203C4040B7
:10023000207C1C2040201C3C4030403C442810289E
:10024000440C5050503C4464544C44000836410027
:1002500000007F0000004136080010080810080068
:100260000000000011241FBECFEFD8E0DEBFCDBFDD
:1002700011E0A0E0B1E0E6E1F5E102C005900D92E9
:10028000AA34B107D9F723E0AAE4B1E001C01D9276
:10029000A839B207E1F70E942F050C94890A0C9443
:1002A000000090914B0180914A01983040F4880FF2
:1002B0008F5F80934A019F5F90934B0107C08695A3
:1002C00080934A01811102C010924B0180914A0132
:1002D00008954298662311F0449A01C0449827E09B
:1002E00030E090E0AC01022E02C0559547950A948B
:1002F000E2F740FF02C0459A01C04598469A4698E9
:100300002150310978F7429A089560E00C94690110
:10031000CF93DF933A9A3B9A3C9A3D9A3E9A439AFE
:10032000429A8FE39CE90197F1F700C000004398DF
:100330009FEF2AE683E0915020408040E1F700C023
:100340000000439A429881E20E94850183E10E9465
:10035000850186E00E94850182EC0E94850180E291
:100360000E94850189E00E94850180E80E94850144
:1003700080E40E948501C8EFD1E061E080E00E9446
:1003800069012197D1F788E00E9485018CE0DF9117
:10039000CF910C94850180E80E94850180E40E9441
:1003A000850110928C0310928D03E4E9F1E0119223
:1003B00083E0EC38F807D9F70895962F969596952F
:1003C0009695E82FF0E084E5989FE00DF11D11244B
:1003D000EC56FE4F677081E090E001C0880F6A958F
:1003E000EAF7442319F09081892B03C0809590810E
:1003F000892380830895BF92CF92DF92EF92FF927C
:100400000F931F93CF93DF93D62E95E0699FE00162
:10041000112497E0699F80011124B12C082E000C53
:10042000990B809725E0289F7001299FF00C1124DB
:100430008B2D90E08C179D0754F5C12C8C2D90E0EE
:100440008017910714F58B2D6D2D0E94CA07F701B7
:10045000E80FF11DEC57FF4FE491F0E08C2D0E9466
:10046000CA0702C0F595E7958A95E2F760918D037A
:1004700080918C036C0DE0FF02C041E001C040E0C0
:100480008B0D0E94DD01C394D9CFB394D1CF80915D
:100490008C0391E0980F8D2D880F880F8D0D890F9B
:1004A000843518F480938C030BC010928C038091D8
:1004B0008D038F5F97E0D99E800D112480938D036B
:1004C00080918D03803320F010928C0310928D0365
:1004D000DF91CF911F910F91FF90EF90DF90CF9020
:1004E000BF9008951F93CF93DF93162FEC0189914E
:1004F000882321F0612F0E94FB01F9CFDF91CF917A
:100500001F91089580938C0360938D030895CF937A
:10051000DF9380E80E94850180E40E948501C4E9A0
:10052000D1E061E089910E94690183E0CC38D8076D
:10053000C1F7DF91CF910895DC01AA5BBF4F2C91E9
:1005400021110AC020914C0131E0320F30934C014F
:10055000FC01E20FF11D06C0FC0181818193EA17C5
:10056000FB07D9F760830895DF92EF92FF920F9314
:100570001F93CF93DF9300D000D000D0CDB7DEB76C
:10058000082F7B01D42E0E94CB01E8E3F3E020EF9B
:1005900032E08291806480832E173F07D1F715E205
:1005A00041E0612F8CE00E94DD0111501530C1F750
:1005B00010928C0310928D034AE0BE016F5F7F4F53
:1005C0008D2D90E00E94540A61E0CE0101960E94B8
:1005D000720286E080938C038EE180938D0361E04C
:1005E00083E291E00E9472024AE0BE016C5F7F4F9D
:1005F000802F90E00E94540A8AE080938C030A3096
:1006000070F418E210938D0361E083E291E00E94A0
:10061000720280E180938C0310938D0303C088E203
:1006200080938D0361E0CE0104960E94720261E026
:10063000C7010E947202602F8DE491E00E949C022B
:1006400084E9E82E81E0F82E13E506E2F7018291B5
:100650007F01602F681B41E0812F0E94DD01115056
:100660001C30A1F726960FB6F894DEBF0FBECDBFA3
:10067000DF91CF911F910F91FF90EF90DF90089540
:100680004F925F926F927F928F929F92AF92BF92A2
:10069000CF92DF92EF92FF920F931F93CF93DF934E
:1006A000CDB7DEB768970FB6F894DEBF0FBECDBFEB
:1006B000882E962E2D8B3E8B4F8B588F0E94CB0110
:1006C0004EE165E271E0892D0E94B4028110B9C04B
:1006D0000E94CB01C701B6010E9401092B013C0118
:1006E00060E08AE20E94820261E08EE291E00E9474
:1006F00072026AE08AE20E94820261E086E391E08F
:100700000E94720264E18AE20E94820261E08AE34E
:1007100091E00E9472026EE18AE20E94820261E030
:100720008DE391E00E94720268E28AE20E948202F6
:1007300061E083E491E00E9472024AE0BE01605FE2
:100740007F4F892D90E00E94540A4AE0BE016F5FFE
:100750007F4F8D899E890E94540A4AE0BE01675FDF
:100760007F4FC8010E94540A4AE0BE01635F7F4F79
:10077000C2010E94540A20E030E040E251E4C70187
:10078000B6010E94E7096B017C018AE0849DB001FB
:10079000859D700D112480E090E00E9430099B013E
:1007A000AC01C701B6010E941D080E940109862FF5
:1007B0004AE0BE016D5E7F4F90E00E94540A89E0DE
:1007C00060E0891548F080E00E94820261E083E2E7
:1007D00091E00E94720203C080E00E94820261E008
:1007E000CE0140960E9472026AE080E00E9482027E
:1007F00061E0CE0101960E94720264E180E00E94F5
:10080000820261E0CE010D960E94720261E088E4EE
:1008100091E00E94720261E0CE0143960E94720252
:100820006EE180E00E94820261E0CE0109960E94A2
:10083000720268E280E00E94820261E0C5010E94CB
:1008400072020E94870268960FB6F894DEBF0FBE50
:10085000CDBFDF91CF911F910F91FF90EF90DF906F
:10086000CF90BF90AF909F908F907F906F905F9050
:100870004F90089587B18C6F87B984B18E6F84B91A
:100880008AB183678AB98BB18C688BB9289A08952D
:1008900082E084BD83E085BD89EF87BD85E48093D8
:1008A0008100109285001092840008958AE0809360
:1008B000690083E08DBB84E08093680080E88093CA
:1008C0006D0082E080936E00EFE6F0E08081806250
:1008D00080837894089581E480937C0087EE8093F0
:1008E0007A0010927B008CE380937E00089588E963
:1008F0008093C10086E08093C2001092C50087E615
:100900008093C400089520910001309101012E30A0
:10091000310508F08FC0F901EC5CFF4F0C9417080B
:1009200020ED260F2A30D0F422E030E01CC020ED6C
:10093000260F2A3050F426E030E015C020ED260FB7
:100940002A3018F427E030E00EC0683739F425E08B
:1009500030E009C020ED260F2A3018F020E030E00A
:1009600002C024E030E03093010120930001209187
:100970008E03FC01E20FF11D36C020ED260F2A3058
:1009800028F06A3331F040E050E005C04CE050E020
:1009900002C049E050E050930101409300012091D2
:1009A0008E03FC01E20FF11D4C305105D9F41BC040
:1009B00020ED260F2A3028F06A3331F040E050E075
:1009C00005C04DE050E002C049E050E05093010105
:1009D0004093000120918E03FC01E20FF11D4D3088
:1009E000510509F060E260832F5F20938E0322C0DF
:1009F0006A3319F080E090E002C089E090E09093C3
:100A000001018093000116C06B3319F080E090E083
:100A100002C083E090E0909301018093000108C040
:100A20006B3311F423E030E0309301012093000197
:100A300010928E03809100019091010108950E940F
:100A400088010C94CB01809122010E94510180FF0A
:100A500002C05E9A01C05E988E7F85B908950E949B
:100A60003A040E9448040E946B040E9456040E94AB
:100A700077040E941F05C0E0D4E68091900388238C
:100A800009F466C0C0901A01D0901B01E0901C01CF
:100A9000F0901D01009196031091970320911E0183
:100AA00030911F014091200150912101609122015C
:100AB00080918F0392E1A92E91E0B92E0E9440030C
:100AC000C130B9F080F0C23011F1C33041F58091EE
:100AD0001E0190911F01A0912001B09121018093EE
:100AE000C600C4E033C0809122018093C600C1E0FB
:100AF0002DC060911A0170911B0180911C01909191
:100B00001D010E9401096093C600C2E01FC08091D0
:100B10009603909197038093C600C3E017C080E0CE
:100B200090E02091C00025FFFCCFFC01EE5EFE4F5F
:100B300020812093C60001968830910591F780911D
:100B4000C00085FFFCCFD093C600C0E01092900398
:100B500080919103882309F490CF0E94230510927D
:100B600091038BCF1F920F920FB60F9211242F93E8
:100B70003F934F935F936F937F938F939F93AF9325
:100B8000BF93EF93FF9380917A00877F80937A00E1
:100B900080917C00609178007091790080FF11C095
:100BA00080E090E00E9430092DE637EE4BEF5DE3E8
:100BB0000E94E7090E9401097093970360939603CE
:100BC00014C063537F4F80E090E00E94300924E11D
:100BD0003EEA43EA51E40E948F0860931A01709341
:100BE0001B0180931C0190931D01809196039091AD
:100BF0009703CC9700F160911A0170911B018091CD
:100C00001C0190911D0120E030E04CE052E40E9474
:100C10008A0887FD10C060911A0170911B018091B4
:100C20001C0190911D0120E030E044E252E40E945A
:100C3000E2091816BCF460919203709193038091BD
:100C40009403909195032CE231E040E050E00E9443
:100C5000D607672B682B692B31F49BB180E289277B
:100C60008BB901C05D98FF91EF91BF91AF919F91BA
:100C70008F917F916F915F914F913F912F910F9045
:100C80000FBE0F901F9018951F920F920FB60F92E4
:100C900011242F933F934F935F936F937F938F9381
:100CA0009F93AF93BF93EF93FF93809186009091B2
:100CB0008700A0E0B0E026E0880F991FAA1FBB1FA5
:100CC0002A95D1F780931E0190931F01A0932001D4
:100CD000B093210160911E0170911F01809120014C
:100CE0009091210128EE33E040E050E00E94D607C9
:100CF00020931E0130931F01409320015093210146
:100D000020911E0130911F0140912001509121013D
:100D100060E67AEE80E090E00E94D60720931E0104
:100D200030931F01409320015093210110928500C0
:100D300010928400FF91EF91BF91AF919F918F919D
:100D40007F916F915F914F913F912F910F900FBEC7
:100D50000F901F9018951F920F920FB60F921124AB
:100D6000CF92DF92EF92FF922F933F934F935F9337
:100D70006F937F938F939F93AF93BF93EF93FF9363
:100D80008091920390919303A0919403B091950365
:100D90000196A11DB11D8093920390939303A0939C
:100DA0009403B0939503C0909203D0909303E09086
:100DB0009403F09095032091220180E1289F9001F7
:100DC0001124032E000C440B550B60E67AEE80E0F4
:100DD00090E00E94F807C701B6010E94D607672B72
:100DE000682B692B19F481E0809391036091920341
:100DF00070919303809194039091950326E930E0DC
:100E000040E050E00E94D607672B682B692B29F43D
:100E100080917A00886080937A006091920370914B
:100E20009303809194039091950328EC30E040E087
:100E300050E00E94D607672B682B692B41F481E0B4
:100E40008093900390917C00892780937C00FF9190
:100E5000EF91BF91AF919F918F917F916F915F9132
:100E60004F913F912F91FF90EF90DF90CF900F9097
:100E70000FBE0F901F9018951F920F920FB60F92F2
:100E800011248F93809122018E3128F480912201C8
:100E90008F5F809322018F910F900FBE0F901F9054
:100EA00018951F920F920FB60F9211248F93809175
:100EB0002201863028F08091220181508093220106
:100EC0008F910F900FBE0F901F9018951F920F9249
:100ED0000FB60F9211248F939F934F9906C0909154
:100EE0008F0381E0892780938F039F918F910F90CB
:100EF0000FBE0F901F9018951F920F920FB60F9272
:100F000011242F933F934F935F936F937F938F930E
:100F10009F93AF93BF93EF93FF936091C60082E0DE
:100F200091E00E948304009799F4E2E0F1E080E010
:100F300090E020E2DC01A65FBE4F3C91DC01AE5E9A
:100F4000BE4F3C93219301968830910599F711C0CB
:100F5000099779F4E2E0F1E080E090E020E230816E
:100F6000DC01AE5EBE4F3C93219301968730910524
:100F7000B1F7FF91EF91BF91AF919F918F917F91C9
:100F80006F915F914F913F912F910F900FBE0F90F6
:100F90001F901895991B79E004C0991F961708F0C7
:100FA000961B881F7A95C9F780950895A1E21A2E9D
:100FB000AA1BBB1BFD010DC0AA1FBB1FEE1FFF1FFD
:100FC000A217B307E407F50720F0A21BB30BE40B4D
:100FD000F50B661F771F881F991F1A9469F7609594
:100FE0007095809590959B01AC01BD01CF0108954E
:100FF000052E97FB1EF400940E940F0857FD07D0A2
:101000000E94D60707FC03D04EF40C940F085095AD
:101010004095309521953F4F4F4F5F4F08959095E4
:101020008095709561957F4F8F4F9F4F0895EE0F7C
:10103000FF1F0590F491E02D09945058BB27AA2773
:101040000E9435080C94A8090E949A0938F00E9461
:10105000A10920F039F49F3F19F426F40C94970964
:101060000EF4E095E7FB0C949109E92F0E94B90971
:1010700058F3BA17620773078407950720F079F4CD
:10108000A6F50C94DB090EF4E0950B2EBA2FA02DDB
:101090000B01B90190010C01CA01A0011124FF2725
:1010A000591B99F0593F50F4503E68F11A16F04020
:1010B000A22F232F342F4427585FF3CF469537951F
:1010C0002795A795F0405395C9F77EF41F16BA0BE4
:1010D000620B730B840BBAF09150A1F0FF0FBB1F92
:1010E000661F771F881FC2F70EC0BA0F621F731FDB
:1010F000841F48F4879577956795B795F7959E3F38
:1011000008F0B0CF9395880F08F09927EE0F9795C8
:10111000879508950E946D0908F481E008950E9462
:10112000A3080C94A8090E94A10958F00E949A09EA
:1011300040F029F45F3F29F00C94910951110C946F
:10114000DC090C9497090E94B90968F39923B1F35B
:10115000552391F3951B550BBB27AA2762177307DD
:10116000840738F09F5F5F4F220F331F441FAA1F71
:10117000A9F335D00E2E3AF0E0E832D0915050402D
:10118000E695001CCAF72BD0FE2F29D0660F771FDB
:10119000881FBB1F261737074807AB07B0E809F0C1
:1011A000BB0B802DBF01FF2793585F4F3AF09E3F46
:1011B000510578F00C9491090C94DC095F3FE4F33D
:1011C000983ED4F3869577956795B795F7959F5F89
:1011D000C9F7880F911D9695879597F90895E1E0D5
:1011E000660F771F881FBB1F621773078407BA0734
:1011F00020F0621B730B840BBA0BEE1F88F7E0958F
:1012000008950E94C10988F09F5798F0B92F992737
:10121000B751B0F0E1F0660F771F881F991F1AF0E1
:10122000BA95C9F714C0B13091F00E94DB09B1E062
:1012300008950C94DB09672F782F8827B85F39F061
:10124000B93FCCF3869577956795B395D9F73EF47A
:1012500090958095709561957F4F8F4F9F4F089522
:10126000E89409C097FB3EF4909580957095619540
:101270007F4F8F4F9F4F9923A9F0F92F96E9BB27F6
:101280009395F695879577956795B795F111F8CF72
:10129000FAF4BB0F11F460FF1BC06F5F7F4F8F4FDD
:1012A0009F4F16C0882311F096E911C0772321F0D3
:1012B0009EE8872F762F05C0662371F096E8862F6B
:1012C00070E060E02AF09A95660F771F881FDAF7C2
:1012D000880F9695879597F90895990F0008550FEF
:1012E000AA0BE0E8FEEF16161706E807F907C0F0AC
:1012F00012161306E407F50798F0621B730B840BB4
:10130000950B39F40A2661F0232B242B252B21F48D
:1013100008950A2609F4A140A6958FEF811D811D2D
:10132000089597F99F6780E870E060E008959FEF67
:1013300080EC089500240A9416161706180609066C
:10134000089500240A94121613061406050608953B
:10135000092E0394000C11F4882352F0BB0F40F4C3
:10136000BF2B11F460FF04C06F5F7F4F8F4F9F4F03
:10137000089557FD9058440F551F59F05F3F71F085
:101380004795880F97FB991F61F09F3F79F08795EC
:101390000895121613061406551FF2CF4695F1DF75
:1013A00008C0161617061806991FF1CF8695710505
:1013B000610508940895E894BB2766277727CB0139
:1013C00097F908950E946D0908F48FEF08950E941F
:1013D000FA090C94A8090E949A0938F00E94A10900
:1013E00020F0952311F00C9491090C949709112485
:1013F0000C94DC090E94B90970F3959FC1F3950F15
:1014000050E0551F629FF001729FBB27F00DB11D88
:10141000639FAA27F00DB11DAA1F649F6627B00D18
:10142000A11D661F829F2227B00DA11D621F739F01
:10143000B00DA11D621F839FA00D611D221F749F0F
:101440003327A00D611D231F849F600D211D822F56
:10145000762F6A2F11249F5750409AF0F1F088237D
:101460004AF0EE0FFF1FBB1F661F771F881F9150AA
:101470005040A9F79E3F510580F00C9491090C94BF
:10148000DC095F3FE4F3983ED4F386957795679542
:10149000B795F795E7959F5FC1F7FE2B880F911DD4
:1014A0009695879597F90895BB274A3031F499238B
:1014B00022F4BDE2909581959F4F0C94600ABB2762
:1014C000FB015527AA27880F991FAA1FA41710F000
:1014D000A41B83955051B9F7A05DAA3308F0A95D0C
:1014E000A193009779F7B111B1931192CB010C94AC
:1014F000790ADC01FC01672F71917723E1F73297BC
:1015000004C07C916D9370836291AE17BF07C8F3DE
:061510000895F894FFCFDE
:10151600010020202020202020004552524F21206B
:1015260020002020202020202000000020413C0018
:1015360000000C3000726573702F6D696E00727357
:10154600702F6D696E0062706D006F4300255370D9
:0A1556004F32006D6D4867002E0053
:00000001FF
