:100000000C9442000C945F000C945F000C945F0011
:100010000C945F000C94B8020C945F000C942202C4
:100020000C945F000C945F000C945F000C945F00D4
:100030000C945F000C945F000C945F000C945F00C4
:100040000C945F000C945F000C9432030C945F00DE
:100050000C945F000C9404010C945F000C945F00FE
:100060000C945F000C945F00C805BC054F05480563
:100070007505620556055D05D205BC05D205D2059C
:100080009005B00511241FBECFEFD8E0DEBFCDBF75
:1000900013E0A0E0B1E0E2E2F4E102C005900D92CD
:1000A000AA33B107D9F723E0AAE3B3E001C01D9258
:1000B000AE34B207E1F70E9461000C940F0A0C9471
:1000C00000000E9480030E948E030E94AF030E94E2
:1000D0009F030E94BB030E94D104C0E0D4E680913C
:1000E0004003882309F473C0E0914203809021010A
:1000F000A7B4C0902001009118011091190120911E
:100100001A0130911B0140914703509148036091BF
:100110001C0170911D0180911E0190911F01AA0C7C
:10012000FA2DFF0FFF0FFA0DA8E8AA2EAF0EEF93DE
:10013000B0E1EB2EB1E0FB2E0E942B070F90C130F7
:10014000B9F080F0C23011F1C33041F580911C014B
:1001500090911D01A0911E01B0911F018093C600D6
:10016000C4E033C0809120018093C600C1E02DC05F
:10017000609118017091190180911A0190911B01F1
:100180000E947C086093C600C2E01FC080914703B4
:10019000909148038093C600C3E017C080E090E0D0
:1001A0002091C00025FFFCCFFC01E05FFE4F2081C5
:1001B0002093C60001968830910591F78091C00088
:1001C00085FFFCCFD093C600C0E010924003809121
:1001D0004103882309F483CF8091420381117FCFAB
:1001E00060912101809120010E94C70388BD109277
:1001F000410380913E03811172CF88B58D3010F498
:100200002E9A6DCF2E986BCF1F920F920FB60F9232
:1002100011242F933F934F935F936F937F938F930B
:100220009F93AF93BF93EF93FF9380917A00877F63
:1002300080937A0080917C0082FD1DC080917C00BB
:1002400081FD19C080917C0080FD15C0609178000F
:100250007091790080E090E00E94AB082DE637EEC7
:100260004BEF5DE30E9462090E947C087093480393
:10027000609347039CC080917C0082FD21C08091E7
:100280007C0081FD1DC080917C0080FF19C06091C1
:1002900078007091790063537F4F80E090E00E9476
:1002A000AB0824E13EEA43EA51E40E94030860936C
:1002B00018017093190180931A0190931B0177C064
:1002C00080917C0082FD73C080917C0081FF6FC0B3
:1002D00080917C0080FD6BC08091780090917900C6
:1002E000813921E0920709F451C098F4883A9105C8
:1002F00009F1843521E0920709F450C08D39910548
:1003000009F055C09091420381E089278093420310
:100310004EC0833A22E0920711F120F48B369240CE
:1003200071F145C0843523E0920719F1803C934078
:1003300071F03DC080913F03833030F480913F03E2
:100340008F5F80933F0333C010923F0330C0809192
:100350002001863060F180912001815007C080919A
:1003600020018E3120F5809120018F5F8093200144
:100370001EC087B58D30D8F087B5815005C087B5D0
:100380008631A8F487B58F5F87BD11C080912101A8
:10039000823068F080912101815007C08091210155
:1003A0008A3028F4809121018F5F80932101809110
:1003B000470390914803CC9700F160911801709128
:1003C000190180911A0190911B0120E030E04CE06E
:1003D00052E40E94FE0787FD10C0609118017091E1
:1003E000190180911A0190911B0120E030E044E254
:1003F00052E40E945D0918162CF481E080933E03BC
:100400002E9A02C010923E0380917C0081FD04C0B0
:1004100080917C008F5F03C080917C00825080932C
:100420007C00FF91EF91BF91AF919F918F917F9150
:100430006F915F914F913F912F910F900FBE0F9051
:100440001F9018951F920F920FB60F921124CF9202
:10045000DF92EF92FF922F933F934F935F936F93AF
:100460007F938F939F93AF93BF93EF93FF9380916D
:10047000430390914403A0914503B0914603019634
:10048000A11DB11D8093430390934403A0934503A2
:10049000B093460380914203811129C0C090430369
:1004A000D0904403E0904503F090460380912001F2
:1004B0004091210190E0880F991F489F9001499F2A
:1004C000300D1124032E000C440B550B60E67AEE20
:1004D00080E090E00E946C07C701B6010E944A07C5
:1004E000672B682B692B19F481E08093410360919D
:1004F000430370914403809145039091460322E3A6
:1005000030E040E050E00E944A07672B682B692BDF
:1005100029F480917A00886080937A006091430387
:1005200070914403809145039091460328EC30E09C
:1005300040E050E00E944A07672B682B692B19F4B2
:1005400081E080934003FF91EF91BF91AF919F9124
:100550008F917F916F915F914F913F912F91FF907C
:10056000EF90DF90CF900F900FBE0F901F901895D7
:100570001F920F920FB60F9211242F933F934F9318
:100580005F936F937F938F939F93AF93BF93EF93FB
:10059000FF934F9B11C08091430390914403A0911E
:1005A0004503B091460380933A0390933B03A09395
:1005B0003C03B0933D0345C04F9943C08091430332
:1005C00090914403A0914503B091460340913A03B2
:1005D00050913B0360913C0370913D0348175907CC
:1005E0006A077B0770F58091430390914403A091C3
:1005F0004503B0914603841B950BA60BB70B880FE0
:10060000991FAA1FBB1F80931C0190931D01A093EB
:100610001E01B0931F0120911C0130911D014091DA
:100620001E0150911F0160E67AEE80E090E00E948A
:100630004A0720931C0130931D0140931E015093E3
:100640001F01FF91EF91BF91AF919F918F917F918A
:100650006F915F914F913F912F910F900FBE0F902F
:100660001F9018951F920F920FB60F9211242F937F
:100670003F934F935F936F937F938F939F93AF932A
:10068000BF93EF93FF936091C60080E091E00E94DA
:100690003B05009799F4E0E0F1E080E090E020E293
:1006A000DC01A85FBE4F3C91DC01A05FBE4F3C93D4
:1006B000219301968830910599F711C0099779F433
:1006C000E0E0F1E080E090E020E23081DC01A05F3A
:1006D000BE4F3C932193019687309105B1F7FF916E
:1006E000EF91BF91AF919F918F917F916F915F91AA
:1006F0004F913F912F910F900FBE0F901F90189523
:1007000087B187B984B18F6784B98AB183668AB9A2
:100710008BB18C608BB985B185B9089582E08093E7
:10072000B00084E08093B10089EF8093B30083EA46
:1007300084BD87E085BD8CE087BD88BD08958AE0D3
:100740008093690083E08DBB85E08093680080E83A
:1007500080936D0082E0809370007894089581E426
:1007600080937C0087EE80937A0010927B0088E370
:1007700080937E00089588E98093C10086E080938D
:10078000C2001092C50087E68093C40008952091AE
:1007900049038091220190912301261748F4019684
:1007A00090932301809322012F5F2093490309C076
:1007B000019790932301809322010C9711F41092DA
:1007C00049038091220190912301089570E0782BD4
:1007D00080E090E041E050E09A01082E02C0220F34
:1007E000331F0A94E2F726233723232B11F02B9A89
:1007F00001C02B982A9A25E02A95F1F700002A9843
:1008000001968C30910541F7299A85E08A95F1F798
:10081000000029980895CF93DF93D82FC42F85E047
:100820008A95F1F7000080914B038E7F80934B03F4
:10083000603498F085E08A95F1F7000080914B03D1
:100840008B7F80934B0385E08A95F1F700008091C0
:100850004B03886080934B0313C085E08A95F1F7C2
:10086000000080914B03877F80934B0385E08A953E
:10087000F1F7000080914B03846080934B03605C30
:1008800060934A0360914A0380914B030E94E60300
:1008900085E08A95F1F700002C9A85E08A95F1F7BA
:1008A00000002C9868EB6C0F60934A0380914B0317
:1008B0000E94E60385E08A95F1F700002C9A85E016
:1008C0008A95F1F700002C9885E08A95F1F70000F1
:1008D00080914B03816080934B03D0934A036D2F2B
:1008E0000E94E60385E08A95F1F700002C9A85E0E6
:1008F0008A95F1F700002C98DF91CF910895CF935E
:10090000DF93D0E0C0E04D2F6C2F80E00E940B04FD
:10091000CF5FC038C1F7DF5FD930A1F7DF91CF914A
:100920000895EF92FF920F931F93CF93DF93062FBB
:10093000142F95E0899F70011124C0E0D0E0FE01E2
:10094000EE0DFF1D6C2F600FEC57FF4F412F808184
:100950000E940B042196C530D10589F7DF91CF9114
:100960001F910F91FF90EF900895FF920F931F93A7
:10097000CF93DF938C01D62FF42EC0E0F801EC0F5B
:10098000F11D8081882339F04F2D6D2F0E94910435
:10099000DA5FCF5FF3CFDF91CF911F910F91FF907F
:1009A000089585E08A95F1F7000080914C038460FA
:1009B00080934C0385E08A95F1F7000080914C0309
:1009C000886080934C0385E08A95F1F700002898B1
:1009D00085E08A95F1F70000289A85E08A95F1F77D
:1009E000000080914C038E7F80934C0385E08A95B4
:1009F000F1F7000080914C038D7F80934C036FE3EF
:100A00000E94E60385E08A95F1F700002C9A85E0C4
:100A10008A95F1F700002C9860EC80914C030E94BD
:100A2000E60385E08A95F1F700002C9A85E08A9527
:100A3000F1F700002C9860E480914C030E94E603DB
:100A400085E08A95F1F700002C9A85E08A95F1F708
:100A500000002C9868EB80914C030E94E60385E02F
:100A60008A95F1F700002C9A85E08A95F1F700004D
:100A70002C980C947F042091FF02309100032E30BB
:100A8000310508F08FC0F901EC5CFF4F0C948B0727
:100A900020ED260F2A30D0F422E030E01CC020EDFB
:100AA000260F2A3050F426E030E015C020ED260F46
:100AB0002A3018F427E030E00EC0683739F425E01A
:100AC00030E009C020ED260F2A3018F020E030E099
:100AD00002C024E030E0309300032093FF02209115
:100AE0004D03FC01E20FF11D36C020ED260F2A3028
:100AF00028F06A3331F040E050E005C04CE050E0AF
:100B000002C049E050E0509300034093FF0220915F
:100B10004D03FC01E20FF11D4C305105D9F41BC00F
:100B200020ED260F2A3028F06A3331F040E050E003
:100B300005C04DE050E002C049E050E05093000392
:100B40004093FF0220914D03FC01E20FF11D4D3057
:100B5000510509F060E260832F5F20934D0322C0AE
:100B60006A3319F080E090E002C089E090E0909351
:100B700000038093FF0216C06B3319F080E090E011
:100B800002C083E090E0909300038093FF0208C0CE
:100B90006B3311F423E030E0309300032093FF0225
:100BA00010924D038091FF029091000308954F929F
:100BB0005F926F927F928F929F92AF92BF92CF92ED
:100BC000DF92EF92FF920F931F93CF93DF93CDB7F6
:100BD000DEB72B970FB6F894DEBF0FBECDBF688788
:100BE00079878A879B876A014801590140E060E064
:100BF00081E093E00E94B50410E041E0612F81E0C4
:100C00000E940B041F5F1F37C1F710E0412F69E4FA
:100C10008FEF0E940B041F5F1830C1F7C501B401AC
:100C20000E9475082B013C014AE0BE016F5F7F4FB7
:100C3000888599850E94DA096EE073E0CE010196FD
:100C40000E94CF0942E060E0CE0101960E94B50407
:100C50004AE0BE016F5F7F4FC6010E94DA096EE075
:100C600073E0CE0101960E94CF0943E060E0CE011F
:100C700001960E94B5044AE0BE016F5F7F4FC2013A
:100C80000E94DA0920E030E040E251E4C501B401FD
:100C90000E9462094B015C01C20199272AE0289F4A
:100CA000B001299F700D1124072E000C880B990BA1
:100CB0000E94AD089B01AC01C501B4010E949107DF
:100CC0000E947508DC01CB014AE0BE016A5F7F4FDC
:100CD0000E94DA0969E273E0CE0101960E94CF0911
:100CE000BE016A5F7F4FCE0101960E94CF0944E0AA
:100CF00060E0CE0101960E94B50445E060E0C701C6
:100D00000E94B50442E06BE281E193E00E94B504E9
:100D100043E06BE285E193E00E94B50444E06BE2BE
:100D20008BE193E00E94B50445E06BE28EE193E035
:100D30000E94B5042B960FB6F894DEBF0FBECDBF50
:100D4000DF91CF911F910F91FF90EF90DF90CF90A7
:100D5000BF90AF909F908F907F906F905F904F90DB
:100D60000895EF92FF920F931F93CF93DF9300D0DC
:100D700000D01F92CDB7DEB7E82EF62E042F122F2B
:100D800040E065E583E293E00E94B5044AE0BE01DD
:100D90006F5F7F4F8E2D90E00E94DA096EE073E066
:100DA000CE0101960E94CF0942E06CE4CE0101968B
:100DB0000E94B5044AE0BE016F5F7F4F8F2D90E027
:100DC0000E94DA096EE073E0CE0101960E94CF091D
:100DD00043E06CE4CE0101960E94B5044AE0BE01F6
:100DE0006F5F7F4F802F90E00E94DA096EE073E022
:100DF000CE0101960E94CF0945E06CE4CE01019638
:100E00000E94B50446E06CE4111103C08BE293E04C
:100E100002C082E393E00E94B50442E063E681E110
:100E200093E00E94B50443E063E685E193E00E940D
:100E3000B50445E063E68BE193E00E94B5040F90B2
:100E40000F900F900F900F90DF91CF911F910F9106
:100E5000FF90EF9008958F92AF92CF92DF92EF9232
:100E6000FF920F931F93CF93DF93CDB7DEB7DD844F
:100E70000E94D7052D2D482D6A2D8C2DDF91CF9105
:100E80001F910F91FF90EF90DF90CF90AF908F90D8
:100E90000C94B106A1E21A2EAA1BBB1BFD010DC0CA
:100EA000AA1FBB1FEE1FFF1FA217B307E407F5071A
:100EB00020F0A21BB30BE40BF50B661F771F881FF6
:100EC000991F1A9469F760957095809590959B018C
:100ED000AC01BD01CF010895052E97FB1EF40094CF
:100EE0000E94830757FD07D00E944A0707FC03D0E2
:100EF0004EF40C94830750954095309521953F4FC3
:100F00004F4F5F4F089590958095709561957F4FF5
:100F10008F4F9F4F0895EE0FFF1F0590F491E02D26
:100F200009945058BB27AA270E94A9070C942309AB
:100F30000E94150938F00E941C0920F039F49F3FE7
:100F400019F426F40C9412090EF4E095E7FB0C94C6
:100F50000C09E92F0E94340958F3BA176207730786
:100F60008407950720F079F4A6F50C9456090EF441
:100F7000E0950B2EBA2FA02D0B01B90190010C01A9
:100F8000CA01A0011124FF27591B99F0593F50F4C1
:100F9000503E68F11A16F040A22F232F342F442719
:100FA000585FF3CF469537952795A795F040539511
:100FB000C9F77EF41F16BA0B620B730B840BBAF0E1
:100FC0009150A1F0FF0FBB1F661F771F881FC2F74C
:100FD0000EC0BA0F621F731F841F48F48795779560
:100FE0006795B795F7959E3F08F0B0CF9395880F1A
:100FF00008F09927EE0F9795879508950E94E808C5
:1010000008F481E008950E9417080C9423090E94B7
:101010001C0958F00E94150940F029F45F3F29F09F
:101020000C940C0951110C9457090C9412090E944C
:10103000340968F39923B1F3552391F3951B550BAC
:10104000BB27AA2762177307840738F09F5F5F4F9B
:10105000220F331F441FAA1FA9F335D00E2E3AF0DA
:10106000E0E832D091505040E695001CCAF72BD0F2
:10107000FE2F29D0660F771F881FBB1F2617370743
:101080004807AB07B0E809F0BB0B802DBF01FF2775
:1010900093585F4F3AF09E3F510578F00C940C093D
:1010A0000C9457095F3FE4F3983ED4F38695779507
:1010B0006795B795F7959F5FC9F7880F911D96952E
:1010C000879597F90895E1E0660F771F881FBB1F8A
:1010D000621773078407BA0720F0621B730B840B37
:1010E000BA0BEE1F88F7E09508950E947C0868947B
:1010F000B1110C94570908950E943C0988F09F573C
:1011000098F0B92F9927B751B0F0E1F0660F771F2B
:10111000881F991F1AF0BA95C9F714C0B13091F021
:101120000E945609B1E008950C945609672F782F54
:101130008827B85F39F0B93FCCF3869577956795E6
:10114000B395D9F73EF490958095709561957F4F52
:101150008F4F9F4F0895E89409C097FB3EF49095F8
:101160008095709561957F4F8F4F9F4F9923A9F080
:10117000F92F96E9BB279395F6958795779567950F
:10118000B795F111F8CFFAF4BB0F11F460FF1BC053
:101190006F5F7F4F8F4F9F4F16C0882311F096E9E6
:1011A00011C0772321F09EE8872F762F05C0662394
:1011B00071F096E8862F70E060E02AF09A95660F4D
:1011C000771F881FDAF7880F9695879597F9089506
:1011D000990F0008550FAA0BE0E8FEEF1616170648
:1011E000E807F907C0F012161306E407F50798F0B0
:1011F000621B730B840B950B39F40A2661F0232BC9
:10120000242B252B21F408950A2609F4A140A69544
:101210008FEF811D811D089597F99F6780E870E029
:1012200060E008959FEF80EC089500240A9416165C
:10123000170618060906089500240A9412161306C4
:10124000140605060895092E0394000C11F4882352
:1012500052F0BB0F40F4BF2B11F460FF04C06F5F6E
:101260007F4F8F4F9F4F089557FD9058440F551F44
:1012700059F05F3F71F04795880F97FB991F61F018
:101280009F3F79F087950895121613061406551F8F
:10129000F2CF4695F1DF08C0161617061806991FFB
:1012A000F1CF86957105610508940895E894BB27F0
:1012B00066277727CB0197F908950E94E80808F47C
:1012C0008FEF08950E9475090C9423090E94150957
:1012D00038F00E941C0920F0952311F00C940C09A1
:1012E0000C94120911240C9457090E94340970F3CC
:1012F000959FC1F3950F50E0551F629FF001729FBB
:10130000BB27F00DB11D639FAA27F00DB11DAA1FC9
:10131000649F6627B00DA11D661F829F2227B00D16
:10132000A11D621F739FB00DA11D621F839FA00DA1
:10133000611D221F749F3327A00D611D231F849FF1
:10134000600D211D822F762F6A2F11249F57504048
:101350009AF0F1F088234AF0EE0FFF1FBB1F661FC3
:10136000771F881F91505040A9F79E3F510580F08C
:101370000C940C090C9457095F3FE4F3983ED4F3A6
:10138000869577956795B795F795E7959F5FC1F730
:10139000FE2B880F911D9695879597F90895FB016F
:1013A000DC010D900020E9F7119701900D920020CB
:1013B000E1F70895BB274A3031F4992322F4BDE2C6
:1013C000909581959F4F0C94E609BB27FB0155270B
:1013D000AA27880F991FAA1FA41710F0A41B839592
:1013E0005051B9F7A05DAA3308F0A95DA193009709
:1013F00079F7B111B1931192CB010C94FF09DC0183
:10140000FC01672F71917723E1F7329704C07C913B
:101410006D9370836291AE17BF07C8F30895F89477
:02142000FFCFFC
:1014220020202020202020004552524F2120200041
:101432002020202020202000000020413C0000002D
:101442000C0A0C00000000000000005F0000000712
:10145200000700147F147F14242A7F2A1223130802
:10146200646236495522500005030000001C2241E7
:10147200000041221C0014083E081408083E080817
:1014820000503000000808080808006060000020D2
:10149200100804023E5149453E00427F400042612D
:1014A2005149462141454B311814127F10274545B9
:1014B20045393C4A494930010179050336494949D0
:1014C20036064949291E003636000000563600000D
:1014D20008142241001414141414412214080002A6
:1014E200015109063E415D555E7E0909097E7F492B
:1014F2004949363E414141227F4141221C7F4949AF
:1015020041417F090909013E4141497A7F080808A2
:101512007F00417F41002040413F017F081422416A
:101522007F404040407F020C027F7F0408107F3ED4
:101532004141413E7F090909063E4151215E7F0931
:10154200192946464949493101017F01013F40407D
:10155200403F1F2040201F3F403F403F631408147C
:101562006307087808076151494543007F414100FC
:1015720001020408100041417F00040201020440FC
:1015820040404040000003050020545454787F48F6
:101592004444383844444420384444487F385454FE
:1015A2005418087E090102085454543C7F0804046C
:1015B2007800447D40002040453C007F10284400D4
:1015C20000417F40007C043804787C0804047838A9
:1015D200444444387C14141408081414187C7C08FD
:1015E2000404084854545420043F4440203C4040E2
:1015F200207C1C2040201C3C403C403C44281028BD
:10160200440C5050503C4464544C44000836410051
:1016120000007F0000004136080010081020100171
:10162200004461646F7320766974616973002020DD
:101632000062706D002553704F32006F43006D6D74
:10164200486700506172616D732E00464F524345E8
:0A1652004400415353495354000073
:00000001FF
