:100000000C9442000C945F000C945F000C945F0011
:100010000C945F000C948B020C945F000C94F5011F
:100020000C945F000C945F000C945F000C945F00D4
:100030000C945F000C945F000C945F000C945F00C4
:100040000C945F000C945F000C9405030C945F000B
:100050000C945F000C94D7000C945F000C945F002C
:100060000C945F000C945F0046043A04CD03C60371
:10007000F303E003D403DB0350043A0450045004B8
:100080000E042E0411241FBECFEFD8E0DEBFCDBF7B
:1000900011E0A0E0B1E0E0EDFCE002C005900D92BF
:1000A000A632B107D9F721E0A6E2B1E001C01D9266
:1000B000A733B207E1F70E9461000C9466060C9426
:1000C00000000E9453030E9461030E9482030E9469
:1000D00072030E948E03C0E0D4E680912C01882335
:1000E00009F448C0C130B9F080F0C23011F1C3301A
:1000F00041F580911C0190911D01A0911E01B091CC
:100100001F018093C600C4E033C08091200180931A
:10011000C600C1E02DC06091180170911901809155
:100120001A0190911B010E9413056093C600C2E062
:100130001FC080913301909134018093C600C3E0C9
:1001400017C080E090E02091C00025FFFCCFFC01AB
:10015000E05FFE4F20812093C60001968830910514
:1001600091F78091C00085FFFCCFD093C600C0E01E
:1001700010922C0180912D01882309F4AECF80913B
:100180002E018111AACF60912101809120010E944E
:100190009A0388BD10922D0180912A0181119DCF73
:1001A00088B58D3010F42E9A98CF2E9896CF1F9246
:1001B0000F920FB60F9211242F933F934F935F939B
:1001C0006F937F938F939F93AF93BF93EF93FF931F
:1001D00080917A00877F80937A0080917C0082FDF5
:1001E0001DC080917C0081FD19C080917C0080FD44
:1001F00015C0609178007091790080E090E00E94D5
:1002000042052DE637EE4BEF5DE30E94F9050E94B3
:10021000130570933401609333019CC080917C007E
:1002200082FD21C080917C0081FD1DC080917C00F9
:1002300080FF19C0609178007091790063537F4FFF
:1002400080E090E00E94420524E13EEA43EA51E466
:100250000E94A104609318017093190180931A0100
:1002600090931B0177C080917C0082FD73C08091C8
:100270007C0081FF6FC080917C0080FD6BC080910D
:10028000780090917900813921E0920709F451C0FA
:1002900098F4883A910509F1843521E0920709F430
:1002A00050C08D39910509F055C090912E0181E023
:1002B000892780932E014EC0833A22E0920711F1E4
:1002C00020F48B36924071F145C0843523E09207CB
:1002D00019F1803C934071F03DC080912B01833037
:1002E00030F480912B018F5F80932B0133C01092EB
:1002F0002B0130C080912001863060F18091200177
:10030000815007C0809120018E3120F5809120011D
:100310008F5F809320011EC087B58D30D8F087B5E0
:10032000815005C087B58631A8F487B58F5F87BD3A
:1003300011C080912101823068F0809121018150AB
:1003400007C0809121018A3028F4809121018F5FBC
:10035000809321018091330190913401CC9700F179
:10036000609118017091190180911A0190911B01FF
:1003700020E030E04CE052E40E949C0487FD10C075
:10038000609118017091190180911A0190911B01DF
:1003900020E030E044E252E40E94F40518162CF408
:1003A00081E080932A012E9A02C010922A01809146
:1003B0007C0081FD04C080917C008F5F03C0809130
:1003C0007C00825080937C00FF91EF91BF91AF91B0
:1003D0009F918F917F916F915F914F913F912F915D
:1003E0000F900FBE0F901F9018951F920F920FB68F
:1003F0000F921124CF92DF92EF92FF922F933F93AF
:100400004F935F936F937F938F939F93AF93BF931C
:10041000EF93FF9380912F0190913001A0913101D2
:10042000B09132010196A11DB11D80932F019093CF
:100430003001A0933101B093320180912E018111DE
:1004400029C0C0902F01D0903001E0903101F09090
:100450003201809120014091210190E0880F991F85
:10046000489F9001499F300D1124032E000C440B2E
:10047000550B60E67AEE80E090E00E947704C701B9
:10048000B6010E945504672B682B692B19F481E093
:1004900080932D0160912F01709130018091310185
:1004A0009091320122E330E040E050E00E94550498
:1004B000672B682B692B29F480917A0088608093E0
:1004C0007A0060912F0170913001809131019091FB
:1004D000320128EC30E040E050E00E945504672BE8
:1004E000682B692B19F481E080932C01FF91EF9127
:1004F000BF91AF919F918F917F916F915F914F913C
:100500003F912F91FF90EF90DF90CF900F900FBE13
:100510000F901F9018951F920F920FB60F921124F3
:100520002F933F934F935F936F937F938F939F93FB
:10053000AF93BF93EF93FF934F9B11C080912F0117
:1005400090913001A0913101B09132018093260148
:1005500090932701A0932801B093290145C04F999A
:1005600043C080912F0190913001A0913101B09151
:10057000320140912601509127016091280170912C
:100580002901481759076A077B0770F580912F01E9
:1005900090913001A0913101B0913201841B950BF3
:1005A000A60BB70B880F991FAA1FBB1F80931C01B6
:1005B00090931D01A0931E01B0931F0120911C0177
:1005C00030911D0140911E0150911F0160E67AEEAD
:1005D00080E090E00E94550420931C0130931D019F
:1005E00040931E0150931F01FF91EF91BF91AF9176
:1005F0009F918F917F916F915F914F913F912F913B
:100600000F900FBE0F901F9018951F920F920FB66C
:100610000F9211242F933F934F935F936F937F9388
:100620008F939F93AF93BF93EF93FF936091C60017
:1006300080E091E00E94B903009799F4E0E0F1E0D6
:1006400080E090E020E2DC01A85FBE4F3C91DC013D
:10065000A05FBE4F3C93219301968830910599F796
:1006600011C0099779F4E0E0F1E080E090E020E249
:100670003081DC01A05FBE4F3C932193019687300F
:100680009105B1F7FF91EF91BF91AF919F918F913C
:100690007F916F915F914F913F912F910F900FBE7E
:1006A0000F901F90189587B187B984B18F6784B96F
:1006B0008AB183668AB98BB18C608BB985B185B9F3
:1006C000089582E08093B00084E08093B10089EFC8
:1006D0008093B30083EA84BD87E085BD8CE087BD4D
:1006E00088BD08958AE08093690083E08DBB85E032
:1006F0008093680080E880936D0082E080937000B2
:100700007894089581E480937C0087EE80937A004A
:1007100010927B0088E380937E00089588E980939F
:10072000C10086E08093C2001092C50087E68093E6
:10073000C4000895209135018091220190912301F8
:10074000261748F4019690932301809322012F5F8E
:100750002093350109C001979093230180932201D2
:100760000C9711F410923501809122019091230190
:10077000089520912401309125012E30310508F093
:100780008FC0F901EC5CFF4F0C94960420ED260F0E
:100790002A30D0F422E030E01CC020ED260F2A30B1
:1007A00050F426E030E015C020ED260F2A3018F472
:1007B00027E030E00EC0683739F425E030E009C0AA
:1007C00020ED260F2A3018F020E030E002C024E0AF
:1007D00030E0309325012093240120913601FC0163
:1007E000E20FF11D36C020ED260F2A3028F06A33C3
:1007F00031F040E050E005C04CE050E002C049E07C
:1008000050E0509325014093240120913601FC01D2
:10081000E20FF11D4C305105D9F41BC020ED260F1D
:100820002A3028F06A3331F040E050E005C04DE056
:1008300050E002C049E050E050932501409324016C
:1008400020913601FC01E20FF11D4D30510509F0F8
:1008500060E260832F5F2093360122C06A3319F073
:1008600080E090E002C089E090E0909325018093C1
:10087000240116C06B3319F080E090E002C083E0E1
:1008800090E0909325018093240108C06B3311F40C
:1008900023E030E0309325012093240110923601AB
:1008A00080912401909125010895A1E21A2EAA1B9E
:1008B000BB1BFD010DC0AA1FBB1FEE1FFF1FA21710
:1008C000B307E407F50720F0A21BB30BE40BF50B0D
:1008D000661F771F881F991F1A9469F76095709596
:1008E000809590959B01AC01BD01CF010895052E27
:1008F00097FB1EF400940E948E0457FD07D00E94BF
:10090000550407FC03D04EF40C948E04509540958A
:10091000309521953F4F4F4F5F4F089590958095AB
:10092000709561957F4F8F4F9F4F0895EE0FFF1F7A
:100930000590F491E02D09940E947F0508F481E070
:1009400008950E94B5040C94BA050E94B30558F0AE
:100950000E94AC0540F029F45F3F29F00C94A305F8
:1009600051110C94EE050C94A9050E94CB0568F377
:100970009923B1F3552391F3951B550BBB27AA2758
:1009800062177307840738F09F5F5F4F220F331F92
:10099000441FAA1FA9F335D00E2E3AF0E0E832D05A
:1009A00091505040E695001CCAF72BD0FE2F29D05D
:1009B000660F771F881FBB1F261737074807AB072F
:1009C000B0E809F0BB0B802DBF01FF2793585F4FA4
:1009D0003AF09E3F510578F00C94A3050C94EE0577
:1009E0005F3FE4F3983ED4F3869577956795B79586
:1009F000F7959F5FC9F7880F911D9695879597F991
:100A00000895E1E0660F771F881FBB1F6217730709
:100A10008407BA0720F0621B730B840BBA0BEE1F1E
:100A200088F7E09508950E94D30588F09F5798F0C5
:100A3000B92F9927B751B0F0E1F0660F771F881FE3
:100A4000991F1AF0BA95C9F714C0B13091F00E94FD
:100A5000ED05B1E008950C94ED05672F782F8827F8
:100A6000B85F39F0B93FCCF3869577956795B39524
:100A7000D9F73EF490958095709561957F4F8F4F93
:100A80009F4F0895E89409C097FB3EF49095809598
:100A9000709561957F4F8F4F9F4F9923A9F0F92F44
:100AA00096E9BB279395F695879577956795B795C2
:100AB000F111F8CFFAF4BB0F11F460FF1BC06F5FA8
:100AC0007F4F8F4F9F4F16C0882311F096E911C0BA
:100AD000772321F09EE8872F762F05C0662371F0DB
:100AE00096E8862F70E060E02AF09A95660F771FEF
:100AF000881FDAF7880F9695879597F90895990FCB
:100B00000008550FAA0BE0E8FEEF16161706E807D7
:100B1000F907C0F012161306E407F50798F0621BF8
:100B2000730B840B950B39F40A2661F0232B242BCD
:100B3000252B21F408950A2609F4A140A6958FEFEC
:100B4000811D811D089597F99F6780E870E060E03E
:100B500008959FEF80EC089500240A941616170656
:100B600018060906089500240A941216130614069E
:100B700005060895092E0394000C11F4882352F001
:100B8000BB0F40F4BF2B11F460FF04C06F5F7F4FB9
:100B90008F4F9F4F089557FD9058440F551F59F0A0
:100BA0005F3F71F04795880F97FB991F61F09F3F5A
:100BB00079F087950895121613061406551FF2CF83
:100BC0004695F1DF08C0161617061806991FF1CFD3
:100BD00086957105610508940895E894BB276627FA
:100BE0007727CB0197F908950E947F0508F48FEFCE
:100BF00008950E940C060C94BA050E94AC0538F0CA
:100C00000E94B30520F0952311F00C94A3050C94D9
:100C1000A90511240C94EE050E94CB0570F3959F55
:100C2000C1F3950F50E0551F629FF001729FBB27E3
:100C3000F00DB11D639FAA27F00DB11DAA1F649F7F
:100C40006627B00DA11D661F829F2227B00DA11D32
:100C5000621F739FB00DA11D621F839FA00D611DB8
:100C6000221F749F3327A00D611D231F849F600DD9
:100C7000211D822F762F6A2F11249F5750409AF002
:100C8000F1F088234AF0EE0FFF1FBB1F661F771F8E
:100C9000881F91505040A9F79E3F510580F00C9459
:100CA000A3050C94EE055F3FE4F3983ED4F38695DC
:100CB00077956795B795F795E7959F5FC1F7FE2BF9
:100CC000880F911D9695879597F90895F894FFCF11
:100CD00020202020202020004552524F212020009B
:100CE0002020202020202000000020413C00000087
:060CF0000C0A0C000100DB
:00000001FF
