:100000000C9442000C945F000C945F000C945F0011
:100010000C945F000C943B030C945F000C94A102C1
:100020000C945F000C945F000C945F000C945F00D4
:100030000C945F000C945F000C945F000C945F00C4
:100040000C945F000C945F000C94B5030C945F005B
:100050000C945F000C946A010C945F000C945F0098
:100060000C945F000C945F004B063F06D205CB0555
:10007000F805E505D905E00555063F065506550680
:100080001306330611241FBECFEFD8E0DEBFCDBF6D
:1000900013E0A0E0B1E0EEE8F5E102C005900D92BA
:1000A000AA36B107D9F723E0AAE6B3E001C01D9252
:1000B000AF37B207E1F70E9461000C94C50A0C94B7
:1000C00000000E9403040E9411040E9432040E9456
:1000D00022040E943E040E945405C0E0D1E014E6D0
:1000E000D12E80917003882309F4D7C080916E03CC
:1000F000882309F45FC0809173038D278093730375
:10010000609118017091190180911A0190911B0161
:1001100020E030E04CE052E40E94B40887FF04C0C5
:100120008091730340E013C0609118017091190130
:1001300080911A0190911B0120E030E040E252E4EE
:100140000E94130A181634F48091730341E064E5A9
:100150000E94D907809178039091790386349105A4
:1001600030F48091730340E06FE40E94D9078091DE
:100170001C0190911D01A0911E01B0911F01C29719
:10018000A105B10520F48091730340E010C0809177
:100190001C0190911D01A0911E01B0911F018D388D
:1001A0009105A105B10530F08091730341E063E44E
:1001B0000E94D907E091720380902101A7B4C090FA
:1001C0002001009118011091190120911A0130911C
:1001D0001B01409178035091790360911C0170914B
:1001E0001D0180911E0190911F01AA0CFA2DFF0F95
:1001F000FF0FFA0DA8E8AA2EAF0EEF93B0E1EB2E99
:10020000B1E0FB2E0E94AE070F90C130B9F080F034
:10021000C23011F1C33041F580911C0190911D0154
:10022000A0911E01B0911F018093C600C4E033C0AD
:10023000809120018093C600C1E02DC0609118011B
:100240007091190180911A0190911B010E9432094D
:100250006093C600C2E01FC080917803909179033B
:100260008093C600C3E017C080E090E02091C000FA
:1002700025FFFCCFFC01E05FFE4F20812093C600EC
:1002800001968830910591F78091C00085FFFCCFE1
:10029000D092C600C0E01092700380917103882351
:1002A00009F41FCF8091720381111BCF609121014E
:1002B000809120010E944A0488BD109271038091B0
:1002C0006E0381110ECF88B58D3010F42E9A09CFB0
:1002D0002E9807CF1F920F920FB60F9211242F93D3
:1002E0003F934F935F936F937F938F939F93AF93BE
:1002F000BF93EF93FF9380917A00877F80937A007A
:1003000080917C0082FD1DC080917C0081FD19C020
:1003100080917C0080FD15C060917800709179001B
:1003200080E090E00E9461092DE637EE4BEF5DE33F
:100330000E94180A0E94320970937903609378032F
:100340009CC080917C0082FD21C080917C0081FD59
:100350001DC080917C0080FF19C060917800709171
:10036000790063537F4F80E090E00E94610924E1AF
:100370003EEA43EA51E40E94B90860931801709381
:10038000190180931A0190931B0177C080917C0022
:1003900082FD73C080917C0081FF6FC080917C00E2
:1003A00080FD6BC08091780090917900813921E0C7
:1003B000920709F451C098F4883A910509F18435FF
:1003C00021E0920709F450C08D39910509F055C01C
:1003D0009091720381E08927809372034EC0833A23
:1003E00022E0920711F120F48B36924071F145C062
:1003F000843523E0920719F1803C934071F03DC0B1
:1004000080916F03833030F480916F038F5F80930E
:100410006F0333C010926F0330C08091200186308B
:1004200060F180912001815007C0809120018E31C0
:1004300020F5809120018F5F809320011EC087B539
:100440008D30D8F087B5815005C087B58631A8F4C6
:1004500087B58F5F87BD11C080912101823068F020
:1004600080912101815007C0809121018A3028F4B8
:10047000809121018F5F8093210180917803909179
:100480007903CC97C8F1609118017091190180919E
:100490001A0190911B0120E030E04CE052E40E94F0
:1004A000B40887FD29C060911801709119018091ED
:1004B0001A0190911B0120E030E040E252E40E94DA
:1004C000130A1816CCF080911C0190911D01A09187
:1004D0001E01B0911F01C297A105B10568F080917E
:1004E0001C0190911D01A0911E01B0911F018D383A
:1004F0009105A105B10528F081E080936E032E9A45
:1005000002C010926E0380917C0081FD04C0809136
:100510007C008F5F03C080917C00825080937C00C0
:10052000FF91EF91BF91AF919F918F917F916F91CB
:100530005F914F913F912F910F900FBE0F901F90A1
:1005400018951F920F920FB60F921124CF92DF923F
:10055000EF92FF922F933F934F935F936F937F930D
:100560008F939F93AF93BF93EF93FF938091740307
:1005700090917503A0917603B09177030196A11D28
:10058000B11D8093740390937503A0937603B09389
:10059000770395B180E2892785B980917203811133
:1005A00029C0C0907403D0907503E0907603F0905A
:1005B0007703809120014091210190E0880F991FDD
:1005C000489F9001499F300D1124032E000C440BCD
:1005D000550B60E67AEE80E090E00E942208C701A9
:1005E000B6010E940008672B682B692B19F481E083
:1005F0008093710360917403709175038091760309
:100600009091770322E330E040E050E00E94000840
:10061000672B682B692B29F480917A00886080937E
:100620007A006091740370917503809176039091C4
:10063000770328EC30E040E050E00E940008672B90
:10064000682B692B19F481E080937003FF91EF917F
:10065000BF91AF919F918F917F916F915F914F91DA
:100660003F912F91FF90EF90DF90CF900F900FBEB2
:100670000F901F9018951F920F920FB60F92112492
:100680002F933F934F935F936F937F938F939F939A
:10069000AF93BF93EF93FF934F9B11C0809174036F
:1006A00090917503A0917603B091770380936A03CC
:1006B00090936B03A0936C03B0936D0345C04F9967
:1006C00043C08091740390917503A0917603B0911B
:1006D000770340916A0350916B0360916C037091B2
:1006E0006D03481759076A077B0770F580917403FB
:1006F00090917503A0917603B0917703841B950BBD
:10070000A60BB70B880F991FAA1FBB1F80931C0154
:1007100090931D01A0931E01B0931F0120911C0115
:1007200030911D0140911E0150911F0160E67AEE4B
:1007300080E090E00E94000820931C0130931D018E
:1007400040931E0150931F01FF91EF91BF91AF9114
:100750009F918F917F916F915F914F913F912F91D9
:100760000F900FBE0F901F9018951F920F920FB60B
:100770000F9211242F933F934F935F936F937F9327
:100780008F939F93AF93BF93EF93FF936091C600B6
:1007900080E091E00E94BE05009799F4E0E0F1E06E
:1007A00080E090E020E2DC01A85FBE4F3C91DC01DC
:1007B000A05FBE4F3C93219301968830910599F735
:1007C00011C0099779F4E0E0F1E080E090E020E2E8
:1007D0003081DC01A05FBE4F3C93219301968730AE
:1007E0009105B1F7FF91EF91BF91AF919F918F91DB
:1007F0007F916F915F914F913F912F910F900FBE1D
:100800000F901F90189587B187B984B18F6784B90D
:100810008AB183668AB98BB18C608BB985B185B991
:10082000089582E08093B00084E08093B10089EF66
:100830008093B30083EA84BD87E085BD8CE087BDEB
:1008400088BD08958AE08093690083E08DBB85E0D0
:100850008093680080E880936D0082E08093700050
:100860007894089581E480937C0087EE80937A00E9
:1008700010927B0088E380937E00089588E980933E
:10088000C10086E08093C2001092C50087E6809385
:10089000C400089520917A03809122019091230150
:1008A000261748F4019690932301809322012F5F2D
:1008B00020937A0309C0019790932301809322012A
:1008C0000C9711F410927A038091220190912301E8
:1008D000089570E0782B80E090E041E050E09A01CC
:1008E000082E02C0220F331F0A94E2F72623372373
:1008F000232B11F02B9A01C02B982A9A25E02A95D8
:10090000F1F700002A9801968C30910541F7299A59
:1009100085E08A95F1F7000029980895CF93DF9339
:10092000D82FC42F85E08A95F1F7000080917C03D1
:100930008E7F80937C03603498F085E08A95F1F790
:10094000000080917C038B7F80937C0385E08A95F7
:10095000F1F7000080917C03886080937C0313C0D2
:1009600085E08A95F1F7000080917C03877F809372
:100970007C0385E08A95F1F7000080917C03846018
:1009800080937C03605C60937B0360917B03809128
:100990007C030E94690485E08A95F1F700002C9A97
:1009A00085E08A95F1F700002C9868EB6C0F609356
:1009B0007B0380917C030E94690485E08A95F1F7AE
:1009C00000002C9A85E08A95F1F700002C9885E0CC
:1009D0008A95F1F7000080917C03816080937C030D
:1009E000D0937B036D2F0E94690485E08A95F1F70F
:1009F00000002C9A85E08A95F1F700002C98DF9191
:100A0000CF910895CF93DF93D0E0C0E04D2F6C2FAE
:100A100080E00E948E04CF5FC038C1F7DF5FD9301D
:100A2000A1F7DF91CF910895EF92FF920F931F935B
:100A3000CF93DF93062F142F95E0899F7001112427
:100A4000C0E0D0E0FE01EE0DFF1D6C2F600FEC57F3
:100A5000FF4F412F80810E948E042196C530D10521
:100A600089F7DF91CF911F910F91FF90EF9008953B
:100A7000FF920F931F93CF93DF938C01D62FF42E09
:100A8000C0E0F801EC0FF11D8081882339F04F2D73
:100A90006D2F0E941405DA5FCF5FF3CFDF91CF9106
:100AA0001F910F91FF90089585E08A95F1F700005E
:100AB00080917D03846080937D0385E08A95F1F7C2
:100AC000000080917D03886080937D0385E08A9596
:100AD000F1F70000289885E08A95F1F70000289A40
:100AE00085E08A95F1F7000080917D038E7F8093E9
:100AF0007D0385E08A95F1F7000080917D038D7F6D
:100B000080937D036FE30E94690485E08A95F1F785
:100B100000002C9A85E08A95F1F700002C9860EC93
:100B200080917D030E94690485E08A95F1F70000B9
:100B30002C9A85E08A95F1F700002C9860E480916A
:100B40007D030E94690485E08A95F1F700002C9AE4
:100B500085E08A95F1F700002C9868EB80917D0381
:100B60000E94690485E08A95F1F700002C9A85E0DF
:100B70008A95F1F700002C980C9402052091090346
:100B800030910A032E30310508F08FC0F901EC5C7A
:100B9000FF4F0C94410820ED260F2A30D0F422E0BC
:100BA00030E01CC020ED260F2A3050F426E030E063
:100BB00015C020ED260F2A3018F427E030E00EC0D3
:100BC000683739F425E030E009C020ED260F2A30DF
:100BD00018F020E030E002C024E030E030930A0357
:100BE0002093090320917E03FC01E20FF11D36C022
:100BF00020ED260F2A3028F06A3331F040E050E033
:100C000005C04CE050E002C049E050E050930A03B8
:100C10004093090320917E03FC01E20FF11D4C304B
:100C20005105D9F41BC020ED260F2A3028F06A3375
:100C300031F040E050E005C04DE050E002C049E036
:100C400050E050930A034093090320917E03FC0176
:100C5000E20FF11D4D30510509F060E260832F5F16
:100C600020937E0322C06A3319F080E090E002C036
:100C700089E090E090930A038093090316C06B33D8
:100C800019F080E090E002C083E090E090930A03C6
:100C90008093090308C06B3311F423E030E03093F4
:100CA0000A032093090310927E0380910903909117
:100CB0000A0308954F925F926F927F928F929F9254
:100CC000AF92BF92CF92DF92EF92FF920F931F935A
:100CD000CF93DF93CDB7DEB72B970FB6F894DEBF77
:100CE0000FBECDBF688779878A879B876A014801D5
:100CF000590140E060E08DE193E00E94380510E08A
:100D000041E0612F81E00E948E041E5F1038C1F720
:100D100010E0412F69E485E50E948E041F5F1830C2
:100D2000C1F7C501B4010E942B092B013C014AE027
:100D3000BE016F5F7F4F888599850E94900A67E6A4
:100D400073E0CE0101960E94850A42E060E0CE0188
:100D500001960E9438054AE0BE016F5F7F4FC601D1
:100D60000E94900A67E673E0CE0101960E94850A10
:100D700043E060E0CE0101960E9438054AE0BE01E2
:100D80006F5F7F4FC2010E94900A20E030E040E296
:100D900051E4C501B4010E94180A4B015C01C20173
:100DA00099272AE0289FB001299F700D1124072E52
:100DB000000C880B990B0E9463099B01AC01C501D3
:100DC000B4010E9447080E942B09DC01CB014AE0D4
:100DD000BE016A5F7F4F0E94900A62E473E0CE0119
:100DE00001960E94850ABE016A5F7F4FCE0101967F
:100DF0000E94850A44E060E0CE0101960E94380519
:100E000045E060E0C7010E94380542E06BE28AE2FB
:100E100093E00E94380543E06BE28EE293E00E948B
:100E2000380544E06BE284E393E00E94380545E036
:100E30006BE287E393E00E9438052B960FB6F89497
:100E4000DEBF0FBECDBFDF91CF911F910F91FF90FD
:100E5000EF90DF90CF90BF90AF909F908F907F905A
:100E60006F905F904F900895EF92FF920F931F93B2
:100E7000CF93DF9300D000D01F92CDB7DEB7E82E1E
:100E8000F62E042F122F40E065E58CE393E00E94DC
:100E900038054AE0BE016F5F7F4F8E2D90E00E94C3
:100EA000900A67E673E0CE0101960E94850A42E04F
:100EB0006CE4CE0101960E9438054AE0BE016F5FE6
:100EC0007F4F8F2D90E00E94900A67E673E0CE017D
:100ED00001960E94850A43E06CE4CE0101960E94CF
:100EE00038054AE0BE016F5F7F4F802F90E00E947F
:100EF000900A67E673E0CE0101960E94850A45E0FC
:100F00006CE4CE0101960E94380546E06CE41111B4
:100F100003C084E493E002C08BE493E00E943805B0
:100F200042E063E682E593E00E94380543E063E631
:100F300088E593E00E94380545E063E68AE593E0A2
:100F40000E9438050F900F900F900F900F90DF9137
:100F5000CF911F910F91FF90EF9008958F92AF92D4
:100F6000CF92DF92EF92FF920F931F93CF93DF9375
:100F7000CDB7DEB7DD840E945A062D2D482D6A2D8F
:100F80008C2D0E94340746E062E08EE593E00E94DB
:100F9000380547E062E08EE593E0DF91CF911F9145
:100FA0000F91FF90EF90DF90CF90AF908F900C94C7
:100FB0003805CF93DF93882301F1EDEBE60FE231A3
:100FC00028F4F0E0E55FFC4FC08101C0C0E044239D
:100FD00021F0413021F4D0E803C0DFE701C0D0E0C8
:100FE000862F47E06C2F0E94140566E06C0F47E0E7
:100FF0008D2FDF91CF910C941405DF91CF9108953F
:10100000A1E21A2EAA1BBB1BFD010DC0AA1FBB1F0C
:10101000EE1FFF1FA217B307E407F50720F0A21B7E
:10102000B30BE40BF50B661F771F881F991F1A94EB
:1010300069F760957095809590959B01AC01BD0115
:10104000CF010895052E97FB1EF400940E943908E5
:1010500057FD07D00E94000807FC03D04EF40C9403
:10106000390850954095309521953F4F4F4F5F4F30
:10107000089590958095709561957F4F8F4F9F4F04
:101080000895EE0FFF1F0590F491E02D099450583C
:10109000BB27AA270E945F080C94D9090E94CB099C
:1010A00038F00E94D20920F039F49F3F19F426F459
:1010B0000C94C8090EF4E095E7FB0C94C209E92FE3
:1010C0000E94EA0958F3BA17620773078407950765
:1010D00020F079F4A6F50C940C0A0EF4E0950B2E92
:1010E000BA2FA02D0B01B90190010C01CA01A0017A
:1010F0001124FF27591B99F0593F50F4503E68F1D5
:101100001A16F040A22F232F342F4427585FF3CF15
:10111000469537952795A795F0405395C9F77EF4E6
:101120001F16BA0B620B730B840BBAF09150A1F02F
:10113000FF0FBB1F661F771F881FC2F70EC0BA0FB5
:10114000621F731F841F48F4879577956795B7953D
:10115000F7959E3F08F0B0CF9395880F08F0992738
:10116000EE0F9795879508950E949E0908F481E0F7
:1011700008950E94CD080C94D9090E94D20958F014
:101180000E94CB0940F029F45F3F29F00C94C2097A
:1011900051110C940D0A0C94C8090E94EA0968F3D5
:1011A0009923B1F3552391F3951B550BBB27AA2720
:1011B00062177307840738F09F5F5F4F220F331F5A
:1011C000441FAA1FA9F335D00E2E3AF0E0E832D022
:1011D00091505040E695001CCAF72BD0FE2F29D025
:1011E000660F771F881FBB1F261737074807AB07F7
:1011F000B0E809F0BB0B802DBF01FF2793585F4F6C
:101200003AF09E3F510578F00C94C2090C940D0AF7
:101210005F3FE4F3983ED4F3869577956795B7954D
:10122000F7959F5FC9F7880F911D9695879597F958
:101230000895E1E0660F771F881FBB1F62177307D1
:101240008407BA0720F0621B730B840BBA0BEE1FE6
:1012500088F7E09508950E9432096894B1110C94C2
:101260000D0A08950E94F20988F09F5798F0B92F4F
:101270009927B751B0F0E1F0660F771F881F991FCB
:101280001AF0BA95C9F714C0B13091F00E940C0A57
:10129000B1E008950C940C0A672F782F8827B85F67
:1012A00039F0B93FCCF3869577956795B395D9F723
:1012B0003EF490958095709561957F4F8F4F9F4F2D
:1012C0000895E89409C097FB3EF490958095709539
:1012D00061957F4F8F4F9F4F9923A9F0F92F96E982
:1012E000BB279395F695879577956795B795F111F7
:1012F000F8CFFAF4BB0F11F460FF1BC06F5F7F4F94
:101300008F4F9F4F16C0882311F096E911C07723A5
:1013100021F09EE8872F762F05C0662371F096E8AE
:10132000862F70E060E02AF09A95660F771F881F7D
:10133000DAF7880F9695879597F90895990F000821
:10134000550FAA0BE0E8FEEF16161706E807F90797
:10135000C0F012161306E407F50798F0621B730B32
:10136000840B950B39F40A2661F0232B242B252BB3
:1013700021F408950A2609F4A140A6958FEF811D56
:10138000811D089597F99F6780E870E060E00895F7
:101390009FEF80EC089500240A941616170618068D
:1013A0000906089500240A94121613061406050669
:1013B0000895092E0394000C11F4882352F0BB0FFA
:1013C00040F4BF2B11F460FF04C06F5F7F4F8F4F5D
:1013D0009F4F089557FD9058440F551F59F05F3F98
:1013E00071F04795880F97FB991F61F09F3F79F047
:1013F00087950895121613061406551FF2CF4695C9
:10140000F1DF08C0161617061806991FF1CF86954A
:101410007105610508940895E894BB27662777272E
:10142000CB0197F908950E949E0908F48FEF089563
:101430000E942B0A0C94D9090E94CB0938F00E9413
:10144000D20920F0952311F00C94C2090C94C8091C
:1014500011240C940D0A0E94EA0970F3959FC1F3C0
:10146000950F50E0551F629FF001729FBB27F00D52
:10147000B11D639FAA27F00DB11DAA1F649F6627A7
:10148000B00DA11D661F829F2227B00DA11D621FF6
:10149000739FB00DA11D621F839FA00D611D221FB0
:1014A000749F3327A00D611D231F849F600D211D94
:1014B000822F762F6A2F11249F5750409AF0F1F017
:1014C00088234AF0EE0FFF1FBB1F661F771F881F80
:1014D00091505040A9F79E3F510580F00C94C209ED
:1014E0000C940D0A5F3FE4F3983ED4F3869577950C
:1014F0006795B795F795E7959F5FC1F7FE2B880F26
:10150000911D9695879597F90895FB01DC010D9043
:101510000020E9F7119701900D920020E1F708955E
:10152000BB274A3031F4992322F4BDE2909581958E
:101530009F4F0C949C0ABB27FB015527AA27880FB5
:10154000991FAA1FA41710F0A41B83955051B9F737
:10155000A05DAA3308F0A95DA193009779F7B111B6
:10156000B1931192CB010C94B50ADC01FC01672FF9
:1015700071917723E1F7329704C07C916D9370836A
:0E1580006291AE17BF07C8F30895F894FFCF2D
:10158E0020202020202020004552524F21202000D4
:10159E002020202020202000000020413C000000C0
:1015AE000C0A0C00000000000000005F00000007A5
:1015BE00000700147F147F14242A7F2A1223130895
:1015CE00646236495522500005030000001C22417A
:1015DE00000041221C0014083E081408083E0808AA
:1015EE000050300000080808080800606000002065
:1015FE00100804023E5149453E00427F40004261C0
:10160E005149462141454B311814127F102745454B
:10161E0045393C4A49493001017905033649494962
:10162E0036064949291E003636000000563600009F
:10163E000814224100141414141441221408000238
:10164E00015109063E415D555E7E0909097E7F49BD
:10165E004949363E414141227F4141221C7F494941
:10166E0041417F090909013E4141497A7F08080835
:10167E007F00417F41002040413F017F08142241FD
:10168E007F404040407F020C027F7F0408107F3E67
:10169E004141413E7F090909063E4151215E7F09C4
:1016AE00192946464949493101017F01013F404010
:1016BE00403F1F2040201F3F403F403F631408140F
:1016CE006307087808076151494543007F4141008F
:1016DE0001020408100041417F000402010204408F
:1016EE0040404040000003050020545454787F4889
:1016FE004444383844444420384444487F38545491
:10170E005418087E090102085454543C7F080404FE
:10171E007800447D40002040453C007F1028440066
:10172E0000417F40007C043804787C08040478383B
:10173E00444444387C14141408081414187C7C088F
:10174E000404084854545420043F4440203C404074
:10175E00207C1C2040201C3C403C403C442810284F
:10176E00440C5050503C4464544C440008364100E4
:10177E0000007F00000041360800100810201020E5
:10178E0040FF40200402FF0204010026000000007A
:10179E0000000000000000380000000014446164E6
:1017AE006F73207669746169730062706D002553E2
:1017BE00704F32006F43006D6D486700506172616B
:1017CE006D732E00464F52434544004153534953C7
:1017DE005400722F6D696E002500766F6C0020200C
:0A17EE0020202020202020202000D1
:00000001FF
