:100000000C9432010C94B6060C94E8060C941A0772
:100010000C944F010C9434070C944F010C944F0135
:100020000C944F010C944F010C944F010C944F0110
:100030000C944F010C944F010C942A060C944F0120
:100040000C944F010C944F010C94AE070C944F018B
:100050000C944F010C948D050C944F010C944F019E
:100060000C944F010C944F01D204C604590452045D
:100070007F046C0460046704DC04C604DC04DC0454
:100080009A04BA04000000000000005F00000007AE
:10009000000700147F147F14242A7F2A12231308D8
:1000A000646236495522500005030000001C2241BD
:1000B000000041221C0014083E081408083E0808ED
:1000C00000503000000808080808006060000020A8
:1000D000100804023E5149453E00427F4000426103
:1000E0005149462141454B311814127F102745458F
:1000F00045393C4A494930017109050336494949A6
:1001000036064949291E00363600000056360000E2
:10011000081422410014141414140041221408027B
:1001200001510906324979413E7E1111117E7F4904
:100130004949363E414141227F4141221C7F494984
:1001400049417F090909013E4149497A7F08080868
:100150007F00417F41002040413F017F0814224140
:100160007F404040407F020C027F7F0408107F3EAA
:100170004141413E7F090909063E4151215E7F0907
:10018000192946464949493101017F01013F404053
:10019000403F1F2040201F3F4038403F6314081459
:1001A0006307087008076151494543007F414100DA
:1001B00002040810200041417F00040201020440B3
:1001C00040404040000102040020545454787F48CD
:1001D0004444383844444420384444487F385454D4
:1001E0005418087E0901020C5252523E7F08040442
:1001F0007800447D40002040443D007F10284400AA
:1002000000417F40007C041804787C08040478389E
:10021000444444387C14141408081414187C7C08D2
:100220000404084854545420043F4440203C4040B7
:10023000207C1C2040201C3C4030403C442810289E
:10024000440C5050503C4464544C44000836410027
:1002500000007F0000004136080010080810080068
:100260000000000011241FBECFEFD8E0DEBFCDBFDD
:1002700011E0A0E0B1E0E2EAF5E102C005900D92E4
:10028000A036B107D9F723E0A0E6B1E001C01D9286
:10029000A23BB207E1F70E94E5040C94CF0A0C944C
:1002A00000002091600180910001909101012930AE
:1002B00050F482529F4F90930101809300012F5F71
:1002C000209360010BC08E5D910990930101809392
:1002D0000001803D974011F410926001809100016F
:1002E0009091010108954298662311F0449A01C04B
:1002F000449827E030E090E0AC01022E02C0559512
:1003000047950A94E2F740FF02C0459A01C045981C
:10031000469A46982150310978F7429A089560E04C
:100320000C947301CF93DF933A9A3B9A3C9A3D9A8F
:100330003E9A439A429A8FE39CE90197F1F700C0F5
:10034000000043989FEF2AE683E0915020408040D0
:10035000E1F700C00000439A429881E20E948F01B9
:1003600083E10E948F0186E00E948F0182EC0E944F
:100370008F0180E20E948F0189E00E948F0180E856
:100380000E948F0180E40E948F01C8EFD1E061E0FC
:1003900080E00E9473012197D1F788E00E948F01CD
:1003A0008CE0DF91CF910C948F0180E80E948F0147
:1003B00080E40E948F011092A1031092A203E9EA47
:1003C000F1E0119283E0E13AF807D9F70895962F0A
:1003D000969596959695E82FF0E084E5989FE00D28
:1003E000F11D1124E755FE4F677081E090E001C0D8
:1003F000880F6A95EAF7442319F09081892B03C08E
:1004000080959081892380830895BF92CF92DF9257
:10041000EF92FF920F931F93CF93DF93D62E95E029
:10042000699FE001112497E0699F80011124B12C9C
:10043000082E000C990B809725E0289F7001299FBA
:10044000F00C11248B2D90E08C179D0754F5C12CD6
:100450008C2D90E08017910714F58B2D6D2D0E9447
:10046000FC07F701E80FF11DEC57FF4FE491F0E0B6
:100470008C2D0E94FC0702C0F595E7958A95E2F75E
:100480006091A2038091A1036C0DE0FF02C041E0E6
:1004900001C040E08B0D0E94E701C394D9CFB39413
:1004A000D1CF8091A10391E0980F8D2D880F880FF7
:1004B0008D0D890F843518F48093A1030BC0109221
:1004C000A1038091A2038F5F97E0D99E800D112434
:1004D0008093A2038091A203803320F01092A103A5
:1004E0001092A203DF91CF911F910F91FF90EF9097
:1004F000DF90CF90BF9008951F93CF93DF93162F77
:10050000EC018991882321F0612F0E940502F9CF27
:10051000DF91CF911F9108958093A1036093A2036F
:100520000895CF93DF9380E80E948F0180E40E94BA
:100530008F01C9EAD1E061E089910E94730183E0F3
:10054000C13AD807C1F7DF91CF9108952F923F921A
:100550004F925F926F927F928F929F92AF92BF92D3
:10056000CF92DF92EF92FF920F931F93CF93DF937F
:10057000CDB7DEB769970FB6F894DEBF0FBECDBF1B
:10058000982E698F19012A0135010E94D501B12CDD
:1005900041E069E08B2D0E94E701B39424E5B2129B
:1005A000F7CF81E0981609F4B9C09816F8F022E068
:1005B0009212FAC060E080E00E948C0261E087E461
:1005C00091E00E947C024AE0BE016C5E7F4F298D63
:1005D000822F90E00E949A0A4AE0BE01675F7F4F37
:1005E000882D90E00E949A0A6EE1B3C0C701B6015F
:1005F0000E9447094B015C0160E080E00E948C0290
:1006000061E085E291E00E947C024AE0BE016F5FFA
:100610007F4FC1010E949A0A4AE0BE01635F7F4F8B
:10062000C8010E949A0A4AE0BE016F5E7F4FC40172
:100630000E949A0A20E030E040E251E4C701B6018E
:100640000E942D0A6B017C018AE0889DB001899D82
:10065000700D112480E090E00E9476099B01AC01AE
:10066000C701B6010E9463080E944709862F4AE02D
:10067000BE01695E7F4F90E00E949A0A6CE082E0C2
:100680000E948C0261E0CE0101960E947C0265E12D
:1006900082E00E948C0261E0CE0141960E947C02C1
:1006A00061E083E391E00E947C0261E0CE01479625
:1006B0000E947C026FE182E00E948C0261E0CE0128
:1006C0000D960E947C0269E282E00E948C0261E049
:1006D000C3010E947C026CE082E30E948C0261E014
:1006E00085E391E00E947C0265E182E30E948C0236
:1006F00061E089E391E00E947C026FE182E30E9465
:100700008C0261E08CE391E00E947C0269E282E36A
:100710000E948C0261E082E491E044C060E080E0ED
:100720000E948C0261E087E491E00E947C024AE032
:10073000BE016C5E7F4F298D822F90E00E949A0A45
:100740004AE0BE01675F7F4F882D90E00E949A0AC1
:100750006FE082E00E948C0261E08AE20E94050262
:100760006FE08AE00E948C0261E0CE0144960E9414
:100770007C026EE18AE00E948C0261E0CE01099663
:100780000E947C026FE084E20E948C0261E083E5BB
:1007900091E00E947C026EE184E20E948C0261E0A2
:1007A0008CE591E00E947C020E94910269960FB64E
:1007B000F894DEBF0FBECDBFDF91CF911F910F9197
:1007C000FF90EF90DF90CF90BF90AF909F908F9071
:1007D0007F906F905F904F903F902F90089587B1DA
:1007E0008C6F87B984B18E6F84B98AB183668AB9F8
:1007F0008BB18C688BB9289A089582E084BD83E020
:1008000085BD89EF87BD8FE39CE990938700809336
:10081000860082EA809380008AE18093810080EDE7
:1008200097E0909389008093880090938B00809349
:100830008A0008958AE08093690083E08DBB85E09B
:100840008093680081E080936B0080E180936D006D
:1008500082E080936E007894089581E480937C0018
:1008600087EE80937A0010927B008CE380937E0069
:10087000089588E98093C10086E08093C2001092B9
:10088000C50087E68093C40008952091020130914D
:1008900003012E30310508F08FC0F901EC5CFF4FE9
:1008A0000C945D0820ED260F2A30D0F422E030E0D1
:1008B0001CC020ED260F2A3050F426E030E015C091
:1008C00020ED260F2A3018F427E030E00EC06837FC
:1008D00039F425E030E009C020ED260F2A3018F069
:1008E00020E030E002C024E030E0309303012093A8
:1008F00002012091A303FC01E20FF11D36C020ED9F
:10090000260F2A3028F06A3331F040E050E005C06D
:100910004CE050E002C049E050E0509303014093A6
:1009200002012091A303FC01E20FF11D4C3051059F
:10093000D9F41BC020ED260F2A3028F06A3331F09D
:1009400040E050E005C04DE050E002C049E050E01A
:1009500050930301409302012091A303FC01E20F95
:10096000F11D4D30510509F060E260832F5F209347
:10097000A30322C06A3319F080E090E002C089E04E
:1009800090E0909303018093020116C06B3319F03D
:1009900080E090E002C083E090E0909303018093B8
:1009A000020108C06B3311F423E030E030930301FF
:1009B000209302011092A303809102019091030100
:1009C00008950E9492010C94D5010E94EF030E94A9
:1009D000FD030E942D040E941A040E9439040E9403
:1009E000E104C0E024E1622E712CD4E68091AA03D8
:1009F000882309F474C080918A0090918B00C09084
:100A00001C01D0901D01E0901E01F0901F0100918B
:100A1000B0031091B103209020013090210140904B
:100A2000220150902301F0912401E091A903B30128
:100A30000E9408088CE9882E860E94E1A92E91E088
:100A4000B92EA20191016F2F8E2F0E94A602C130F4
:100A5000B9F080F0C23011F1C33041F5809120012E
:100A600090912101A0912201B09123018093C600B1
:100A7000C4E033C0809124018093C600C1E02DC042
:100A800060911C0170911D0180911E0190911F01C8
:100A90000E9447096093C600C2E01FC08091B00366
:100AA0009091B1038093C600C3E017C080E090E04E
:100AB0002091C00025FFFCCFFC01EC5EFE4F2081A1
:100AC0002093C60001968830910591F78091C0006F
:100AD00085FFFCCFD093C600C0E01092AA0380919E
:100AE000AB03882309F482CF809124010E94510135
:100AF00090938900809388001092AB038091A803A3
:100B0000811174CF8091880090918900803D974039
:100B100011F45D9A6BCF5D9869CF1F920F920FB65B
:100B20000F9211242F933F934F935F936F937F9373
:100B30008F939F93AF93BF93EF93FF9380917A002E
:100B4000877F80937A0080917C006091780070911B
:100B5000790080FF11C080E090E00E9476092DE6C8
:100B600037EE4BEF5DE30E942D0A0E944709709318
:100B7000B1036093B00314C063537F4F80E090E0F3
:100B80000E94760924E13EEA43EA51E40E94D50836
:100B900060931C0170931D0180931E0190931F01AF
:100BA0008091B0039091B103CC9700F160911C014A
:100BB00070911D0180911E0190911F0120E030E095
:100BC0004CE052E40E94D00887FD10C060911C01E7
:100BD00070911D0180911E0190911F0120E030E075
:100BE00044E252E40E94280A1816D4F481E080936B
:100BF000A8036091AC037091AD038091AE03909116
:100C0000AF032CE231E040E050E00E941C08672B6B
:100C1000682B692B41F09BB180E289278BB903C017
:100C20005D981092A80390917C0081E089278093C1
:100C30007C00FF91EF91BF91AF919F918F917F9138
:100C40006F915F914F913F912F910F900FBE0F9039
:100C50001F9018951F920F920FB60F921124CF92EA
:100C6000DF92EF92FF922F933F934F935F936F9397
:100C70007F938F939F93AF93BF93EF93FF93809155
:100C8000AC039091AD03A091AE03B091AF03019678
:100C9000A11DB11D8093AC039093AD03A093AE034F
:100CA000B093AF03C090AC03D090AD03E090AE031F
:100CB000F090AF032091240182E1289F900111243C
:100CC000032E000C440B550B60E67AEE80E090E0BA
:100CD0000E943E08C701B6010E941C08672B682BC2
:100CE000692B19F481E08093AB036091AC037091A0
:100CF000AD038091AE039091AF0326E930E040E070
:100D000050E00E941C08672B682B692B29F4809106
:100D10007A00886080937A006091AC037091AD0393
:100D20008091AE039091AF0328EC30E040E050E0BA
:100D30000E941C08672B682B692B19F481E08093B3
:100D4000AA03FF91EF91BF91AF919F918F917F91F6
:100D50006F915F914F913F912F91FF90EF90DF90B6
:100D6000CF900F900FBE0F901F9018951F920F926B
:100D70000FB60F9211242F938F939F938091A90305
:100D8000813019F0823059F01BC0809124018E31DE
:100D9000B8F4809124018F5F8093240111C0809169
:100DA0008A0090918B00803A9F4050F480918A0095
:100DB00090918B0088539F4F90938B0080938A0073
:100DC0009F918F912F910F900FBE0F901F901895AC
:100DD0001F920F920FB60F9211242F938F939F9310
:100DE0008091A903813019F0823059F01BC08091A5
:100DF00024018630B8F08091240181508093240131
:100E000011C080918A0090918B00813D974050F0F5
:100E100080918A0090918B00885C910990938B005F
:100E200080938A009F918F912F910F900FBE0F900A
:100E30001F9018951F920F920FB60F9211248F9347
:100E400018990CC08091A903823030F48091A903D5
:100E50008F5F8093A90302C01092A9038F910F9016
:100E60000FBE0F901F9018951F920F920FB60F9202
:100E700011242F933F934F935F936F937F938F939F
:100E80009F93AF93BF93EF93FF934C9B11C08091BF
:100E9000AC039091AD03A091AE03B091AF038093EA
:100EA000A4039093A503A093A603B093A70345C002
:100EB0004C9943C08091AC039091AD03A091AE03D7
:100EC000B091AF034091A4035091A5036091A60394
:100ED0007091A703481759076A077B0770F580913F
:100EE000AC039091AD03A091AE03B091AF03841B0E
:100EF000950BA60BB70B880F991FAA1FBB1F8093DA
:100F0000200190932101A0932201B093230120910D
:100F1000200130912101409122015091230160E68E
:100F20007AEE80E090E00E941C082093200130932C
:100F300021014093220150932301FF91EF91BF9132
:100F4000AF919F918F917F916F915F914F913F9161
:100F50002F910F900FBE0F901F9018951F920F9218
:100F60000FB60F9211242F933F934F935F936F937C
:100F70007F938F939F93AF93BF93EF93FF93609172
:100F8000C60084E091E00E944504009799F4E4E0F3
:100F9000F1E080E090E020E2DC01A45FBE4F3C91F4
:100FA000DC01AC5EBE4F3C932193019688309105E5
:100FB00099F711C0099779F4E4E0F1E080E090E05E
:100FC00020E23081DC01AC5EBE4F3C932193019660
:100FD00087309105B1F7FF91EF91BF91AF919F914C
:100FE0008F917F916F915F914F913F912F910F90D2
:100FF0000FBE0F901F901895991B79E004C0991FA0
:10100000961708F0961B881F7A95C9F78095089562
:10101000AA1BBB1B51E107C0AA1FBB1FA617B7071E
:1010200010F0A61BB70B881F991F5A95A9F780953A
:101030009095BC01CD010895A1E21A2EAA1BBB1BFD
:10104000FD010DC0AA1FBB1FEE1FFF1FA217B30794
:10105000E407F50720F0A21BB30BE40BF50B661FAA
:10106000771F881F991F1A9469F76095709580956E
:1010700090959B01AC01BD01CF010895052E97FB12
:101080001EF400940E94550857FD07D00E941C08CA
:1010900007FC03D04EF40C945508509540953095BC
:1010A00021953F4F4F4F5F4F0895909580957095D4
:1010B00061957F4F8F4F9F4F0895EE0FFF1F059053
:1010C000F491E02D09945058BB27AA270E947B0871
:1010D0000C94EE090E94E00938F00E94E70920F024
:1010E00039F49F3F19F426F40C94DD090EF4E095D1
:1010F000E7FB0C94D709E92F0E94FF0958F3BA17B0
:10110000620773078407950720F079F4A6F50C941D
:10111000210A0EF4E0950B2EBA2FA02D0B01B90178
:1011200090010C01CA01A0011124FF27591B99F05D
:10113000593F50F4503E68F11A16F040A22F232F69
:10114000342F4427585FF3CF469537952795A795B9
:10115000F0405395C9F77EF41F16BA0B620B730B60
:10116000840BBAF09150A1F0FF0FBB1F661F771FD1
:10117000881FC2F70EC0BA0F621F731F841F48F486
:10118000879577956795B795F7959E3F08F0B0CF0F
:101190009395880F08F09927EE0F979587950895F6
:1011A0000E94B30908F481E008950E94E9080C94B4
:1011B000EE090E94E70958F00E94E00940F029F486
:1011C0005F3F29F00C94D70951110C94220A0C941A
:1011D000DD090E94FF0968F39923B1F3552391F3C8
:1011E000951B550BBB27AA2762177307840738F096
:1011F0009F5F5F4F220F331F441FAA1FA9F335D0F3
:101200000E2E3AF0E0E832D091505040E695001CA6
:10121000CAF72BD0FE2F29D0660F771F881FBB1F60
:10122000261737074807AB07B0E809F0BB0B802D3E
:10123000BF01FF2793585F4F3AF09E3F510578F06A
:101240000C94D7090C94220A5F3FE4F3983ED4F340
:10125000869577956795B795F7959F5FC9F7880F3E
:10126000911D9695879597F90895E1E0660F771F90
:10127000881FBB1F621773078407BA0720F0621B21
:10128000730B840BBA0BEE1F88F7E09508950E944C
:10129000070A88F09F5798F0B92F9927B751B0F0F7
:1012A000E1F0660F771F881F991F1AF0BA95C9F7EA
:1012B00014C0B13091F00E94210AB1E008950C945D
:1012C000210A672F782F8827B85F39F0B93FCCF310
:1012D000869577956795B395D9F73EF49095809567
:1012E000709561957F4F8F4F9F4F0895E89409C087
:1012F00097FB3EF490958095709561957F4F8F4F49
:101300009F4F9923A9F0F92F96E9BB279395F6955E
:10131000879577956795B795F111F8CFFAF4BB0FDC
:1013200011F460FF1BC06F5F7F4F8F4F9F4F16C040
:10133000882311F096E911C0772321F09EE8872FCA
:10134000762F05C0662371F096E8862F70E060E086
:101350002AF09A95660F771F881FDAF7880F9695FF
:10136000879597F90895990F0008550FAA0BE0E8A3
:10137000FEEF16161706E807F907C0F01216130657
:10138000E407F50798F0621B730B840B950B39F497
:101390000A2661F0232B242B252B21F408950A26FD
:1013A00009F4A140A6958FEF811D811D089597F93D
:1013B0009F6780E870E060E008959FEF80EC0895FB
:1013C00000240A9416161706180609060895002424
:1013D0000A9412161306140605060895092E03949E
:1013E000000C11F4882352F0BB0F40F4BF2B11F412
:1013F00060FF04C06F5F7F4F8F4F9F4F089557FD71
:101400009058440F551F59F05F3F71F04795880F72
:1014100097FB991F61F09F3F79F087950895121609
:1014200013061406551FF2CF4695F1DF08C01616B5
:1014300017061806991FF1CF869571056105089466
:101440000895E894BB2766277727CB0197F908957D
:101450000E94B30908F48FEF08950E94400A0C948B
:10146000EE090E94E00938F00E94E70920F0952378
:1014700011F00C94D7090C94DD0911240C94220A64
:101480000E94FF0970F3959FC1F3950F50E0551F1F
:10149000629FF001729FBB27F00DB11D639FAA27C9
:1014A000F00DB11DAA1F649F6627B00DA11D661F18
:1014B000829F2227B00DA11D621F739FB00DA11D39
:1014C000621F839FA00D611D221F749F3327A00DF3
:1014D000611D231F849F600D211D822F762F6A2F8F
:1014E00011249F5750409AF0F1F088234AF0EE0FF4
:1014F000FF1FBB1F661F771F881F91505040A9F721
:101500009E3F510580F00C94D7090C94220A5F3F4E
:10151000E4F3983ED4F3869577956795B795F7955C
:10152000E7959F5FC1F7FE2B880F911D96958795D4
:1015300097F90895BB274A3031F4992322F4BDE28C
:10154000909581959F4F0C94A60ABB27FB015527C8
:10155000AA27880F991FAA1FA41710F0A41B839510
:101560005051B9F7A05DAA3308F0A95DA193009787
:1015700079F7B111B1931192CB010C94BF0ADC0140
:10158000FC01672F71917723E1F7329704C07C91BA
:101590006D9370836291AE17BF07C8F30895F894F6
:0215A000FFCF7B
:1015A200D007010020202020202020004552524F49
:1015B2002120200020202020202020000000204187
:1015C2003C0000000C204461646F732076697461F2
:1015D2006973002E0062706D006F43002553704FD7
:1015E20032006D6D48670020506172616D657472E2
:1015F2006F7300726573702F6D696E00254F320034
:00000001FF
