:100000000C9424010C9451060C9466060C94410146
:100010000C9441010C947B060C9441010C94410119
:100020000C9441010C9441010C9459050C9441012C
:100030000C9441010C9441010C94C0050C944101B5
:100040000C9441010C9441010C9491060C944101D3
:100050000C9441010C94C7040C9441010C9441018F
:100060000C9441010C944101000000000000005F6D
:1000700000000007000700147F147F14242A7F2A41
:10008000122313086462364955225000050300000C
:10009000001C2241000041221C0014083E081408E4
:1000A000083E0808005030000008080808080060F2
:1000B00060000020100804023E5149453E00427F86
:1000C000400042615149462141454B311814127F8D
:1000D0001027454545393C4A494930017109050316
:1000E0003649494936064949291E0036360000007E
:1000F0005636000008142241001414141414004150
:100100002214080201510906324979413E7E11113B
:10011000117E7F494949363E414141227F4141227A
:100120001C7F494949417F090909013E4149497AF2
:100130007F0808087F00417F41002040413F017F48
:10014000081422417F404040407F020C027F7F0420
:1001500008107F3E4141413E7F090909063E415159
:10016000215E7F09192946464949493101017F012C
:10017000013F4040403F1F2040201F3F4038403F4C
:100180006314081463070870080761514945430068
:100190007F41410002040810200041417F00040219
:1001A0000102044040404040000102040020545439
:1001B00054787F48444438384444442038444448C0
:1001C0007F3854545418087E0901020C5252523E92
:1001D0007F0804047800447D40002040443D007FB7
:1001E0001028440000417F40007C041804787C08FB
:1001F00004047838444444387C1414140808141453
:10020000187C7C080404084854545420043F44409B
:10021000203C4040207C1C2040201C3C4030403C86
:1002200044281028440C5050503C4464544C440022
:100230000836410000007F00000041360800100829
:10024000081008000000000011241FBECFEFD8E006
:10025000DEBFCDBF11E0A0E0B1E0EEEBF2E102C005
:1002600005900D92AC33B107D9F723E0ACE3B1E0D0
:1002700001C01D92A039B207E1F70E9485040C94D9
:100280005D090C94000090913D0180913C019830F3
:1002900040F4880F8F5F80933C019F5F90933D01F6
:1002A00007C0869580933C01811102C010923D01E8
:1002B00080913C0108954298662311F0449A01C050
:1002C000449827E030E090E0AC01022E02C0559542
:1002D00047950A94E2F740FF02C0459A01C045984D
:1002E000469A46982150310978F7429A089560E07D
:1002F0000C945B01CF93DF933A9A3B9A3C9A3D9AD8
:100300003E9A439A429A8FE39CE90197F1F700C025
:10031000000043989FEF2AE683E091502040804000
:10032000E1F700C00000439A429881E20E94770101
:1003300083E10E94770186E00E94770182EC0E94AF
:10034000770180E20E94770189E00E94770180E8CE
:100350000E94770180E40E947701C8EFD1E061E05C
:1003600080E00E945B012197D1F788E00E9477012D
:100370008CE0DF91CF910C94770180E80E947701A7
:1003800080E40E94770110927E0310927F03E6E8DA
:10039000F1E0119283E0EE37F807D9F70895962F30
:1003A000969596959695E82FF0E084E5989FE00D58
:1003B000F11D1124EA57FE4F677081E090E001C003
:1003C000880F6A95EAF7442319F09081892B03C0BE
:1003D00080959081892380830895BF92CF92DF9288
:1003E000EF92FF920F931F93CF93DF93D62E95E05A
:1003F000699FE001112497E0699F80011124B12CCD
:10040000082E000C990B809725E0289F7001299FEA
:10041000F00C11248B2D90E08C179D0754F5C12C06
:100420008C2D90E08017910714F58B2D6D2D0E9477
:10043000A406F701E80FF11DE859FF4FE491F0E041
:100440008C2D0E94A40602C0F595E7958A95E2F7E7
:1004500060917F0380917E036C0DE0FF02C041E05C
:1004600001C040E08B0D0E94CF01C394D9CFB3945B
:10047000D1CF80917E0391E0980F8D2D880F880F4A
:100480008D0D890F843518F480937E030BC0109274
:100490007E0380917F038F5F97E0D99E800D1124AA
:1004A00080937F0380917F03803320F010927E033E
:1004B00010927F03DF91CF911F910F91FF90EF90EA
:1004C000DF90CF90BF9008951F93CF93DF93162FA7
:1004D000EC018991882321F0612F0E94ED01F9CF71
:1004E000DF91CF911F91089580937E0360937F03E6
:1004F0000895CF93DF9380E80E94770180E40E9403
:100500007701C6E8D1E061E089910E945B0183E058
:10051000CE37D807C1F7DF91CF910895DC01AA5BF0
:10052000BF4F2C9121110AC020913E0131E0320FC2
:1005300030933E01FC01E20FF11D06C0FC018181F8
:100540008193EA17FB07D9F760830895DF92EF9252
:10055000FF920F931F93CF93DF9300D000D000D072
:10056000CDB7DEB7082F7B01D42E0E94BD01EAE291
:10057000F3E022EE32E08291806480832E173F0701
:10058000D1F715E241E0612F8CE00E94CF011150BC
:100590001530C1F710927E0310927F034AE0BE012E
:1005A0006F5F7F4F8D2D90E00E94280961E0CE01A2
:1005B00001960E94640286E080937E038EE1809320
:1005C0007F0361E085E191E00E9464024AE0BE01A0
:1005D0006C5F7F4F802F90E00E9428098AE0809313
:1005E0007E030A3070F418E210937F0361E085E126
:1005F00091E00E94640280E180937E0310937F0368
:1006000003C088E280937F0361E0CE0104960E94DC
:10061000640261E0C7010E946402602F8FE391E0F1
:100620000E948E0286E8E82E81E0F82E13E506E2AD
:10063000F70182917F01602F681B41E0812F0E94AA
:10064000CF0111501C30A1F726960FB6F894DEBFEB
:100650000FBECDBFDF91CF911F910F91FF90EF9013
:10066000DF9008954F925F926F927F928F929F9248
:10067000AF92BF92CF92DF92EF92FF920F931F93B0
:10068000CF93DF93CDB7DEB768970FB6F894DEBF90
:100690000FBECDBF882E962E2D8B3E8B4F8B588F45
:1006A0000E94BD014EE167E171E0892D0E94A60222
:1006B0008110B9C00E94BD01C701B6010E94D507D3
:1006C0002B013C0160E08AE20E94740261E080E25A
:1006D00091E00E9464026AE08AE20E94740261E092
:1006E00088E291E00E94640264E18AE20E9474025E
:1006F00061E08CE291E00E9464026EE18AE20E9475
:10070000740261E08FE291E00E94640268E28AE292
:100710000E94740261E085E391E00E9464024AE075
:10072000BE01605F7F4F892D90E00E9428094AE05A
:10073000BE016F5F7F4F8D899E890E9428094AE024
:10074000BE01675F7F4FC8010E9428094AE0BE01D1
:10075000635F7F4FC2010E94280920E030E040E241
:1007600051E4C701B6010E94BB086B017C018AE01D
:10077000849DB001859D700D112480E090E00E9461
:1007800004089B01AC01C701B6010E94F1060E945A
:10079000D507862F4AE0BE016D5E7F4F90E00E9434
:1007A000280989E060E0891548F080E00E94740221
:1007B00061E085E191E00E94640203C080E00E9454
:1007C000740261E0CE0140960E9464026AE080E01B
:1007D0000E94740261E0CE0101960E94640264E10D
:1007E00080E00E94740261E0CE010D960E946402D6
:1007F00061E08AE391E00E94640261E0CE014396E9
:100800000E9464026EE180E00E94740261E0CE0109
:1008100009960E94640268E280E00E94740261E02E
:10082000C5010E9464020E94790268960FB6F8948E
:10083000DEBF0FBECDBFDF91CF911F910F91FF9013
:10084000EF90DF90CF90BF90AF909F908F907F9070
:100850006F905F904F90089587B18C6F87B984B186
:100860008E6F84B98AB183678AB98BB18C688BB972
:10087000289A089582E084BD83E085BD89EF87BD15
:1008800085E4809381001092850010928400089581
:100890008AE08093690083E08DBB84E080936800E8
:1008A00080E880936D0082E080936E00EFE6F0E0D8
:1008B0008081806280837894089581E480937C00B5
:1008C00087EE80937A0010927B008CE380937E0009
:1008D000089588E98093C10086E08093C200109259
:1008E000C50087E68093C40008950E947A010C94A5
:1008F000BD01809114010E94430180FF02C05E9AF5
:1009000001C05E988E7F85B908950E942C040E94D4
:100910003A040E945D040E9448040E9469040E94F7
:100920007504C1E480918303882301F1C0908A0398
:10093000D0908B03E0908C03F0908D0300918E0398
:1009400010918F03209110013091110140911201FB
:1009500050911301609114018091820398E0A92EB7
:1009600091E0B92E0E943203109283038091840398
:10097000882321F00E9479041092840380918103DE
:10098000882381F2C093C60010928103CBCF1F92BF
:100990000F920FB60F9211242F933F934F935F93B3
:1009A0006F937F938F939F93AF93BF93EF93FF9337
:1009B00080917A00877F80937A0080917C0060919B
:1009C00078007091790080FF11C080E090E00E9473
:1009D00004082DE637EE4BEF5DE30E94BB080E9452
:1009E000D50770938F0360938E0314C063537F4FBA
:1009F00080E090E00E94040824E13EEA43EA51E4EA
:100A00000E94630760938A0370938B0380938C0327
:100A100090938D0380918E0390918F03CC9700F17A
:100A200060918A0370918B0380918C0390918D0368
:100A300020E030E04CE052E40E945E0787FD10C0E9
:100A400060918A0370918B0380918C0390918D0348
:100A500020E030E044E252E40E94B6081816BCF4EC
:100A6000609185037091860380918703909188033C
:100A70002CE231E040E050E00E94B006672B682B8A
:100A8000692B31F49BB180E289278BB901C05D9855
:100A9000FF91EF91BF91AF919F918F917F916F9156
:100AA0005F914F913F912F910F900FBE0F901F902C
:100AB00018951F920F920FB60F9211242F933F9308
:100AC0004F935F936F937F938F939F93AF93BF9356
:100AD000EF93FF938091860090918700A0E0B0E0B3
:100AE00026E0880F991FAA1FBB1F2A95D1F7809374
:100AF000100190931101A0931201B0931301609122
:100B0000100170911101809112019091130128EE52
:100B100033E040E050E00E94B00620931001309393
:100B20001101409312015093130120911001309153
:100B30001101409112015091130160E67AEE80E0BC
:100B400090E00E94B0062093100130931101409371
:100B50001201509313011092850010928400FF91AE
:100B6000EF91BF91AF919F918F917F916F915F9125
:100B70004F913F912F910F900FBE0F901F9018959E
:100B80001F920F920FB60F921124CF92DF92EF9225
:100B9000FF922F933F934F935F936F937F938F9326
:100BA0009F93AF93BF93EF93FF93809185039091B1
:100BB0008603A0918703B09188030196A11DB11D02
:100BC0008093850390938603A0938703B093880353
:100BD000C0908503D0908603E0908703F09088034F
:100BE0002091140180E1289F90011124032E000C14
:100BF000440B550B60E67AEE80E090E00E94D2064E
:100C0000C701B6010E94B006672B682B692B19F447
:100C100081E08093840360918503709186038091C5
:100C200087039091880326E930E040E050E00E947D
:100C3000B006672B682B692B29F480917A008860B5
:100C400080937A0060918503709186038091870379
:100C50009091880328EC30E040E050E00E94B0061C
:100C6000672B682B692B41F481E08093830390917B
:100C70007C00892780937C00FF91EF91BF91AF9119
:100C80009F918F917F916F915F914F913F912F91A4
:100C9000FF90EF90DF90CF900F900FBE0F901F90BE
:100CA00018951F920F920FB60F9211248F93809177
:100CB00014018E3128F4809114018F5F8093140108
:100CC0008F910F900FBE0F901F9018951F920F924B
:100CD0000FB60F9211248F9380911401863028F063
:100CE000809114018150809314018F910F900FBE59
:100CF0000F901F9018951F920F920FB60F9211240C
:100D00008F939F934F9906C09091820381E089272A
:100D1000809382039F918F910F900FBE0F901F9031
:100D200018951F920F920FB60F9211248F938091F6
:100D3000C6008093890381E0809381038F910F9097
:100D40000FBE0F901F901895991B79E004C0991F52
:100D5000961708F0961B881F7A95C9F78095089515
:100D6000A1E21A2EAA1BBB1BFD010DC0AA1FBB1FAF
:100D7000EE1FFF1FA217B307E407F50720F0A21B21
:100D8000B30BE40BF50B661F771F881F991F1A948E
:100D900069F760957095809590959B01AC01BD01B8
:100DA000CF010895052E97FB1EF400940E94E906DA
:100DB00057FD07D00E94B00607FC03D04EF40C94F8
:100DC000E90650954095309521953F4F4F4F5F4F25
:100DD000089590958095709561957F4F8F4F9F4FA7
:100DE00008955058BB27AA270E9409070C947C0835
:100DF0000E946E0838F00E94750820F039F49F3F79
:100E000019F426F40C946B080EF4E095E7FB0C94AF
:100E10006508E92F0E948D0858F3BA176207730717
:100E20008407950720F079F4A6F50C94AF080EF42A
:100E3000E0950B2EBA2FA02D0B01B90190010C01EA
:100E4000CA01A0011124FF27591B99F0593F50F402
:100E5000503E68F11A16F040A22F232F342F44275A
:100E6000585FF3CF469537952795A795F040539552
:100E7000C9F77EF41F16BA0B620B730B840BBAF022
:100E80009150A1F0FF0FBB1F661F771F881FC2F78D
:100E90000EC0BA0F621F731F841F48F487957795A1
:100EA0006795B795F7959E3F08F0B0CF9395880F5B
:100EB00008F09927EE0F9795879508950E944108AD
:100EC00008F481E008950E9477070C947C080E9442
:100ED000750858F00E946E0840F029F45F3F29F031
:100EE0000C94650851110C94B0080C946B080E9486
:100EF0008D0868F39923B1F3552391F3951B550B96
:100F0000BB27AA2762177307840738F09F5F5F4FDC
:100F1000220F331F441FAA1FA9F335D00E2E3AF01B
:100F2000E0E832D091505040E695001CCAF72BD033
:100F3000FE2F29D0660F771F881FBB1F2617370784
:100F40004807AB07B0E809F0BB0B802DBF01FF27B6
:100F500093585F4F3AF09E3F510578F00C94650826
:100F60000C94B0085F3FE4F3983ED4F386957795F0
:100F70006795B795F7959F5FC9F7880F911D96956F
:100F8000879597F90895E1E0660F771F881FBB1FCB
:100F9000621773078407BA0720F0621B730B840B78
:100FA000BA0BEE1F88F7E09508950E94950888F027
:100FB0009F5798F0B92F9927B751B0F0E1F0660F1D
:100FC000771F881F991F1AF0BA95C9F714C0B1305E
:100FD00091F00E94AF08B1E008950C94AF08672F1C
:100FE000782F8827B85F39F0B93FCCF3869577958D
:100FF0006795B395D9F73EF4909580957095619576
:101000007F4F8F4F9F4F0895E89409C097FB3EF4A0
:1010100090958095709561957F4F8F4F9F4F992345
:10102000A9F0F92F96E9BB279395F69587957795C3
:101030006795B795F111F8CFFAF4BB0F11F460FF83
:101040001BC06F5F7F4F8F4F9F4F16C0882311F0DB
:1010500096E911C0772321F09EE8872F762F05C0EF
:10106000662371F096E8862F70E060E02AF09A958A
:10107000660F771F881FDAF7880F9695879597F97F
:101080000895990F0008550FAA0BE0E8FEEF161619
:101090001706E807F907C0F012161306E407F5076C
:1010A00098F0621B730B840B950B39F40A2661F0E0
:1010B000232B242B252B21F408950A2609F4A14083
:1010C000A6958FEF811D811D089597F99F6780E890
:1010D00070E060E008959FEF80EC089500240A948A
:1010E0001616170618060906089500240A94121603
:1010F0001306140605060895092E0394000C11F436
:10110000882352F0BB0F40F4BF2B11F460FF04C0E2
:101110006F5F7F4F8F4F9F4F089557FD9058440F3B
:10112000551F59F05F3F71F04795880F97FB991F46
:1011300061F09F3F79F08795089512161306140603
:10114000551FF2CF4695F1DF08C016161706180690
:10115000991FF1CF86957105610508940895E8946B
:10116000BB2766277727CB0197F908950E9441088E
:1011700008F48FEF08950E94CE080C947C080E941A
:101180006E0838F00E94750820F0952311F00C9439
:1011900065080C946B0811240C94B0080E948D080B
:1011A00070F3959FC1F3950F50E0551F629FF001BA
:1011B000729FBB27F00DB11D639FAA27F00DB11DD3
:1011C000AA1F649F6627B00DA11D661F829F22275C
:1011D000B00DA11D621F739FB00DA11D621F839FE3
:1011E000A00D611D221F749F3327A00D611D231FB9
:1011F000849F600D211D822F762F6A2F11249F5707
:1012000050409AF0F1F088234AF0EE0FFF1FBB1F09
:10121000661F771F881F91505040A9F79E3F5105C8
:1012200080F00C9465080C94B0085F3FE4F3983E9E
:10123000D4F3869577956795B795F795E7959F5F72
:10124000C1F7FE2B880F911D9695879597F9089504
:10125000BB274A3031F4992322F4BDE29095819561
:101260009F4F0C943409BB27FB015527AA27880FF1
:10127000991FAA1FA41710F0A41B83955051B9F70A
:10128000A05DAA3308F0A95DA193009779F7B11189
:10129000B1931192CB010C944D09DC01FC01672F35
:1012A00071917723E1F7329704C07C916D9370833D
:0E12B0006291AE17BF07C8F30895F894FFCF00
:1012BE004552524F522100002D2D2D0000000000EE
:1012CE003C0000000C3000726573702F6D696E006B
:1012DE007273702F6D696E0062706D006F43002522
:0C12EE0053704F32006D6D4867002E00F9
:00000001FF
